:020000040800F2
:100000007048002021030008BD480008E5450008AD
:10001000CD470008991B0008ED9A00080000000079
:10002000000000000000000000000000FD8F00083C
:100030002525000800000000C57A0008DD970008AB
:100040003B0300083B0300083B0300083B03000898
:100050003B0300083B0300083B0300083B03000888
:100060003B0300083B0300083B0300083B03000878
:100070003B0300083B0300083B030008752300080E
:100080003B0300083B0300083B0300083B03000858
:100090003B0300083B0300083B0300083B03000848
:1000A0003B0300083B0300083B0300083B03000838
:1000B0003B0300083B0300083B0300083B03000828
:1000C0003B0300083B0300083B0300083B03000818
:1000D0003B0300083B0300083B0300083B03000808
:1000E0003B0300083B0300083B0300083B030008F8
:1000F0003B030008B99800083B0300083B030008D5
:100100003B0300083B0300083B0300083B030008D7
:100110003B0300083B0300083B0300083B030008C7
:100120003B0300083B0300083B0300083B030008B7
:100130003B0300083B0300083B0300083B030008A7
:100140003B0300083B0300083B0300083B03000897
:100150003B0300083B0300083B0300083B03000887
:100160003B0300083B0300083B0300083B03000877
:100170003B0300083B0300083B03000800000000AD
:100180003B0300083B03000800F002F800F0B6F85B
:100190000AA090E8000C82448344AAF10107DA45E2
:1001A00001D100F0ABF8AFF2090EBAE80F0013F07E
:1001B000010F18BFFB1A43F0010318472802010082
:1001C000480201000A444FF0000C10F8013B13F004
:1001D000070408BF10F8014B1D1108BF10F8015BA0
:1001E000641E05D010F8016B641E01F8016BF9D193
:1001F00013F0080F1EBF10F8014BAD1C0C1B09D1EA
:100200006D1E58BF01F801CBFAD505E014F8016B5B
:1002100001F8016B6D1EF9D59142D6D370470000ED
:100220000023002400250026103A28BF78C1FBD8FF
:10023000520728BF30C148BF0B6070476E2900F0DD
:10024000BD82702900F0078466290BF0D0826529F1
:100250000BF0CD8267290BF0CA8261290BF0C982AD
:1002600003681B0A28BF41F08001692900F06A82F7
:10027000642900F06782752900F064826F2900F01C
:100280009583782900F0D383E92900F02F83E429AE
:1002900000F02C83F52900F02983EF2900F09283E8
:1002A000F82900F0D2830368DB0928BF41F0800100
:1002B000632901F0D780732901F0DC80E32901F084
:1002C000E780F32901F0EC80002070471FB50BF0A8
:1002D0007CFA01F03FF90400002000210AF056FCEE
:1002E000401C6060002000210AF03AFCE0600FBC76
:1002F00000F014F80FB41FBD10B510BD01F0FCF8EC
:100300001146FFF7E3FF09F055FC01F0D9F903B4FA
:10031000FFF7F2FF03BC01F0E1F9000001F016BAAB
:100320000948804709480047FEE7FEE7FEE7FEE789
:10033000FEE7FEE7FEE7FEE7FEE7FEE704480549C5
:10034000054A064B70470000A5980008890100087F
:10035000701800207048002070380020703800208D
:1003600053EA020C00F069802DE9F04B4FF00006D3
:10037000002B1FBFB3FA83F503FA05F424FA05F640
:100380005E4012BF1643B2FA82F502FA05F4C5F1D7
:1003900020051EBF22FA05FC44EA0C04203556EA6B
:1003A000044C4FEA144418BF641C4FF000084FF08F
:1003B0000009904271EB030C39D3002919BFB1FA3F
:1003C00081F701FA07F6B0FA80F700FA07F6C7F1ED
:1003D00020071EBF20FA07FC46EA0C062037B6FBB2
:1003E000F4FCA7EB0507103F07F01F0BCBF120062D
:1003F0002CFA06F60CFA0BFB44BFB3460026202F5E
:10040000A4BF5E464FF0000B5BEA060C08BF4FF03E
:10041000010B19EB0B0948EB0608ABFB027C06FB52
:1004200002CC0BFB03CCC01B71EB0C01C1E70B46EC
:10043000024641464846BDE8F08B13B5084318BF55
:100440004FF0FF300146AFF30080BDE81C4070471D
:100450001CB50C46064B7B4469460090204600F0D4
:10046000C6F904460020694600F0D4F920461CBDB8
:10047000BB0300007CB51D4616460C00009001D061
:100480002044401E074B7B442A4669460190304673
:1004900000F0ADF905461CB10020694600F0BAF93C
:1004A00028467CBD95030000032A40F2308010F0FE
:1004B000030C00F0158011F8013BBCF1020F6244FF
:1004C00098BF11F801CB00F8013B38BF11F8013B90
:1004D000A2F1040298BF00F801CB38BF00F8013B3D
:1004E00011F0030300F02580083AC0F0088051F8AD
:1004F000043B083A51F804CBA0E80810F5E7121DB8
:100500005CBF51F8043B40F8043BAFF30080D207D6
:1005100024BF11F8013B11F801CB48BF11F8012BA2
:1005200024BF00F8013B00F801CB48BF00F8012BC5
:10053000704710B5203AC0F00B80B1E81850A0E821
:100540001850B1E81850A0E81850203ABFF4F5AFA1
:100550005FEA027C24BFB1E81850A0E8185044BFFD
:1005600018C918C0BDE810405FEA827C24BF51F86A
:10057000043B40F8043B08BF7047D20728BF31F85E
:10058000023B48BF11F8012B28BF20F8023B48BFAF
:1005900000F8012B70474FF0000200B51346944657
:1005A0009646203922BFA0E80C50A0E80C50B1F1CB
:1005B0002001BFF4F7AF090728BFA0E80C5048BFDF
:1005C0000CC05DF804EB890028BF40F8042B08BF7D
:1005D000704748BF20F8022B11F0804F18BF00F879
:1005E000012B70470000000030B44FF0013C50F880
:1005F000042B51F8043BCCFA52F4D51A20D1FCB9A3
:1006000050F8042B51F8043BCCFA52F4D51A17D108
:10061000B4B950F8042B51F8043BCCFA52F4D51A73
:100620000ED16CB950F8042B51F8043BCCFA52F4BB
:10063000D51A05D1002CDAD030BC4FF0000070473D
:1006400029BAB1FA81F111F01801D1F120008440EA
:10065000F2D1CA40CB4012F0FF0213F0FF0330BCCE
:10066000D01A704770477047704710B500F0C2FA53
:10067000006810BD10B5044600F0BCFA046010BD5F
:1006800070B5044685690068C10601D5302600E0D2
:100690002026C00707D070BDD4E90121304690471D
:1006A000206A401C20626D1EF6D570BD70B50446F0
:1006B00085690078C00707D170BDD4E901212020E9
:1006C0009047206A401C20626D1EF6D570BD0968F7
:1006D0004A0501D540B27047C905FCD500B2704744
:1006E00009684A0501D5C0B27047C905FCD580B27A
:1006F000704770B50C460546012A05D0287880065B
:1007000000D5EA69002302E0012305E05B1C934267
:1007100002D2E05C0028F9D1A869E618C01AA861E5
:10072000286A184428622846FFF7AAFF04E0D5E9A2
:10073000012114F8010B9047B442F8D32846FFF783
:10074000B5FF70BD2DE9F0410646002410687529FB
:10075000314616A510D0FFF7BAFF002802DA404252
:1007600013A507E031688A0701D512A502E0490701
:1007700004D511A5012401E0FFF7B2FF00210A22F0
:1007800006F1240709E0B0FBF2FCB0FBF2F302FB38
:100790001C00303078541846491C0028F3D12346F9
:1007A0002A463046BDE8F04100F06DBA0000000076
:1007B0002D0000002B0000002000000011680268DE
:1007C000006A530501D508700AE0D30501D50880F9
:1007D00006E0130603D5C217C1E9000200E0086075
:1007E0000120704701694A1C02610878704700B512
:1007F0008FB0CDE901310021059105497944CDE95A
:1008000003101146684600F031F90FB000BD00003A
:10081000E5FFFFFF0A6802F8010B0A607047D1E9A3
:1008200000239A4202D2531C0B60107070470000E4
:100830002DE9FF5F15468A460446DFF8AC80F84490
:100840000027D8E900103E46CDE9001010E03AF844
:1008500016106A4602A800F027FE411C07D0217836
:10086000890603D5E269391891420DD80744761CF0
:100870002078800602D5E069B84205DDAE42E6DBAD
:100880003AF816000028E2D1A069C01BA0612046FA
:10089000FFF7F6FED8E90010CDE90010002017E0C0
:1008A0003AF818106A4602A800F0FEFDB0F1FF3FCA
:1008B00081460BD000250DF1080B05E0D4E901219C
:1008C0001BF8050090476D1C4D45F7D308F101005A
:1008D000B0428046E4DB206A384420622046FFF7BD
:1008E000E5FEBDE8FF9F0000B6AF00002DE9F04136
:1008F0008046D21D22F007020025D2E90002F52928
:1009000015A614D0011E72F1000106DA0023D0EB07
:10091000030063EB020211A608E0D8F800108B0771
:1009200001D50FA602E0490701D50EA60125114603
:10093000002408F1240704E000F060F930323A5551
:10094000641C50EA0102F7D12B463246214640464C
:10095000BDE8F04100F097B9000000002D00000054
:100960002B0000002000000030B4002100F124041E
:1009700008E002F00705D208303542EA4372DB088E
:100980006554491C52EA0305F3D10468002310A200
:10099000250708D504F020040C4304D0C4690123C2
:1009A0000CA2641EC46130BC00F06DB910B50446E1
:1009B00021461068FFF794FE02462046BDE810402D
:1009C0000023D1E7D21D22F00701D1E90023CBE7B4
:1009D0000000000030000000F0B40D460188090559
:1009E00002D5214C7C4402E01F4C7C440E34002193
:1009F00000F1240608E002F00F071209E75D42EA61
:100A000003721B097754491C52EA0307F3D1027899
:100A10000023120704D5702D06D009B1022311342A
:100A20002246F0BC00F02FB901231034F8E770B56E
:100A300004460D4621461068FFF752FE024629463D
:100A40002046BDE870400023C6E7D21D22F0070310
:100A5000D3E90023C0E70368126843F02003036072
:100A60000823C3610023B7E718AE00002DE9F05F4B
:100A7000894604464FF0000ADFF874B1FB44C0F821
:100A800020A02046E1688847002874D0252806D099
:100A9000D4E901219047206A401C2062F1E700263A
:100AA0005F462046E16888472028054607DB312D50
:100AB00005D2781910F8200C08B10643F1E7B00709
:100AC00001D526F00406C4F81CA00027C4F818A01D
:100AD0002A2D09D028460AF027F838B304EB8708F6
:100AE000303DC8F8185019E059F8041B204604EBB3
:100AF00087029161E1688847012F054618D1E069B6
:100B0000002820DA26F020061DE0D8F8180000EBB7
:100B1000800005EB40003038C8F818002046E16836
:100B2000884705460AF000F80028EED1012F0AD0C8
:100B30002E2D08D12046E16888477F1C0546022FEC
:100B400046F02006C4DBA069002803DA404246F0E4
:100B50000106A061F00701D026F010066C2D0BD025
:100B6000682D09D04C2D39D06A2D35D0742D35D053
:100B70007A2D33D016E038E0E1682F4620468847CA
:100B8000B842054609D16C2F26D04FF48060E16849
:100B9000064320468847054604E06C2F1AD04FF4E0
:100BA000807006430DB3A5F14100192802D8203505
:100BB00046F400664A462946204626604E46FFF720
:100BC0003DFB80B101280BD0F61D26F0070000F197
:100BD000080956E74020E4E78020D8E70020D6E760
:100BE00006F104094DE7284652E7206ABDE8F09F68
:100BF000A8AD0000004870479810002030B5B0F153
:100C00000A0271F100034FEA900E4EEA817EB0EBCA
:100C10000E0061EB91014FEA101E4EEA017E10EBCF
:100C20000E0041EB11114FEA102E4EEA016E10EB4F
:100C30000E0041EB11214FEA104E4EEA014E10EB2F
:100C40000E0041EB1141401841F100014FEAD00084
:100C500040EA41704FEAD1014FEA810444EA9074BE
:100C600010EB800544EB01046D1944EB0404521BA6
:100C7000A3414FF0000348BF0A3200D530BD401CED
:100C800041F1000130BD2DE9F0470D4699469246ED
:100C9000044600F124080168880604D5E06921F0C3
:100CA0001001216000E00120A84201DD471B00E0A7
:100CB0000027A1697A1902EB0900081AA0612078BF
:100CC000C00602D42046FFF7DBFC002608E0D4E98A
:100CD00001211AF806009047206A401C761C206209
:100CE0004E45F4DB2078C0060AD52046FFF7C8FC45
:100CF00006E0D4E9012130209047206A401C2062A0
:100D0000381EA7F10107F4DC07E0D4E9012118F847
:100D100005009047206A401C2062281EA5F10105AD
:100D2000F3DC2046FFF7C2FC2078000602D5022043
:100D3000BDE8F0870120FBE72DE9FF4F0C461E467A
:100D40004FF0FF378BB0D2E90001DDF860800A90E8
:100D50008A46C1F30A5505B93D46002108464FF0C1
:100D60000000BAF1000F00F4400005DA00EB80004B
:100D70004FF4400101EA50004FEA9059B9F1010FD8
:100D800000DDB9460A9850EA4A000ED044F61050E9
:100D9000A5F2FF3545432F14B8F1000F1ED0754260
:100DA000291E1EDDC9F100021CE0B8F1010F4FF051
:100DB000000001D0302103E0F24305E02154401C43
:100DC000B042FBDB30460022002121540B99C1F8D0
:100DD0000880C1E900200FB0BDE8F08FBD1B6D1C7D
:100DE000DEE74A4600DA694206A800F0F7FB06ABE8
:100DF00093E8070003AB83E8070050460A9908F020
:100E000019FF8DE80700A0F500501F3800900398E7
:100E1000002D0ADD42F21F014A460844002303A9BF
:100E20000390684609F082F909E0A0F500504A46AF
:100E30001F38002303A90390684609F08CF98DE858
:100E400007000004000C03D04FF0FF30410800E021
:100E50001046B8F1000F03D00022009215461EE0A4
:100E6000751E05D4FFF7CAFE303262556D1EF9D5E6
:100E7000B3460122084302D000227F1C04E0207800
:100E8000302801D100227F1E002A099784D01DE05E
:100E9000112D07DAFFF7B2FE303262556D1C50EAB1
:100EA0000102F5D1084302D00098C8B10EE000213C
:100EB000681E05E0235C625C63542254401E491C9A
:100EC0008142F7DBAB46A81B401E0990002004F8C6
:100ED0000B000B98099AC0F80880C0E9002B7AE74C
:100EE00011264FF0000857E72DE9F04F88460446D9
:100EF000D21D22F0070191B0D1E90001CDE90A012C
:100F000009F060FA02460B98C00F01D02D2007E0CF
:100F10002068810701D52B2002E0202101EAC000D2
:100F2000032A099001D0072A05DB034641462046E3
:100F300000F014FB0BE12078800601D5E06900E0A9
:100F40000620B8F1650F814606D0B8F1660F18D0BB
:100F5000B8F1670F70D131E00020B9F1110F0090A6
:100F600001DB112301E009F101030AAA01A90CA880
:100F7000FFF7E2FEDDE90C70002609F1010583466A
:100F800047E001204B4600904FF000470AAA01A914
:100F90000CA8FFF7D1FEDDE90DB00C995D460026E7
:100FA00010B909F101000D18B9EB050003D4C0F127
:100FB000FF3609F10105A5EB09002BE0B9F1010F9E
:100FC00001DA4FF001090020B9F1110F00904846F5
:100FD00001DD112300E003460AAA01A90CA8FFF7CE
:100FE000ABFEDDE90C704D460026834620780007F5
:100FF0000AD4AB4500DA5D4601A8012D04DD411994
:1010000011F8011C302907D04F4502DA17F1040FFF
:1010100004DA012082460FE06D1EEEE7002F02DCAD
:10102000ED1B3E4403E0781CA84200DD7D1CB81B8C
:1010300000F1010A4FF000472078000703D4AA45C9
:1010400001DB4FF0FF3A0021B7F1004F0DF14308EB
:101050008DF8431024D002202B23002F01DA7F4289
:101060002D230A21021EA0F1010000DC5FB197FBD5
:10107000F1FC97FBF1F201FB1C7C17460CF1300CE4
:1010800008F801CDEEE7A8F10100037021880905F9
:1010900001D5452100E06521A0F1010800F8011CFF
:1010A00009980FA9A1EB0807FF1D00B10120411904
:1010B00001EBEA70A1693844081A401EA06120784B
:1010C000C00602D42046FFF7DBFA099828B1D4E91C
:1010D00001219047206A401C20622078C00622D55A
:1010E0002046FFF7CDFA1EE0002E04DBB34502DDFB
:1010F00001A8805D00E03020D4E901219047206AFA
:10110000401C2062761CAAF101005FEA000A0AD1A5
:1011100000F020FAC0680168405CD4E901219047E2
:10112000206A401C2062281EA5F10105DCDC07E0D6
:10113000D4E9012118F8010B9047206A401C206275
:10114000381EA7F10107F3DC2046FFF7AFFA0320B2
:1011500011B041E62DE9F04F04460D46D21D22F0B4
:10116000070089B0D0E900974846394609F02AF9C6
:101170000246F80F01D02D2307E02068810701D532
:101180002B2302E0202101EAC0038DF820300BB1AF
:10119000012000E00020032A824601D0072A04DB58
:1011A0002946204600F0DAF93FE12078800601D494
:1011B0000D2500E0E569C7F30A560D2D49DA002137
:1011C0004FEA175B08464FF00000002F00F4400084
:1011D00007DA00EB80004FF4400100EBD07001EA29
:1011E00060008115012901DD4FF0FF3100224FEA37
:1011F000850CBCF1180F06D31346ACF118004FF064
:101200008052C24003E04FF4801323FA0CF30CF138
:101210000C0CBCF1200F04D3ACF1200C09FA0CF03B
:1012200001E007FA0CF000294FF0004801DD18B981
:101230000FE00ED140450CD319EB02095F4121B9F3
:10124000404502D19F4329EA0209BBEB175F00D05A
:10125000761C2088000502D57B48784402E07A4855
:101260007844193808AA302302F80A30037C0AF1BE
:101270000101002E0AF1020A53546A4602DC4FF0C3
:10128000300101E04FF031014FF001088DF80010FE
:1012900002D0A6F2FF3603E059EA470100D06B4EB8
:1012A000002D02DC2178090704D54FF002082E2119
:1012B0008DF80110C44600210BE0C7F303433F0142
:1012C000C35C491C6D1E02F80830052908F10108AD
:1012D00001DA002DF1DC00210CE000EB1973491C50
:1012E0001B786D1E082902F808304FEA091908F129
:1012F000010801DA002DF0DC21688B0602D516E02A
:10130000A8F10108E04505DD02EB080313F8013CF4
:10131000302BF5D0B8F1000F09DD02EB080313F80C
:10132000013C2E2B03D1090701D4A8F10108002D9F
:1013300005DD3E2102F808106D1E08F10108407C11
:10134000002E02F8080008F1010804DA2D20764288
:1013500002F8080002E02B2002F808000A214FF4EE
:101360007A70864208F101080BDB96FBF0F330330C
:1013700002F8083096FBF0F308F1010800FB136651
:1013800001E0642E0CDB642096FBF0F3303302F8AE
:10139000083096FBF0F308F1010800FB136601E04A
:1013A0000A2E06DB96FBF1F0303002F8080008F157
:1013B000010896FBF1F001FB1060303002F80800E4
:1013C000A16908F1010808EB050202EB0A00081AFE
:1013D000A0612078C00602D42046FFF751F9216AA7
:1013E00008AE01EB0A00206204E0D4E9012116F8FE
:1013F000010B9047BAF1010AF7D22078C00602D556
:101400002046FFF73DF96E4609E016F8010B3E282D
:101410000FD0D4E901219047206A401C2062B8F126
:101420000108F2D22046FFF741F909B00320BDE8D8
:10143000F08F206A2844206203E0D4E901213020A3
:1014400090476D1EEBD3F8E795A6000002FCFFFF66
:1014500010B5436913B1AFF3008001E0FFF749F91C
:10146000012010BD127800F124010A7000224A7098
:101470000122EDE711684FF0FF32E9E710B543694B
:1014800013B1AFF3008001E0FFF7D2F9012010BDE6
:10149000128800F1240182840022C2840122EDE737
:1014A00011684FF0FF32E9E72DE9F04116460C468E
:1014B000054600F047F8036893F80101012807D0BA
:1014C000FF2C12D8185D80B101202C70BDE8F0818E
:1014D000D3F807013246214603F20713C7182846FE
:1014E000BC46BDE8F041002360474FF0FF30EDE718
:1014F00000487047981000207546FFF7F9FFAE4688
:1015000005006946534620F00700854618B020B50F
:10151000FEF714FFBDE820404FF000064FF0000733
:101520004FF000084FF0000BAC46ACE8C009ACE847
:10153000C009ACE8C009ACE8C00921F007018D463C
:101540007047000010B500F005F8001D10BD00BF89
:101550003D96000000487047B81000202DE9F0418A
:101560001F46044603260168072A01F4006004DBD5
:1015700008B116A505E016A503E008B115A500E021
:1015800015A521F010002060A069C01EA0610FB158
:10159000401EA0612046FFF773F84FB1D4E9012146
:1015A00038469047206A401C2062C01C206206E03A
:1015B000206AFAE7D4E9012115F8010B9047761E5D
:1015C000F8D22046FFF772F8BDE8F0814E414E0098
:1015D0006E616E00494E4600696E66002DE9F04767
:1015E000814616468AB0354878440DC88DE80D000E
:1015F00032487844801C03AC0DC884E80D0041F6E5
:101600009B300844372190FBF1F290FBF1F5A5F1F6
:10161000800501FB12041B3C02D56442012000E05E
:101620000020DFF898A080460027FA44AAF1BE0AFD
:101630000EE0E0070AD03246684607EB4701012377
:101640000AEB810108F087FD8DE8070064107F1C1C
:10165000002CEED1194F7F44AE3F19E0E80715D0BA
:1016600007EB04100DF1180A90E80E008AE80E004E
:10167000C068F04201D1981908903246012306A9AA
:1016800003A808F068FD03AB83E807006D10641C35
:10169000002DE3D14FF0010332466946B8F1000F47
:1016A00003A802D008F042FD01E008F054FDC9E9AA
:1016B0000001C9F808200AB0BDE8F08798A300002F
:1016C00010B50446AFF300802046BDE81040FEF799
:1016D0001EBE002801D000F001B870470149182053
:1016E000ABBEFEE72600020070B505460C460A2098
:1016F00000E06D1C00F011F835B128780028F8D111
:1017000002E0641C00F009F814B120780028F8D138
:10171000BDE870400A20AFF3008008B569468DF837
:1017200000000320ABBE08BD70470246C91C21F073
:101730000301D2E900031B1A8B4201D2002070473B
:101740000144C91D21F00701116070472DE9F34FD5
:1017500083B000274FF48074BA4603A821468DF861
:101760000070FFF7E2FF5FEA000801D100F0AAF87D
:101770002146404600F070F8060009D04FF0010BFA
:101780004546C14616F8014B8FB15C2C16D01CE0C3
:1017900008F108004146C8F800000020C8F804001D
:1017A000D8F800402070012005B0BDE8F08F222C51
:1017B00001D0272C0FD12746BA462CE030782228BA
:1017C00007D05C2805D0272803D0BC4203D10027CE
:1017D00021E0761C04464CB12FB9202C06D0A4F190
:1017E0000900042802D905F8014BCBE74D4502D189
:1017F000BAF1000F0FD052464946002005F8010B00
:101800006846AFF300809DF8000070B14D464FF080
:10181000000A0BF1010B002CB4D14FEA8B0103A895
:10182000FFF783FF040002D004E0A946EFE70020A1
:1018300000F048F800204246C4F8008005E012F8A5
:10184000011B11B9401C44F82020AA42F7D3002103
:1018500044F820102146A7E71CB50446CDE9000155
:1018600069461520ABBE08B100201CBD20461CBD3A
:101870007047704710B5012805D0002103A0FFF77D
:1018800033FF012010BD09A1F8E70000534947527A
:10189000544D454D3A204F7574206F662068656140
:1018A00070206D656D6F7279000000003A20486508
:1018B0006170206D656D6F727920636F72727570E3
:1018C0007465640010B5FFF7D5FFBDE81040FFF761
:1018D00000BF00000000000080B58AB041F2041093
:1018E000C2F20000002181600022CCF2A022C2607E
:1018F0000990089100F0BCFB099890ED000A90ED6A
:10190000011ABDEEC00A10EE101ABDEEC10A10EEAB
:10191000102A4FF61053C0F60003EC46CCF81030F6
:101920008023CCF80C30CCF80830089BCCF804307D
:10193000CCF800304FF0200C402308461146624698
:1019400005F068FC41F24860C2F2000090ED000A28
:1019500090ED021A30EE410A10EE100A09F09AFEDC
:1019600041EC120B9FED2A3B51EC130BC90F53ECCA
:10197000122B61F3DF7343EC122B52EC121B9FED21
:10198000262B5CEC123B0790084611461A4663462C
:1019900009F0C0FE00280BD1FFE741F22070C2F22F
:1019A00000000021C4F2DC2181600021C160FFE75A
:1019B00041F22070C2F20000069000F059FB069838
:1019C00090ED000A90ED011ABDEEC00A10EE101A5B
:1019D000BDEEC10A10EE102A4FF6C033C0F6000368
:1019E000EC46CCF810308023CCF80C30CCF8083022
:1019F0000023CCF80430CCF8003010234FF0400C1A
:101A0000084611461A46634605F004FC0AB080BD3C
:101A10000000000000000000000000000000104076
:101A200080B58AB041F20410C2F20000002181604A
:101A30000022CCF2A022C2600990089100F018FBAD
:101A4000099890ED000A90ED011ABDEEC00A10EE63
:101A5000101ABDEEC10A10EE102A4FF61053C0F650
:101A60000003EC46CCF810308023CCF80C30CCF8D6
:101A70000830089BCCF80430CCF800304FF0200C34
:101A8000402308461146624605F0C4FB41F2486017
:101A9000C2F2000090ED000A90ED021A30EE410A09
:101AA00010EE100A09F0F6FD41EC120B9FED2A3BF7
:101AB00051EC130BC90F53EC122B61F3DF7343ECA2
:101AC000122B52EC121B9FED262B5CEC123B079065
:101AD000084611461A46634609F01CFE00280BD141
:101AE000FFE741F23410C2F200000021C4F2CC2121
:101AF00081600021C160FFE741F23410C2F20000B2
:101B0000069000F0B5FA069890ED000A90ED011AE3
:101B1000BDEEC00A10EE101ABDEEC10A10EE102A7A
:101B20004FF64043C0F60003EC46CCF8103080235B
:101B3000CCF80C30CCF808300023CCF80430CCF8CA
:101B400000301A234FF0400C084611461A466346EF
:101B500005F060FB0AB080BD00000000000000003E
:101B6000000000000000104080B541F2F800C2F211
:101B700000000068C068002804D0FFE7022007F0DA
:101B80004DFAFFE780BD000080B540F6D830C2F2C4
:101B9000000005F087FD80BDFFE7FEE781B080B55E
:101BA000A9B02B930B468446ADF8A200ADF8A01067
:101BB00027920020ADF89A002BA80590279A059847
:101BC0000DF11A014FF0800E039008460291714604
:101BD000DDF80CE001937346CDF800C0FEF74AFC37
:101BE00002990491FFE70498007800281DD0FFE7D0
:101BF00004980078000600280BD5FFE7BDF8A20086
:101C0000BDF89A100844ADF89A0004980230049088
:101C10000AE0BDF8A000BDF89A100844ADF89A009B
:101C2000049801300490FFE7DDE7BDF99A0029B080
:101C3000BDE8804001B0704710B584B003900398B0
:101C400000F1100100F1200200F1300300F1400C1E
:101C500000F1500E6C46C4F804E0C4F800C000F077
:101C60005BF80398011D00F1140200F1240300F158
:101C7000340C00F1440E54306C466060C4F800E04F
:101C8000084611461A46634600F046F8039800F1EC
:101C9000080100F1180200F1280300F1380C00F1EE
:101CA000480E58306C466060C4F800E008461146A3
:101CB0001A46634600F030F8039800F10C0100F179
:101CC0001C0200F12C0300F13C0C00F14C0E5C30C6
:101CD0006C466060C4F800E0084611461A46634648
:101CE00000F01AF804B010BD10B584B0039003984A
:101CF000011D00F1080200F10C0300F1100C00F1CD
:101D0000140E6C46C4F804E0C4F800C000F004F8F7
:101D100004B010BD0000000080B594B0DDF85CC0D8
:101D2000DDF858E0139012911192109341F2F800EF
:101D3000C2F200000068407A002840F0B680FFE759
:101D4000139890ED000A129890ED001AB4EE410A33
:101D5000F1EE10FA01D1FFE772E141F2F800C2F2B0
:101D60000000006890ED010AB5EE400AF1EE10FAAD
:101D70000ADCFFE7119800210160109801601298B9
:101D80000068139908605BE1119800681099086079
:101D9000129890ED000A139890ED001A30EE410A67
:101DA000119880ED000A41F2F800C2F200000168CB
:101DB00049680C90084609F06DFC41EC120B9FED50
:101DC000A23B53EC132B51EC120B09F039FA41EC06
:101DD000120B119800688DED0A2B09F05BFC41ECA9
:101DE000120B9DED0A3B51EC130B53EC122B09F037
:101DF00027FA41EC120B13980168099008468DED03
:101E0000062B09F047FC41EC120B9DED063B53EC11
:101E1000132B51EC120B08F00DFF41EC120B51EC9F
:101E2000120B08F0D5FE09990860139890ED000A8E
:101E3000129890ED001A30EE410A10EE100A09F0E7
:101E400029FC41EC120B51EC120B9FED812B53EC52
:101E5000122BDB0F63F3DF7141EC120B0C9801685E
:101E600091ED010AB3EE041A80EE010A10EE100A99
:101E700005928DED022B09F00DFC41EC120B9DED4E
:101E8000023B51EC130B53EC122B09F043FC0028DE
:101E90000AD1FFE7119800210160109801601298A3
:101EA000006813990860CBE0FFE741F2F800C2F246
:101EB00000000068407A012840F0C280FFE741F24C
:101EC000F800C2F20000006890ED010AB5EE400A89
:101ED000F1EE10FA0EDCFFE7119800210160109876
:101EE00001601798016016980160129800681399B4
:101EF0000860A5E041F2F800C2F20000016891ED2F
:101F0000010A9FED591A20EE010A8DED0F0A0068B3
:101F100090ED010A9FED551A20EE010A8DED0E0A93
:101F200041F26F20C3F603300D90119800681099AC
:101F30000860129890ED000A139890ED001A30EEA8
:101F4000410A119880ED000A119890ED000A169848
:101F500090ED001A31EE000A80ED000A119890ED24
:101F6000000A109890ED001A30EE410A10EE100AA7
:101F700009F090FB41EC120B51EC120B9FED362B4C
:101F800053EC122B08F00AFF41EC120B51EC120B30
:101F900008F01EFE179908609DED0F0A119890ED4C
:101FA000001A20EE010A9DED0E1A169890ED003AE7
:101FB00021EE031A30EE010A9DED0D1A179890EDEF
:101FC000003A21EE031A30EE010A139890ED001A40
:101FD00031EE000A80ED000A129890ED000A139885
:101FE00090ED001A30EE410A10EE100A09F052FB93
:101FF00041EC120B51EC120B9FED152B53EC122BF5
:10200000DB0F63F3DF7141EC120B51EC120B9FED10
:10201000142B5CEC123B01921A46634609F07AFBE2
:1020200000280CD1FFE71198002101601098016091
:1020300017980160129800681399086000E0FFE7A4
:1020400014B080BD00BF00BF7B14AE47E17A943F5F
:1020500000000000000000009A9999999999B93FF1
:10206000000000000000E03F0AD7A33C0AD7A33BD2
:1020700010B584B00390039800F1080100F110023C
:1020800000F1180300F1200C00F1280E6C46C4F892
:1020900004E0C4F800C0FFF73FFE0398011D00F103
:1020A0000C0200F1140300F11C0C00F1240E2C3082
:1020B0006C466060C4F800E0084611461A46634664
:1020C000FFF72AFE04B010BD80B541F2F800C2F25D
:1020D0000000006890F9000000283DD1FFE741F2C0
:1020E000E850C2F2000090ED000A41F2F800C2F29E
:1020F00000000168B1F92E1001EE101AB8EEC11AF5
:1021000030EE010A9FED391A30EE010A41F24861C2
:10211000C2F2000181ED000A0268526C4A60026856
:10212000126C8A600268526CCA600168B1F91410BE
:1021300000EE101AB8EEC00A41F2D051C2F200010E
:1021400081ED000A0068B0F9140000EE100AB8EE44
:10215000C00A81ED010AFFE741F2F800C2F2000077
:10216000006890F9000001283CD1FFE741F2F80037
:10217000C2F20000016891ED100AB1F9361001EECB
:10218000101AB8EEC11A30EE010A41F24861C2F2EB
:10219000000181ED000A0268B2F93820D24300EE56
:1021A000102AB8EEC00A81ED010A0268126C8A603A
:1021B0000268526CCA600168B1F9141000EE101A7E
:1021C000B8EEC00A41F2D051C2F2000181ED000A1E
:1021D0000068B0F9140000EE100AB8EEC00A81EDF4
:1021E000010AFFE706F02CFF80BD00BF000000C31E
:1021F00080B541F2F800C2F20000006890F90000DA
:10220000002867D1FFE741F2E850C2F2000090EDEC
:10221000000A41F2F801C2F200010A68B2F92E2068
:1022200001EE102AB8EEC11A30EE010A9FED501AE5
:1022300030EE010A41F24862C2F2000282ED000A69
:1022400090ED010A0B68B3F9303001EE103AB8EEA8
:10225000C11A30EE010A82ED010A0B6893ED070AFC
:10226000B3F92E3001EE103AB8EEC11A30EE010A81
:1022700082ED020A0B6893ED080AB3F9303001EEE3
:10228000103AB8EEC11A30EE010A82ED030A0A686C
:10229000D26902610A68126A42610A68526A8261FE
:1022A0000A68926AC26141F2D050C2F20000002274
:1022B000CCF2400202600A68B2F9142000EE102A43
:1022C000B8EEC00A80ED010A08680022428708685B
:1022D0008287FFE741F2F800C2F20000006890F93F
:1022E0000000012840D1FFE741F2F800C2F20000EF
:1022F0000168B1F93220B1F9361002EBD2725210F6
:1023000001EBD171A2EB610100EE101AB8EEC00A28
:1023100041F24861C2F2000181ED020A0022C4F2DA
:10232000C002CA600022CCF248220A600268B2F9F8
:102330003620524200EE102AB8EEC00A81ED010AA2
:1023400041F2D051C2F200014FF07E520A600268A1
:10235000B2F9142000EE102AB8EEC00A81ED010A8D
:10236000006800214187FFE706F06AFE80BD00BFDC
:102370000000004380B541F25070C2F2000000F04E
:1023800069FA80BD82B001900198007810384AF651
:10239000AB21CAF6AA21A0FB01010909009100990D
:1023A0004BF6C612C0F60002515C019AD165009945
:1023B000042907D3FFE701980168042262F30901A9
:1023C000816506E00198016840F2FF329143816522
:1023D000FFE70198806D02B07047000086B005905D
:1023E00000208DF813000598806A03900598806995
:1023F000002823D1FFE70398032802901CD80299F4
:10240000DFE801F0020E0219059890F82F00C007CE
:10241000002804D0FFE701208DF81300FFE70CE04F
:102420000598C06AB0F1C07F04D1FFE701208DF8A4
:102430001300FFE701E000E0FFE747E0059880694F
:10244000B0F5005F26D1FFE70398032801901FD85D
:102450000199DFE801F00206021201208DF8130055
:1024600017E0059890F82F00C007002804D0FFE778
:1024700001208DF81300FFE70BE00598C06AB0F16A
:10248000C07F04D1FFE701208DF81300FFE700E0D3
:10249000FFE71AE003980328009004D3FFE70098B1
:1024A000032804D00FE001208DF813000CE00598FC
:1024B00090F82F00C007002804D0FFE701208DF816
:1024C0001300FFE700E0FFE7FFE7FFE79DF81300D9
:1024D00006B0704784B00390029101920093039874
:1024E0000068016821F4802101600098039909685F
:1024F000486003988068402809D1FFE70198039954
:1025000009688860029803990968C86008E0029821
:10251000039909688860019803990968C860FFE712
:1025200004B0704770470000F0B58BB0DDF840C0D4
:102530009E460C460A90ADF8261008928DF81F3082
:102540008DF81EC00A9890F82D00C007002800F0F2
:10255000D680FFE740F2E130C0F60100069041F27C
:10256000F800C2F2000000680069BDF9261001EB16
:10257000410100EBC100806800281ED0FFE70A98E7
:102580000069BDF9261001EB410100EBC100406874
:10259000002812D1FFE70A980069BDF9261001EB67
:1025A000410100EBC100C068002806D1FFE740F2FE
:1025B000CE30C0F60100069063E041F2F800C2F2AE
:1025C000000000680069BDF9261001EB410100EB35
:1025D000C100806800281ED1FFE70A980069BDF994
:1025E000261001EB410100EBC1004068002812D029
:1025F000FFE70A980069BDF9261001EB410100EBE5
:10260000C100C068002806D1FFE740F2DA30C0F60A
:102610000100069034E041F2F800C2F200000068C8
:102620000069BDF9261001EB410100EBC100806893
:1026300000281ED1FFE70A980069BDF9261001EBBA
:10264000410100EBC1004068002812D1FFE70A9861
:102650000069BDF9261001EB410100EBC100C06823
:10266000002806D0FFE740F2CA30C0F6010006900D
:1026700005E040F2CC30C0F601000690FFE7FFE72E
:10268000FFE741F2E850C2F2000090ED000A90ED41
:10269000011A90ED022A90ED033ABDEEC00A10EE49
:1026A000100ABDEEC10A10EE101AB9EE080A32EE99
:1026B000000ABDEEC00A10EE102ABDEEC30A10EEED
:1026C000103ADDF820C09CED000A9CED011ABDEE29
:1026D000C00A10EE10CABDEEC10A10EE10EA9DF855
:1026E0001F409DF81E50069E6F463E61FD60BC6017
:1026F000C7F804E0C7F800C003F0C6FFFFE70BB05F
:10270000F0BD000080B540F69C30C2F2000004F03D
:10271000C9FF80BD7047000070470000704700008F
:1027200081B0EFF3108072B60090FFE7FEE7000083
:1027300082B001900020ADF80200FFE70198BDF9DA
:10274000021001EB410150F83100002806D0FFE7EC
:10275000BDF802000130ADF80200EFE7BDF902005C
:1027600002B0704783B00A4603468DF80A008DF820
:1027700009109DF90A00083801460C28009125D857
:102780000099DFE801F0072323230E2323231523D9
:1027900023231C0008208DF8080006208DF8070070
:1027A0001BE00C208DF8080007208DF8070014E0CE
:1027B00010208DF8080008208DF807000DE0142087
:1027C0008DF808000A208DF8070006E00C208DF82F
:1027D000080007208DF80700FFE79DF80900C007F3
:1027E000002805D1FFE79DF808008DF80B0004E0F4
:1027F0009DF807008DF80B00FFE79DF90B0003B073
:102800007047000083B00190009141F2FC00C2F2D9
:1028100000000068002804D1FFE7FF208DF80B00BE
:1028200013E00198002804D0FFE701208DF80B0089
:102830000BE00098002804D0FFE700208DF80B0083
:1028400003E0FF208DF80B00FFE79DF90B0003B0BC
:102850007047000080B586B005900020039041F2DB
:102860004800C2F20000006848F2B511C1F64E31CE
:10287000A0FB0101890A02910599896D01910199D5
:10288000096804910499059AD26DD140090700297D
:102890001BD5FFE70598006800684007002813D59E
:1028A000FFE705980068016821F0040101600598C0
:1028B000C06D082101FA00F0019988600598416D0A
:1028C00041F001014165FFE7FFE704980599C96DF3
:1028D000C840C007002815D0FFE705980068406988
:1028E000000600280DD5FFE70598C06D012101FA0B
:1028F00000F0019988600598416D41F00201416541
:10290000FFE7FFE704980599C96DC8404007002814
:1029100015D5FFE7059800680068800700280DD5E9
:10292000FFE70598C06D042101FA00F00199886065
:102930000598416D41F004014165FFE7FFE7049808
:102940000599C96DC840C00600284BD5FFE705981A
:10295000006800680007002843D5FFE70598C06DB0
:10296000102101FA00F0019988600598006800685C
:10297000400300281CD5FFE70598006800680003A5
:1029800000280AD4FFE70598006C002804D0FFE770
:102990000598016C8847FFE709E00598806C0028DE
:1029A00004D0FFE70598816C8847FFE7FFE717E051
:1029B000059800680068C005002807D4FFE705985F
:1029C0000068016821F008010160FFE70598006CCC
:1029D000002804D0FFE70598016C8847FFE7FFE770
:1029E000FFE7FFE704980599C96DC84080060028F5
:1029F00040F19580FFE7059800680068C006002850
:102A000040F18C80FFE70598C06D202101FA00F0AD
:102A100001998860059890F83500052838D1FFE7BE
:102A200005980068016821F01601016005980068AA
:102A3000416921F0800141610598006C002805D1B1
:102A4000FFE70598806C002807D0FFE7059800682D
:102A5000016821F008010160FFE70598C06D3F2182
:102A600001FA00F0019988600598012180F835107D
:102A7000FFE70598002180F83410FFE70598006D06
:102A8000002804D0FFE70598016D8847FFE781E043
:102A9000059800680068400300281CD5FFE70598EA
:102AA00000680068000300280AD4FFE70598406C1E
:102AB000002804D0FFE70598416C8847FFE709E04C
:102AC0000598C06B002804D0FFE70598C16B8847C4
:102AD000FFE7FFE721E0059800680068C0050028CF
:102AE00011D4FFE705980068016821F0100101602A
:102AF0000598012180F83510FFE70598002180F83E
:102B00003410FFE7FFE70598C06B002804D0FFE70B
:102B10000598C16B8847FFE7FFE7FFE7FFE70598E8
:102B2000406D002836D0FFE70598406DC0070028AB
:102B300026D0FFE70598052180F835100598006834
:102B4000016821F001010160FFE703980130039063
:102B50000299884201D9FFE707E0FFE7059800687E
:102B60000068C0070028F0D1FFE70598012180F830
:102B70003510FFE70598002180F83410FFE7FFE7E4
:102B80000598C06C002804D0FFE70598C16C884701
:102B9000FFE7FFE706B080BD80B586B00490002057
:102BA000039000F015FB02900498002804D1FFE781
:102BB00001208DF81700A7E00498406A002801D092
:102BC000FFE7FFE70498022180F83510FFE704983B
:102BD000002180F83410FFE704980068016821F0B4
:102BE00001010160FFE7049800680068C007002841
:102BF00012D0FFE700F0ECFA0299401A06280AD337
:102C0000FFE70498202141650498032180F83510DE
:102C10008DF8171078E0E6E70498006800680390E4
:102C2000039848F23F01CFF2100108400390049846
:102C300041688268C368D0F810C01143194341EA63
:102C40000C014269114382691143C2691143006A50
:102C500008430399084303900498406A042808D164
:102C6000FFE70498C16A006B084303990843039087
:102C7000FFE70398049909680860049800684069B0
:102C80000390039820F0070003900498406A03998A
:102C9000084303900498406A04281CD1FFE7049875
:102CA000806A0399084303900498C06A002811D0F1
:102CB000FFE70498FFF792FB00280AD0FFE704988B
:102CC000402141650498012180F835108DF81710D6
:102CD0001AE0FFE7FFE70398049909684861049840
:102CE000FFF750FB01900498C06D3F2101FA00F0FE
:102CF000019988600498002141650498012280F8B8
:102D000035208DF81710FFE79DF8170006B080BD3D
:102D100080B588B0069005910492039300208DF849
:102D20000B000698806D0190FFE7069890F834003C
:102D3000012804D1FFE702208DF81F0047E0069824
:102D4000012180F83410FFE7FFE7069890F835007E
:102D500001282DD1FFE70698022180F8351006984A
:102D60000021416506980599049A039BFFF7B2FB81
:102D70000698C06D3F2101FA00F00199886006981D
:102D80000068016841F0160101600698006C002897
:102D900007D0FFE706980068016841F0080101606C
:102DA000FFE706980068016841F00101016009E051
:102DB000FFE70698002180F83410FFE702208DF825
:102DC0000B00FFE79DF80B008DF81F00FFE79DF853
:102DD0001F0008B080BD00008EB00D900C91002047
:102DE0000A90099008900B90FFE70B980F2800F2CB
:102DF000D281FFE70B98012101FA00F00A900C98AC
:102E000000680A990840099009980A99884240F098
:102E1000BD81FFE70C98406800F00300012807D04F
:102E2000FFE70C98406800F0030002282FD1FFE76D
:102E30000D98806808900B984000032101FA00F07B
:102E4000089921EA000008900C98C0680B99490085
:102E5000884008990843089008980D9988600D9853
:102E6000406808900B98012101FA00F0089921EAC6
:102E7000000008900C984068C0F300100B9988403F
:102E800008990843089008980D994860FFE70C9846
:102E9000406800F00300032818D0FFE70D98C068D1
:102EA00008900B984000032101FA00F0089921EAEC
:102EB000000008900C9880680B9949008840089998
:102EC0000843089008980D99C860FFE70C9840687F
:102ED00000F00300022826D1FFE70D980B996FF050
:102EE000030202EA51010844006A08900B9800F0BE
:102EF000070080000F2101FA00F0089921EA000084
:102F000008900C9800690B9901F00701890088402E
:102F100008990843089008980D990B9B02EA530200
:102F200011440862FFE70D98006808900B98400074
:102F3000032101FA00F0089921EA000008900C989A
:102F4000406800F003000B99490088400899084345
:102F5000089008980D9908600C98807980070028DF
:102F600000F01381FFE7FFE70020079043F64400DD
:102F7000C4F20200016841F480410160006800F47D
:102F8000804007900798FFE70B9820F0030043F676
:102F90000801C4F20101405808900B9800F00300AA
:102FA00080000F2101FA00F0089921EA0000089042
:102FB0000D980021C4F20201884203D1FFE70020EE
:102FC00006905EE00D9840F20041C4F20201884292
:102FD00003D1FFE70120059050E00D9840F6000175
:102FE000C4F20201884203D1FFE70220049042E0CC
:102FF0000D9840F60041C4F20201884203D1FFE778
:103000000320039034E00D9841F20001C4F2020164
:10301000884203D1FFE70420029026E00D9841F298
:103020000041C4F20201884203D1FFE7052001906C
:1030300018E00D9841F60001C4F20201884203D164
:10304000FFE7062000900AE00D9841F60041C4F227
:1030500002010822884208BF07220092FFE7009879
:103060000190FFE701980290FFE702980390FFE7C5
:1030700003980490FFE704980590FFE705980690F1
:10308000FFE70698C0B20B9901F003018900884060
:1030900008990843089008980B9921F0030143F61A
:1030A0000802C4F20102885043F60840C4F201004D
:1030B000006808900998089921EA000008900C9887
:1030C0008079C006002805D5FFE7099808990843CC
:1030D0000890FFE7089843F60841C4F20101086030
:1030E00043F60C40C4F20100006808900998089962
:1030F00021EA000008900C9880798006002805D508
:10310000FFE70998089908430890FFE7089843F6F5
:103110000C41C4F20101086043F60440C4F201000E
:10312000006808900998089921EA000008900C9816
:1031300080798007002805D5FFE70998089908439A
:103140000890FFE7089843F60441C4F201010860C3
:1031500043F60040C4F201000068089009980899FD
:1031600021EA000008900C988079C007002805D05B
:10317000FFE70998089908430890FFE7089843F685
:103180000041C4F201010860FFE7FFE7FFE70B9889
:1031900001300B9029E60EB07047000082B0134654
:1031A0008C460190ADF802108DF801209DF80100C9
:1031B000002805D0FFE7BDF802000199886105E00D
:1031C000BDF80200000401998861FFE702B0704772
:1031D00041F66800C2F200000068704741F28E00BC
:1031E000C2F20000007841F66801C2F200010A68EC
:1031F000104408607047000080B582B043F600407C
:10320000C4F20200016841F400710160016841F4F8
:1032100080610160016841F480710160032000F069
:1032200095F80F2000F006F8019000F03DF800201E
:1032300002B080BD80B582B0009041F24800C2F279
:103240000000006841F28E01C2F2000109784FF4DB
:103250007A72B2FBF1F1B0FBF1F000F051FF0028FF
:1032600004D0FFE701208DF8070018E000980F2830
:103270000DD8FFE700994FF0FF30002200F046F82C
:10328000009841F29001C2F20001086003E00120C1
:103290008DF8070003E000208DF80700FFE79DF898
:1032A000070002B080BD000082B0FFE7002001905F
:1032B00043F64400C4F20200016841F48041016019
:1032C000006800F4804001900198FFE7FFE70020CC
:1032D000009043F64000C4F20200016841F08051C2
:1032E0000160006800F0805000900098FFE702B095
:1032F0007047000080B582B001468DF807009DF947
:103300000700009106F0F4FB02B080BD80B588B0E4
:1033100003468DF81F000691059200200490039348
:1033200006F000FC04909DF91F000499069A059B85
:103330000290084611461A4601F0C2FA029901901D
:103340000846019906F0F6FB08B080BD80B582B052
:103350000190019806F010FC02B080BD80B584B0E9
:10336000029001910298002804D1FFE701208DF816
:103370000F0021E1019843F60041C4F202010968FF
:1033800001F00701884212D9FFE7019843F6004196
:10339000C4F202010870086800F007000199884231
:1033A00004D0FFE701208DF80F0005E1FFE7029848
:1033B0000078800700282AD5FFE7029800784007A8
:1033C000002809D5FFE743F60800C4F202000168AF
:1033D00041F4E0510160FFE70298007800070028FF
:1033E00009D5FFE743F60800C4F20200016841F482
:1033F00060410160FFE743F60800C4F20200016883
:1034000021F0F001029A926811430160FFE70298EF
:103410000078C00700286ED0FFE7029840680128B6
:1034200011D1FFE743F60000C4F20200006800F487
:1034300000300021B1EB504F04D1FFE701208DF89F
:103440000F00B9E02CE002984068022805D0FFE7A1
:1034500002984068032811D1FFE743F60000C4F248
:103460000200006800F000700021B1EB506F04D141
:10347000FFE701208DF80F009EE010E043F600000A
:10348000C4F20200006800F002000021B1EB500F0E
:1034900004D1FFE701208DF80F008DE0FFE7FFE783
:1034A00043F60800C4F20200016821F00301029A09
:1034B000526811430160FFF78BFE0090FFE743F66F
:1034C0000800C4F20200006800F00C00029949688C
:1034D000B0EB810F0ED0FFE7FFF77AFE0099401A9C
:1034E00041F28931884204D3FFE703208DF80F00B1
:1034F00062E0E4E7FFE7019843F60041C4F202010D
:10350000096801F00701884212D2FFE7019843F6EB
:103510000041C4F202010870086800F00700019938
:10352000884204D0FFE701208DF80F0044E0FFE758
:1035300002980078400700280CD5FFE743F6080002
:10354000C4F20200016821F4E051029AD2681143EA
:103550000160FFE702980078000700280DD5FFE71B
:1035600043F60800C4F20200016821F46041029AA7
:10357000126941EAC2010160FFE700F021F843F659
:103580000801C4F202010968C9B209094BF6B01278
:10359000C0F60002515CC84041F24801C2F200018D
:1035A000086041F29000C2F200000068FFF742FE9E
:1035B00000218DF80F10FFE79DF80F0004B080BDCB
:1035C00080B586B00020059004900390029043F6E9
:1035D0000800C4F20200006800F00C000146002858
:1035E000019108D0FFE7019804280AD0FFE701986D
:1035F00008280CD04FE042F20040C0F2F4000290E4
:103600004FE041F20020C0F27A00029049E043F618
:103610000400C4F20200016801F03F010591006856
:103620004002002813D5FFE743F60400C4F202006D
:103630000068C0F3881041F20021C0F27A01A0FBBB
:103640000101059A0023FCF78BFE049012E043F67B
:103650000400C4F202000068C0F3881042F2004186
:10366000C0F2F401A0FB0101059A0023FCF778FEEB
:103670000490FFE743F60400C4F20200006800F47F
:103680004030022101EBD030039004980399B0FB45
:10369000F1F0029005E042F20040C0F2F400029026
:1036A000FFE7029806B080BD80B586B0049004980C
:1036B000002804D1FFE701208DF8170057E3049894
:1036C0000078C007002800F0A980FFE743F6080053
:1036D000C4F20200006800F00C00042813D0FFE7D9
:1036E00043F60800C4F20200006800F00C0008284D
:1036F0001FD1FFE743F60400C4F202000068400255
:10370000002816D5FFE743F60000C4F20200006867
:1037100000F400300021B1EB504F09D0FFE70498CE
:103720004068002804D1FFE701208DF817001EE350
:1037300073E0FFE704984068B0F5803F09D1FFE7E8
:1037400043F60000C4F20200016841F480310160D8
:1037500020E004984068B0F5A02F0DD1FFE743F6B4
:103760000000C4F20200016841F480210160016898
:1037700041F4803101600CE043F60000C4F2020025
:10378000016821F480310160016821F48021016029
:10379000FFE7FFE7FFE70498406800281ED0FFE737
:1037A000FFF716FD0390FFE743F60000C4F20200A6
:1037B000006800F400300021B1EB504F0DD1FFE75D
:1037C000FFF706FD0399401AB0F57A7F04D9FFE7A9
:1037D00003208DF81700CAE2E6E71DE0FFF7F8FCCA
:1037E0000390FFE743F60000C4F20200006800F413
:1037F00000300021B1EB504F0DD0FFE7FFF7E8FCA0
:103800000399401AB0F57A7F04D9FFE703208DF8B9
:103810001700ACE2E6E7FFE7FFE7FFE70498007870
:103820008007002840F19780FFE743F60800C4F2C4
:103830000200006810F00C0F13D0FFE743F60800F9
:10384000C4F20200006800F00C0008282CD1FFE749
:1038500043F60400C4F2020000684002002823D4AA
:10386000FFE743F60000C4F20200006800F0020027
:103870000021B1EB500F09D0FFE70498C068012880
:1038800004D0FFE701208DF8170070E243F6000036
:10389000C4F20200016821F0F801049A126941EAB9
:1038A000C2010160FFE755E00498C06800282ED0EF
:1038B000FFE70020C4F2472001210160FFF788FCE8
:1038C0000390FFE743F60000C4F20200006800F036
:1038D00002000021B1EB500F0CD1FFE7FFF778FC9D
:1038E0000399401A032804D3FFE703208DF817003B
:1038F0003DE2E7E743F60000C4F20200016821F070
:10390000F801049A126941EAC201016021E0002035
:10391000C4F2472000210160FFF75AFC0390FFE743
:1039200043F60000C4F20200006800F0020000212B
:10393000B1EB500F0CD0FFE7FFF74AFC0399401A98
:10394000032804D3FFE703208DF817000FE2E7E711
:10395000FFE7FFE7FFE704980078000700284CD551
:10396000FFE704984069002823D0FFE740F6806015
:10397000C4F2472001210160FFF72AFC0390FFE712
:1039800043F67400C4F20200006800F00200002157
:10399000B1EB500F0CD1FFE7FFF71AFC0399401A67
:1039A000032804D3FFE703208DF81700DFE1E7E7E2
:1039B00022E040F68060C4F2472000210160FFF75A
:1039C00007FC0390FFE743F67400C4F202000068AE
:1039D00000F002000021B1EB500F0CD0FFE7FFF721
:1039E000F7FB0399401A032804D3FFE703208DF85F
:1039F0001700BCE1E7E7FFE7FFE70498007840071E
:103A0000002840F1CF80FFE700208DF8070043F643
:103A10004000C4F202000068C000002815D4FFE78F
:103A2000FFE70020009043F64000C4F20200016866
:103A300041F080510160006800F0805000900098D3
:103A4000FFE701208DF80700FFE747F20000C4F20E
:103A500000000068C005002822D4FFE747F20000FC
:103A6000C4F20000016841F480710160FFF7B0FB0F
:103A70000390FFE747F20000C4F200000068C005B1
:103A800000280CD4FFE7FFF7A3FB0399401A032893
:103A900004D3FFE703208DF8170068E1EAE7FFE7AA
:103AA000FFE704988068012809D1FFE743F670001A
:103AB000C4F20200016841F0010101601FE00498B6
:103AC000806805280DD1FFE743F67000C4F20200BC
:103AD000016841F004010160016841F001010160E9
:103AE0000CE043F67000C4F20200016821F001010D
:103AF0000160016821F004010160FFE7FFE7FFE7D3
:103B00000498806800281FD0FFE7FFF761FB03904F
:103B1000FFE743F67000C4F20200006800F0020004
:103B20000021B1EB500F0ED1FFE7FFF751FB0399D6
:103B3000401A41F28931884204D3FFE703208DF80F
:103B4000170014E1E5E71EE0FFF742FB0390FFE7F3
:103B500043F67000C4F20200006800F00200002189
:103B6000B1EB500F0ED0FFE7FFF732FB0399401A7D
:103B700041F28931884204D3FFE703208DF8170012
:103B8000F5E0E5E7FFE79DF80700012809D1FFE729
:103B900043F64000C4F20200016821F08051016048
:103BA000FFE7FFE704988069002800F0DC80FFE76A
:103BB00043F60800C4F20200006800F00C00082878
:103BC00000F08580FFE70498806902285CD1FFE758
:103BD0006020C4F2472000210160FFF7F9FA03904A
:103BE000FFE743F60000C4F20200006800F0007036
:103BF0000021B1EB506F0CD0FFE7FFF7E9FA039912
:103C0000401A032804D3FFE703208DF81700AEE025
:103C1000E7E70498C169026A436AD0F828C01143F3
:103C200041EA83114FEACC324FF6FF739A43A2F573
:103C300080321143C06A41EA006043F60401C4F2D5
:103C4000020108606020C4F2472001210160FFF7F3
:103C5000BFFA0390FFE743F60000C4F202000068D9
:103C600000F000700021B1EB506F0CD1FFE7FFF7BF
:103C7000AFFA0399401A032804D3FFE703208DF815
:103C8000170074E0E7E721E06020C4F2472000213C
:103C90000160FFF79DFA0390FFE743F60000C4F2CE
:103CA0000200006800F000700021B1EB506F0CD0F2
:103CB000FFE7FFF78DFA0399401A032804D3FFE7C3
:103CC00003208DF8170052E0E7E7FFE74AE0049889
:103CD0008069012804D1FFE701208DF8170046E034
:103CE00043F60400C4F20200006802900498806960
:103CF000012831D0FFE7029800F480000499C969D7
:103D0000884229D1FFE7029800F03F000499096A30
:103D1000884221D1FFE7029847F6C0710840049914
:103D2000496AB0EB811F17D1FFE7029800F44030D9
:103D30000499896AC9034FF6FF729143A1F5803156
:103D4000884209D1FFE7029800F070600499C96ABF
:103D5000B0EB016F04D0FFE701208DF8170006E0FB
:103D6000FFE7FFE7FFE700208DF81700FFE79DF86A
:103D7000170006B080BD000081B0009001B0704710
:103D800080B582B000900098002804D1FFE70120A0
:103D90008DF8070072E00098406A00280CD1FFE718
:103DA00000984068B0F5827F01D1FFE703E00098FA
:103DB0000021C161FFE705E0009800210161009842
:103DC0004161FFE7009800218162009890F851005E
:103DD000002808D1FFE70098002180F850100098D3
:103DE00000F050F8FFE70098022180F85110009889
:103DF0000068016821F04001016000980168426894
:103E00008368D0F80CC002F4827203F404431A44AD
:103E10000CF400631A44036903F002031A44436973
:103E200003F001031A44836903F400731A44C3695D
:103E300003F038031A44036A03F080031A43806ACC
:103E400000F40050104308600098418B01F0040119
:103E50000268406A00F01000084450600098006852
:103E6000C16921F40061C161009800214165009899
:103E7000012280F851208DF80710FFE79DF8070018
:103E800002B080BD80B588B00790002006900590F4
:103E90000490039002900798006843F60001C4F272
:103EA000000188425FD1FFE7FFE70020019043F661
:103EB0004000C4F20200016841F4804101600068E2
:103EC00000F4804001900198FFE7FFE70020009098
:103ED00043F63000C4F20200016841F002010160C3
:103EE000006800F0020000900098FFE74FF42040C7
:103EF00002900220039001200490032005900520E9
:103F0000069040F20040C4F2020002A9FEF764FFEE
:103F100041F25070C2F2000046F27001C4F2020198
:103F200001600021416040228260C1604FF48062E4
:103F3000026141618161C1614FF48032026241627C
:103F4000FEF72AFE002803D0FFE7FEF7E9FBFFE7B4
:103F5000FFE7079841F25071C2F2000181640798AF
:103F60008863FFE7FFE708B080BD000080B586B03A
:103F7000134604900391ADF80A2000208DF8090043
:103F8000FFE7049890F85000012804D1FFE70220D1
:103F90008DF81700A8E00498012180F85010FFE781
:103FA000FFE7049890F85100012804D0FFE70220B1
:103FB0008DF809008DE00398002805D0FFE7BDF8D3
:103FC0000A00002804D1FFE701208DF8090080E0F5
:103FD0000498032180F8511004980021416503984A
:103FE000049A1063BDF80A00049A9086BDF80A008E
:103FF000049AD0860498816304984164049801640B
:10400000049881870498C18704988068B0F5004FB0
:104010000DD1FFE704980068016821F040010160BC
:1040200004980068016841F480410160FFE704984A
:10403000806C48F65D51C0F6000101640498806C04
:1040400048F67551C0F60001C1630498806C48F6CB
:104050002951C0F60001C1640498806C00210165FB
:1040600004980168026B836C0C31C08E0190184675
:1040700000911146009A019BFEF74AFE00280CD0E1
:10408000FFE70498416D41F01001416501208DF872
:104090000900049981F851001BE004980068006849
:1040A00000F04000402807D0FFE70498006801684E
:1040B00041F040010160FFE704980068416841F069
:1040C0002001416004980068416841F002014160AC
:1040D000FFE7FFE70498002180F85010FFE79DF804
:1040E00009008DF81700FFE79DF8170006B080BDA6
:1040F00081B0009001B0704781B0009001B070476E
:1041000080B582B00190019805F03EFB02B080BD01
:1041100081B0009001B0704781B0009001B070474D
:1041200080B584B002900298002804D1FFE70120F6
:104130008DF80F0043E0029890F83D00002808D168
:10414000FFE70298002180F83C10029800F03CF84C
:10415000FFE70298022180F83D10029850F8041BF6
:1041600001900846019905F0AFFB0298012180F803
:104170004610FFE70298012180F83E10029880F86F
:104180003F10029880F84010029880F84110FFE735
:10419000FFE70298012180F84210029880F843104E
:1041A000029880F84410029880F84510FFE70298C2
:1041B000012180F83D1000208DF80F00FFE79DF8E9
:1041C0000F0004B080BD000080B584B00390039858
:1041D000006842F20001C4F2000188421CD1FFE7EE
:1041E000FFE70020029043F64000C4F2020001689D
:1041F00041F480710160006800F4807002900298C0
:10420000FFE72D20002101900091009AFFF77EF832
:104210000198FFF76FF8FFE704B080BD83B001900D
:10422000019890F83D00012804D0FFE701208DF8A7
:104230000B006AE00198022180F83D1001980068A7
:10424000C16841F00101C160019800680021C4F219
:10425000010188423CD0FFE701980068B0F1804F2F
:1042600036D0FFE70198006840F20041C4F2000137
:1042700088422DD0FFE70198006840F60001C4F2A3
:104280000001884224D0FFE70198006840F6004111
:10429000C4F2000188421BD0FFE70198006840F299
:1042A0000041C4F20101884212D0FFE70198006882
:1042B00044F20001C4F20101884209D0FFE70198ED
:1042C000006841F60001C4F20001884212D1FFE704
:1042D00001980068806800F00700009000980628A8
:1042E00007D0FFE701980068016841F00101016013
:1042F000FFE706E001980068016841F001010160F4
:10430000FFE700208DF80B00FFE79DF80B0003B0DE
:104310007047000081B0009001B0704780B582B056
:10432000019001980068006900F002000021B1EBE3
:10433000500F29D0FFE701980068C06800F0020024
:104340000021B1EB500F1ED0FFE7019800686FF01D
:1043500002010161019801210177019800688069DB
:104360008007002804D0FFE70198FFF7D3FF06E09D
:10437000019800F015F9019800F016F9FFE701988F
:1043800000210177FFE7FFE701980068006900F06E
:1043900004000021B1EB900F29D0FFE701980068DD
:1043A000C06800F004000021B1EB900F1ED0FFE7C1
:1043B000019800686FF00401016101980221017702
:1043C00001980068806910F4407F04D0FFE70198ED
:1043D000FFF7A0FF06E0019800F0E2F8019800F076
:1043E000E3F8FFE7019800210177FFE7FFE7019875
:1043F0000068006900F008000021B1EBD00F29D05F
:10440000FFE701980068C06800F008000021B1EBE8
:10441000D00F1ED0FFE7019800686FF0080101611E
:1044200001980421017701980068C069800700287D
:1044300004D0FFE70198FFF76DFF06E0019800F058
:10444000AFF8019800F0B0F8FFE70198002101777C
:10445000FFE7FFE701980068006900F01000002105
:10446000B1EB101F29D0FFE701980068C06800F089
:1044700010000021B1EB101F1ED0FFE7019800686B
:104480006FF010010161019808210177019800681F
:10449000C06910F4407F04D0FFE70198FFF73AFFAE
:1044A00006E0019800F07CF8019800F07DF8FFE745
:1044B000019800210177FFE7FFE701980068006994
:1044C000C007002811D0FFE701980068C068C00746
:1044D000002809D0FFE7019800686FF00101016131
:1044E000019800F065F8FFE7FFE7019800680069B0
:1044F000C0B20021B1EBD01F13D0FFE701980068D4
:10450000C068C0B20021B1EBD01F09D0FFE701980D
:1045100000686FF0800101610198FFF7F9FDFFE786
:10452000FFE701980068006900F040000021B1EB4E
:10453000901F14D0FFE701980068C06800F04000A9
:104540000021B1EB901F09D0FFE7019800686FF0E0
:1045500040010161019800F041F8FFE7FFE7019891
:104560000068006900F020000021B1EB501F14D05A
:10457000FFE701980068C06800F020000021B1EB5F
:10458000501F09D0FFE7019800686FF0200101611A
:104590000198FFF7C1FDFFE7FFE702B080BD000013
:1045A00081B0009001B0704781B0009001B07047B9
:1045B00081B000900098006842F20001C4F200014E
:1045C000884208D1FFE741F21C70C2F20000018866
:1045D00001310180FFE701B07047000081B0009019
:1045E00001B07047FFE7FEE780B584B0FFE7002029
:1045F000039043F63000C4F20200016841F4001158
:104600000160006800F4001003900398FFE70F209A
:10461000002102900191019AFEF778FE0298FEF7C0
:1046200069FE04B080BD000080B58CB000200B9006
:104630000A90099008900790FFE70020069043F643
:104640003000C4F20200016841F08001016000689E
:1046500000F0800006900698FFE7FFE70020059035
:1046600043F63000C4F20200016841F0020101602B
:10467000006800F0020005900598FFE7FFE70020C2
:10468000049043F63000C4F20200016841F00801D2
:104690000160006800F0080004900498FFE7FFE75D
:1046A0000020039043F63000C4F20200016841F09C
:1046B00001010160006800F0010003900398FFE72A
:1046C00040F60040C4F202004FF4E0610022029084
:1046D00001910092FEF762FD019807900121089177
:1046E000099100990A9107A90298FEF775FB0CB091
:1046F00080BD000080B541F2B070C2F2000043F608
:104700000001C4F2000101604FF482714160002198
:104710008160C160016141614FF4007282611022C9
:10472000C2610162416281620A21C162FFF728FB16
:10473000002803D0FFE7FDF7F3FFFFE780BD00008F
:1047400080B541F60800C2F2000042F20001C4F256
:104750000001016042F2CF01416000218160092225
:10476000C260016180218161FFF7DAFC002803D07B
:10477000FFE7FDF7D5FFFFE741F60800C2F20000B2
:10478000FFF74CFD80BD000041F20410C2F20000B2
:104790000021CCF2483181600022C2600160426099
:1047A00041F23410C2F200000021C4F201318160F4
:1047B000C2600160426041F22070C2F200004FF01E
:1047C00086418160C260016042607047FFE7FEE79A
:1047D00010B582B004F060FC04F0F4FD04F008FEB3
:1047E00004F082FE41F24860C2F20000FDF740FC96
:1047F00041F2D050C2F20000FDF776FA41F290602B
:10480000C2F20000FDF770FA41F2E850C2F2000077
:10481000FDF712FA03F058F941F27050C2F20000AD
:104820000190FDF709FA019890ED000A90ED011A48
:1048300090ED022A90ED033ABDEEC00A10EE101A78
:10484000BDEEC10A10EE102ABDEEC20A10EE103AFB
:10485000BDEEC30A10EE10CA41F2F80EC2F2000E0D
:10486000DEF800E09EF808E06C46C4F800E0084678
:1048700011461A46634603F09FFE40F21020C2F232
:104880000000007800F0010002F00CF840F6D6308D
:10489000C2F20000B0F9000000F04AF841F278607E
:1048A000C2F20000FDF720FA41F2AC60C2F2000053
:1048B000FDF7C2F901F0F8F802B010BDFFE7FEE71E
:1048C00088B0079006910592079800F007000490C1
:1048D0000498C0F10700052803D3FFE704200190E6
:1048E00004E00498C0F107000190FFE701980390ED
:1048F00004980430062803D8FFE70020009003E066
:10490000049803380090FFE70098029006980399F6
:10491000012202FA01F10139084002998840059B01
:1049200002FA01F101391940084308B0704700004C
:1049300080B582B00146ADF80600BDF9060041F22F
:104940006412C2F20002B2F90020904201D1FFE7E6
:1049500023E0BDF8060041F26411C2F200010880B4
:10496000FFE7BDF90600B0F5807F04DBFFE7FF201D
:10497000ADF80600FFE7BDF90600B0F1FF3F04DC2B
:10498000FFE70020ADF80600FFE7812003F064F8A0
:104990009DF8060003F060F8FFE702B080BD00005C
:1049A00081B00020ADF80000FFE7BDF90000072846
:1049B00023DCFFE70020ADF80200FFE7BDF90200AD
:1049C0007F2813DCFFE7BDF9000041F26611C2F257
:1049D000000101EBC010BDF9021000224254FFE7B4
:1049E000BDF802000130ADF80200E7E7FFE7BDF8CF
:1049F00000000130ADF80000D7E701B070470000BB
:104A0000B0B587B09C4696460C460546ADF81A00F0
:104A1000ADF81810ADF81620ADF81430BDF9160039
:104A2000012805DBFFE7BDF91400002801DCFFE7E2
:104A30009CE0BDF91A00B0F1FF3F03DCFFE7002066
:104A4000019003E0BDF91A000190FFE70198ADF86D
:104A50001200BDF81A00BDF816100844ADF80E009B
:104A6000BDF90E00812804DBFFE78020ADF80E00C1
:104A7000FFE7BDF91200BDF90E10884201DBFFE728
:104A800074E0BDF91800B0F1FF3F03DCFFE7002040
:104A9000009003E0BDF918000090FFE70098ADF822
:104AA0001000BDF81800BDF814100844ADF80C0053
:104AB000BDF90C00412804DBFFE74020ADF80C00F5
:104AC000FFE7BDF91000BDF90C10884201DBFFE7DC
:104AD0004CE0BDF80E00BDF81210401AADF81600FB
:104AE000BDF80C00BDF81010401AADF81400BDF868
:104AF0001000ADF80800FFE7BDF90800BDF90C1083
:104B0000884233DAFFE7BDF81200ADF80A00FFE78C
:104B1000BDF90A00BDF90E10884220DAFFE7BDF9A1
:104B2000080000EB507121F00702801A012202FAFE
:104B300000F06FF0700202EA011141F26612C2F257
:104B400000021144BDF90A208B5C23EA000088545E
:104B5000FFE7BDF80A000130ADF80A00D8E7FFE72B
:104B6000BDF808000130ADF80800C5E707B0B0BDDA
:104B7000F0B585B0DDF82CC0DDF828E01C46154600
:104B80000E460746ADF81200ADF81010ADF80E2035
:104B9000ADF80C30ADF80AE08DF809C0BDF90E0093
:104BA000002801DCFFE779E2BDF80E00C0F101004A
:104BB000ADF802000020ADF80600BDF80E00ADF81B
:104BC0000400BDF90600BDF90410BDF90C20BDF9C3
:104BD0000A3001F0B1FC00280FD0FFE7BDF8120049
:104BE000BDF806100844BDF81010BDF804201144AB
:104BF00000B209B200F004FCFFE7BDF80600404235
:104C0000BDF804104942BDF90C20BDF90A3000B2CC
:104C100009B201F091FC00280FD0FFE7BDF81200A7
:104C2000BDF80610401ABDF81010BDF80420891A0E
:104C300000B209B200F0E4FBFFE7BDF90400BDF9E2
:104C40000610BDF90C20BDF90A3001F075FC0028F2
:104C50000FD0FFE7BDF81200BDF804100844BDF8FE
:104C60001010BDF80620114400B209B200F0C8FBD4
:104C7000FFE7BDF804004042BDF806104942BDF907
:104C80000C20BDF90A3000B209B201F055FC002831
:104C90000FD0FFE7BDF81200BDF80410401ABDF8B0
:104CA0001010BDF80620891A00B209B200F0A8FB66
:104CB000FFE79DF8090000282CD0FFE7BDF80400AD
:104CC0004042ADF80000FFE7BDF90000BDF9041057
:104CD00088421EDAFFE7BDF90010BDF90C20BDF9CE
:104CE0000A30002001F028FC00280BD0FFE7BDF9B6
:104CF0001200BDF81010BDF80020114409B200F0F8
:104D00007FFBFFE7FFE7BDF800000130ADF80000D2
:104D1000DAE7FFE7FFE7BDF90600BDF904108842B6
:104D200080F2BC81FFE7BDF806000130ADF8060057
:104D3000BDF90200B0F1FF3F0ADCFFE7BDF8060055
:104D4000BDF8021001EB40000130ADF8020011E0A7
:104D5000BDF804000138ADF80400BDF80600BDF848
:104D60000410401ABDF8021001EB40000130ADF80C
:104D70000200FFE7BDF90600BDF90410BDF90C20E3
:104D8000BDF90A3001F0D8FB00280FD0FFE7BDF8CD
:104D90001200BDF806100844BDF81010BDF804203C
:104DA000114400B209B200F02BFBFFE7BDF904008B
:104DB000BDF90610BDF90C20BDF90A3001F0BCFBAD
:104DC00000280FD0FFE7BDF81200BDF8041008441A
:104DD000BDF81010BDF80620114400B209B200F071
:104DE0000FFBFFE7BDF806004042BDF80410494242
:104DF000BDF90C20BDF90A3000B209B201F09CFBEC
:104E000000280FD0FFE7BDF81200BDF80610401AC9
:104E1000BDF81010BDF80420891A00B209B200F0E4
:104E2000EFFAFFE7BDF804004042BDF80610494222
:104E3000BDF90C20BDF90A3000B209B201F07CFBCB
:104E400000280FD0FFE7BDF81200BDF80410401A8B
:104E5000BDF81010BDF80620891A00B209B200F0A2
:104E6000CFFAFFE7BDF90600BDF804104942BDF9CD
:104E70000C20BDF90A3009B201F05EFB00280FD00A
:104E8000FFE7BDF81200BDF806100844BDF8101089
:104E9000BDF80420891A00B209B200F0B1FAFFE7A8
:104EA000BDF90400BDF806104942BDF90C20BDF95A
:104EB0000A3009B201F040FB00280FD0FFE7BDF82F
:104EC0001200BDF804100844BDF81010BDF806200B
:104ED000891A00B209B200F093FAFFE7BDF80600A4
:104EE0004042BDF90410BDF90C20BDF90A3000B2F2
:104EF00001F022FB00280FD0FFE7BDF81200BDF83B
:104F00000610401ABDF81010BDF80420114400B27C
:104F100009B200F075FAFFE7BDF804004042BDF9A0
:104F20000610BDF90C20BDF90A3000B201F004FBF7
:104F300000280FD0FFE7BDF81200BDF80410401A9A
:104F4000BDF81010BDF80620114400B209B200F0FF
:104F500057FAFFE79DF80900002800F09E80FFE760
:104F6000BDF804004042ADF80000FFE7BDF90000C5
:104F7000BDF90410884241DAFFE7BDF90600BDF92A
:104F80000010BDF90C20BDF90A3001F0D5FA002857
:104F90000FD0FFE7BDF81200BDF806100844BDF8B9
:104FA0001010BDF80020114400B209B200F028FA38
:104FB000FFE7BDF806004042BDF90010BDF90C2026
:104FC000BDF90A3000B201F0B7FA00280FD0FFE7B0
:104FD000BDF81200BDF80610401ABDF81010BDF85B
:104FE0000020114400B209B200F00AFAFFE7FFE71F
:104FF000BDF800000130ADF80000B7E7BDF80600CD
:105000004042ADF80000FFE7BDF90000BDF9061011
:10501000884241DAFFE7BDF804004042BDF90010C4
:10502000BDF90C20BDF90A3000B201F085FA002864
:105030000FD0FFE7BDF81200BDF80410401ABDF80C
:105040001010BDF80020114400B209B200F0D8F9E8
:10505000FFE7BDF90400BDF90010BDF90C20BDF952
:105060000A3001F069FA00280FD0FFE7BDF81200FE
:10507000BDF804100844BDF81010BDF8002011441C
:1050800000B209B200F0BCF9FFE7FFE7BDF800008D
:105090000130ADF80000B7E7FFE73CE605B0F0BD32
:1050A000B0B58AB09C4696460C460546ADF826003B
:1050B000ADF82410ADF82220ADF82030BDF8260060
:1050C000ADF80E00BDF82400ADF80C00BDF82200CC
:1050D000ADF80A00BDF82000ADF8080000208DF8FA
:1050E00007008DF80600BDF90C00BDF908108842D4
:1050F0002ED1FFE7BDF90E00BDF90A1088420DDD83
:10510000FFE7BDF80E00ADF81000BDF80A00ADF8DD
:105110000E00BDF81000ADF80A00FFE7BDF80E0064
:10512000ADF81E00FFE7BDF91E00BDF90A10884268
:105130000DDCFFE7BDF91E00BDF90C1000F060F9B1
:10514000FFE7BDF81E000130ADF81E00EBE754E1AB
:10515000BDF90E00BDF90A1088422ED1FFE7BDF956
:105160000C00BDF9081088420DDDFFE7BDF80C000A
:10517000ADF81000BDF80800ADF80C00BDF8100047
:10518000ADF80800FFE7BDF80C00ADF81C00FFE724
:10519000BDF91C00BDF9081088420DDCFFE7BDF920
:1051A0000E00BDF91C1000F02BF9FFE7BDF81C0044
:1051B0000130ADF81C00EBE71EE1BDF90E00BDF9B2
:1051C0000A10884219DDFFE7BDF80E00ADF81000A7
:1051D000BDF80A00ADF80E00BDF81000ADF80A00E9
:1051E000BDF80C00ADF81000BDF80800ADF80C00DB
:1051F000BDF81000ADF80800FFE7BDF90C00BDF9DF
:10520000081088420EDDFFE7BDF80C004042ADF803
:105210000C00BDF808004042ADF8080001208DF8F0
:105220000700FFE7BDF90800BDF90C10401ABDF9F1
:105230000A10BDF90E20891A88421CDDFFE7BDF86F
:105240000E00ADF81000BDF80C00ADF80E00BDF872
:105250001000ADF80C00BDF80A00ADF81000BDF864
:105260000800ADF80A00BDF81000ADF808000120F4
:105270008DF80600FFE7BDF80A00BDF80E10401AD1
:10528000ADF81A00BDF80800BDF80C10401AADF8D2
:105290001800BDF818004000ADF81400BDF8180063
:1052A000BDF81A10401A4000ADF81200BDF8180001
:1052B000BDF81A10C1EB4000ADF81600BDF80E00A5
:1052C000ADF81E00BDF80C00ADF81C009DF80700FD
:1052D00000280ED0FFE79DF80600002809D0FFE760
:1052E000BDF91C00BDF81E10494209B200F088F853
:1052F00022E09DF80700002809D0FFE7BDF91E0055
:10530000BDF81C10494209B200F07AF813E09DF88C
:105310000600002807D0FFE7BDF91C00BDF91E10EC
:1053200000F06EF806E0BDF91E00BDF91C1000F09B
:1053300067F8FFE7FFE7FFE7FFE7BDF91E00BDF9EC
:105340000A10884257DAFFE7BDF81E000130ADF8B9
:105350001E00BDF91600B0F1FF3F08DCFFE7BDF805
:105360001400BDF816100844ADF816000CE0BDF8A6
:105370001C000130ADF81C00BDF81200BDF816107D
:105380000844ADF81600FFE79DF8070000280ED08E
:10539000FFE79DF80600002809D0FFE7BDF91C00D3
:1053A000BDF81E10494209B200F02AF822E09DF82B
:1053B0000700002809D0FFE7BDF91E00BDF81C104A
:1053C000494209B200F01CF813E09DF806000028DD
:1053D00007D0FFE7BDF91C00BDF91E1000F010F862
:1053E00006E0BDF91E00BDF91C1000F009F8FFE74A
:1053F000FFE7FFE7A1E7FFE7FFE70AB0B0BD000066
:1054000081B00A460346ADF80200ADF80010BDF9C0
:10541000020000280FD4FFE7BDF9000000280AD4DD
:10542000FFE7BDF902007F2805DCFFE7BDF90000BA
:10543000402801DBFFE718E0BDF9000000EB5071E8
:1054400021F00702801A012202FA00F06FF07002C8
:1054500002EA011141F26612C2F200021144BDF9E2
:1054600002208B5C18438854FFE701B070470000AE
:1054700070B58AB0DDF838C09E4614460D46064623
:10548000ADF82600ADF82410ADF82220ADF820309C
:105490008DF81FC0BDF92200002805D0FFE7BDF937
:1054A0002000002801D1FFE724E1BDF82600ADF877
:1054B0001C00BDF82600BDF8221008440138ADF8E4
:1054C0001A00BDF82400ADF81800BDF82400BDF89E
:1054D000201008440138ADF81600BDF91C00B0F1E9
:1054E000FF3F04DCFFE70020ADF81C00FFE7BDF93B
:1054F0001A00802804DBFFE77F20ADF81A00FFE7E1
:10550000BDF91800B0F1FF3F04DCFFE70020ADF863
:105510001800FFE7BDF91600402804DBFFE73F2035
:10552000ADF81600FFE7BDF81A00BDF81C10401AD0
:105530000130ADF81400BDF81600BDF81810401A7F
:105540000130ADF81200BDF91400012805DBFFE7BA
:10555000BDF91200002801DCFFE7CBE09DF81F0039
:1055600000283FD1FFE7BDF81C00ADF81000FFE7B1
:10557000BDF91000BDF91A10884213DCFFE7BDF930
:105580001000BDF91810FFF73BFFBDF91000BDF981
:105590001610FFF735FFFFE7BDF810000130ADF83A
:1055A0001000E5E7BDF81800ADF80E00FFE7BDF903
:1055B0000E00BDF91610884213DCFFE7BDF91C0090
:1055C000BDF90E10FFF71CFFBDF91A00BDF90E1052
:1055D000FFF716FFFFE7BDF80E000130ADF80E0033
:1055E000E5E787E0BDF9180000EB5070C008ADF8A2
:1055F0000C00BDF9160000EB5070C008ADF80A00B1
:10560000BDF9180000EB507121F00701401AFF218D
:1056100001FA00F08DF80900BDF9160000EB507298
:1056200022F00702101A073021FA00F08DF8080066
:10563000BDF81C00ADF80600FFE7BDF90600BDF996
:105640001A10884255DCFFE7BDF80C00ADF80400E5
:10565000FFE7BDF90400BDF90A10884242DCFFE70C
:10566000FF208DF80300BDF90400BDF90C1088423D
:1056700008D1FFE79DF809009DF8031008408DF858
:105680000300FFE7BDF90400BDF90A10884208D104
:10569000FFE79DF808009DF8031008408DF803000F
:1056A000FFE7BDF90400002815D4FFE7BDF90400A9
:1056B000072810DCFFE79DF80300BDF9041041F254
:1056C0006612C2F2000202EBC111BDF906208B5C2A
:1056D00018438854FFE7FFE7BDF804000130ADF838
:1056E0000400B6E7FFE7BDF806000130ADF806009C
:1056F000A3E7FFE70AB070BDF0B595B0DDF86CC068
:10570000DDF868E01C4615460E460746ADF8520027
:10571000ADF85010ADF84E20ADF84C30ADF84AE081
:105720008DF849C0BDF94E00002805D0FFE7BDF94E
:105730004C00002801D1FFE7B3E1BDF94A00BDF9F3
:105740004E1001EBD171B0EB610F0ADCFFE7BDF940
:105750004A00BDF94C1001EBD171B0EB610F16DDC1
:10576000FFE7BDF94E00BDF94C10884204DAFFE7AF
:10577000BDF94E00119003E0BDF94C001190FFE718
:10578000119800EBD0704008ADF84A00FFE7BDF972
:105790004A00002810DCFFE7BDF95200BDF95010A7
:1057A000BDF94E20BDF94C309DF849C0EE46CEF80B
:1057B00000C0FFF75DFE74E1BDF94A00022861D127
:1057C000FFE7BDF852000130BDF9501000B2FFF7FD
:1057D00017FEBDF85200BDF84E1008440238BDF95E
:1057E000501000B2FFF70CFEBDF852000130BDF8BA
:1057F0005010BDF84C201144013909B200B2FFF736
:10580000FFFDBDF85200BDF84E1008440238BDF847
:105810005010BDF84C201144013900B209B2FFF715
:10582000EFFDBDF95200BDF85010013109B2FFF78C
:10583000E7FDBDF95200BDF85010BDF84C201144F1
:10584000023909B2FFF7DCFDBDF85200BDF84E1079
:1058500008440138BDF85010013100B209B2FFF719
:10586000CFFDBDF85200BDF84E1008440138BDF818
:105870005010BDF84C201144023900B209B2FFF7B4
:10588000BFFD7CE0BDF85200BDF94A100844BDF8E8
:1058900050200A449DF84930EC46CCF804306FF0B3
:1058A0005903CCF8003000B212B24FF0B40C109192
:1058B0001146109A0F936346CDF838C0FFF758F998
:1058C000BDF85200BDF84E100844BDF94A10CA4355
:1058D0001044BDF850200A449DF84930EC46CCF8FD
:1058E00004300023CCF8003012B200B20D91114602
:1058F0000D9ADDF83CC00C936346FFF739F9BDF80B
:105900005200BDF94A100844BDF85020BDF84C3093
:105910001A44CB431A449DF84930EC46CCF8043085
:105920000E9BCCF8003000B212B24FF05A0C0B9123
:1059300011460B9A6346CDF828C0FFF719F9BDF858
:105940005200BDF84E100844BDF94A10CA43104435
:10595000BDF85030BDF84CC063441A449DF849303E
:10596000EC46CCF804300A9BCCF8003000B212B2FE
:1059700009911146099A0C9BFFF7FAF8FFE7FFE738
:105980009DF84900002835D0FFE7BDF85200BDF969
:105990004A100844BDF95020BDF84E30A3EB410138
:1059A000BDF94C30EC464FF0010ECCF800E000B2EF
:1059B00009B208911146089ACDF81CE0FFF758FD8E
:1059C000BDF95200BDF85010BDF94A201144BDF98F
:1059D0004E30BDF84CC0ACEB4202EC46DDF81CE0AA
:1059E000CCF800E009B212B206921A46069BFFF705
:1059F0003FFD56E0BDF95200BDF94A104218BDF90D
:105A00005030BDF84EC06044C943084411B202B2E0
:105A100008461946FFF744FBBDF95200BDF94A108C
:105A20004218BDF85030BDF84CC06344013BBDF88E
:105A30004EC06044C943084411B202B218B2059086
:105A400008460599059BFFF72BFBBDF95200BDF9F0
:105A50005010BDF94A208B18BDF84CC06144D243A8
:105A600011441AB20BB204901146049AFFF718FBC6
:105A7000BDF85200BDF84E1008440138BDF9501071
:105A8000BDF94A208B18BDF84CC06144D243114483
:105A90001AB200B20BB203901146039AFFF700FB53
:105AA000FFE715B0F0BD00002DE9F043ADB041F2C5
:105AB0006C50C2F200008078C007002815D1FFE7C3
:105AC00041F2AC60C2F200000021C4F2F011C161E9
:105AD0000021C4F2702181610021C4F2082101611A
