:020000040800F2
:10000000783100203502000871200008D51E000854
:100010006D20000821060008B92300080000000038
:10002000000000000000000000000000E9200008BF
:100030008507000800000000E520000841210008B5
:100040004F0200084F0200084F0200084F0200084C
:100050004F0200084F0200084F0200084F0200083C
:100060004F0200084F0200084F0200084F0200082C
:100070004F0200084F0200084F0200082506000842
:100080004F0200084F0200084F0200084F0200080C
:100090004F0200084F0200084F0200084F020008FC
:1000A0004F0200084F0200084F0200084F020008EC
:1000B0004F0200084F0200084F0200084F020008DC
:1000C0004F0200084F0200084F0200084F020008CC
:1000D0004F0200084F0200084F0200084F020008BC
:1000E0004F0200084F0200084F0200084F020008AC
:1000F0004F0200084F0200084F0200084F0200089C
:100100004F0200084F0200084F0200084F0200088B
:100110004F0200084F0200084F0200084F0200087B
:100120004F0200084F0200084F0200084F0200086B
:100130004F0200084F0200084F0200084F0200085B
:100140004F0200084F0200084F0200084F0200084B
:100150004F0200084F0200084F0200084F0200083B
:100160004F0200084F0200084F0200084F0200082B
:100170004F0200084F0200084F0200080000000074
:100180004F0200084F02000800F002F800F040F8AB
:100190000AA090E8000C82448344AAF10107DA45E2
:1001A00001D100F035F8AFF2090EBAE80F0013F0F4
:1001B000010F18BFFB1A43F0010318471C2300006E
:1001C0003C230000103A24BF78C878C1FAD85207FF
:1001D00024BF30C830C144BF04680C6070470000C1
:1001E0000023002400250026103A28BF78C1FBD840
:1001F000520728BF30C148BF0B6070471FB502F0DF
:1002000052F90FBC00F014F80FB41FBD10B510BDAB
:1002100000F0D6F81146FFF7F1FF02F031F900F0D7
:10022000F4F803B4FFF7F2FF03BC00F0FDF80000A0
:1002300000F032B90948804709480047FEE7FEE769
:10024000FEE7FEE7FEE7FEE7FEE7FEE7FEE7FEE786
:1002500004480549054A064B70470000092200087A
:1002600089010008780100207831002078210020E1
:100270007821002053EA020C00F069802DE9F04B50
:100280004FF00006002B1FBFB3FA83F503FA05F405
:1002900024FA05F65E4012BF1643B2FA82F502FA5E
:1002A00005F4C5F120051EBF22FA05FC44EA0C0442
:1002B000203556EA044C4FEA144418BF641C4FF032
:1002C00000084FF00009904271EB030C39D300296C
:1002D00019BFB1FA81F701FA07F6B0FA80F700FA10
:1002E00007F6C7F120071EBF20FA07FC46EA0C06F6
:1002F0002037B6FBF4FCA7EB0507103F07F01F0BF8
:10030000CBF120062CFA06F60CFA0BFB44BFB346E1
:100310000026202FA4BF5E464FF0000B5BEA060CC0
:1003200008BF4FF0010B19EB0B0948EB0608ABFBBC
:10033000027C06FB02CC0BFB03CCC01B71EB0C0157
:10034000C1E70B46024641464846BDE8F08B13B56F
:10035000084318BF4FF0FF300146AFF30080BDE8FF
:100360001C4070474FF0000200B513469446964675
:10037000203922BFA0E80C50A0E80C50B1F12001B8
:10038000BFF4F7AF090728BFA0E80C5048BF0CC066
:100390005DF804EB890028BF40F8042B08BF7047C4
:1003A00048BF20F8022B11F0804F18BF00F8012B36
:1003B0007047704770477047004870471000002032
:1003C0007546FFF7F9FFAE4605006946534620F033
:1003D0000700854618B020B5FFF73AFFBDE820407A
:1003E0004FF000064FF000074FF000084FF0000BF1
:1003F000AC46ACE8C009ACE8C009ACE8C009ACE860
:10040000C00921F007018D46704710B50446AFF3CF
:1004100000802046BDE81040FFF703BF002801D050
:1004200000F002B87047000001491820ABBEFEE79B
:100430002600020070B505460C460A2000E06D1C3F
:1004400000F011F835B128780028F8D102E0641CDA
:1004500000F009F814B120780028F8D1BDE8704008
:100460000A20AFF3008008B569468DF8000003202C
:10047000ABBE08BD70470246C91C21F00301D2E99A
:1004800000031B1A8B4201D2002070470144C91D92
:1004900021F00701116070472DE9F34F83B0002769
:1004A0004FF48074BA4603A821468DF80070FFF718
:1004B000E2FF5FEA000801D100F0AAF821464046B9
:1004C00000F070F8060009D04FF0010B4546C14618
:1004D00016F8014B8FB15C2C16D01CE008F1080017
:1004E0004146C8F800000020C8F80400D8F80040D1
:1004F0002070012005B0BDE8F08F222C01D0272C00
:100500000FD12746BA462CE03078222807D05C2845
:1005100005D0272803D0BC4203D1002721E0761C58
:1005200004464CB12FB9202C06D0A4F109000428B0
:1005300002D905F8014BCBE74D4502D1BAF1000FC6
:100540000FD052464946002005F8010B6846AFF32C
:1005500000809DF8000070B14D464FF0000A0BF18D
:10056000010B002CB4D14FEA8B0103A8FFF783FFE6
:10057000040002D004E0A946EFE7002000F048F8AC
:1005800000204246C4F8008005E012F8011B11B9B2
:10059000401C44F82020AA42F7D3002144F8201040
:1005A0002146A7E71CB50446CDE9000169461520A0
:1005B000ABBE08B100201CBD20461CBD7047704773
:1005C00010B5012805D0002103A0FFF733FF01205B
:1005D00010BD09A1F8E7000053494752544D454D5D
:1005E0003A204F7574206F662068656170206D65D4
:1005F0006D6F7279000000003A2048656170206DCF
:10060000656D6F727920636F7272757074656400C6
:1006100010B5FFF7D5FFBDE81040FFF7FFBE0000A3
:10062000FFE7FEE780B540F27000C2F2000000F084
:10063000B3F880BD82B001900198007810384AF676
:10064000AB21CAF6AA21A0FB01010909009100997A
:1006500042F2D042C0F60002515C019AD165009985
:10066000042907D3FFE701980168042262F3090116
:10067000816506E00198016840F2FF32914381658F
:10068000FFE70198806D02B07047000086B00590CA
:1006900000208DF813000598806A03900598806902
:1006A000002823D1FFE70398032802901CD8029961
:1006B000DFE801F0020E0219059890F82F00C0073C
:1006C000002804D0FFE701208DF81300FFE70CE0BD
:1006D0000598C06AB0F1C07F04D1FFE701208DF812
:1006E0001300FFE701E000E0FFE747E005988069BD
:1006F000B0F5005F26D1FFE70398032801901FD8CB
:100700000199DFE801F00206021201208DF81300C2
:1007100017E0059890F82F00C007002804D0FFE7E5
:1007200001208DF81300FFE70BE00598C06AB0F1D7
:10073000C07F04D1FFE701208DF81300FFE700E040
:10074000FFE71AE003980328009004D3FFE700981E
:10075000032804D00FE001208DF813000CE0059869
:1007600090F82F00C007002804D0FFE701208DF883
:100770001300FFE700E0FFE7FFE7FFE79DF8130046
:1007800006B070477047000081B0EFF3108072B67A
:100790000090FFE7FEE7000080B586B005900020DE
:1007A000039040F20000C2F20000006848F2B51168
:1007B000C1F64E31A0FB0101890A02910599896DAC
:1007C00001910199096804910499059AD26DD1406B
:1007D000090700291BD5FFE7059800680068400756
:1007E000002813D5FFE705980068016821F004018F
:1007F00001600598C06D082101FA00F00199886038
:100800000598416D41F001014165FFE7FFE704985C
:100810000599C96DC840C007002815D0FFE70598A5
:1008200000684069000600280DD5FFE70598C06DF7
:10083000012101FA00F0019988600598416D41F0AD
:1008400002014165FFE7FFE704980599C96DC840BB
:100850004007002815D5FFE7059800680068800765
:1008600000280DD5FFE70598C06D042101FA00F0BE
:10087000019988600598416D41F004014165FFE7E9
:10088000FFE704980599C96DC840C00600284BD5FC
:10089000FFE70598006800680007002843D5FFE7D8
:1008A0000598C06D102101FA00F001998860059843
:1008B00000680068400300281CD5FFE70598006821
:1008C0000068000300280AD4FFE70598006C0028A0
:1008D00004D0FFE70598016C8847FFE709E0059819
:1008E000806C002804D0FFE70598816C8847FFE7FB
:1008F000FFE717E0059800680068C005002807D4E6
:10090000FFE705980068016821F008010160FFE732
:100910000598006C002804D0FFE70598016C884713
:10092000FFE7FFE7FFE7FFE704980599C96DC840B7
:100930008006002840F19580FFE705980068006870
:10094000C006002840F18C80FFE70598C06D20218B
:1009500001FA00F001998860059890F835000528A3
:1009600038D1FFE705980068016821F016010160A1
:1009700005980068416921F0800141610598006C8B
:10098000002805D1FFE70598806C002807D0FFE715
:1009900005980068016821F008010160FFE70598EB
:1009A000C06D3F2101FA00F001998860059801218E
:1009B00080F83510FFE70598002180F83410FFE734
:1009C0000598006D002804D0FFE70598016D884761
:1009D000FFE781E0059800680068400300281CD507
:1009E000FFE7059800680068000300280AD4FFE7C5
:1009F0000598406C002804D0FFE70598416C8847B3
:100A0000FFE709E00598C06B002804D0FFE70598D0
:100A1000C16B8847FFE7FFE721E0059800680068A1
:100A2000C005002811D4FFE705980068016821F08F
:100A3000100101600598012180F83510FFE7059845
:100A4000002180F83410FFE7FFE70598C06B00280D
:100A500004D0FFE70598C16B8847FFE7FFE7FFE792
:100A6000FFE70598406D002836D0FFE70598406DF8
:100A7000C007002826D0FFE70598052180F835102B
:100A800005980068016821F001010160FFE7039803
:100A9000013003900299884201D9FFE707E0FFE7A0
:100AA000059800680068C0070028F0D1FFE70598A6
:100AB000012180F83510FFE70598002180F83410F7
:100AC000FFE7FFE70598C06C002804D0FFE7059812
:100AD000C16C8847FFE7FFE706B080BD80B586B0F0
:100AE00004900020039000F0B1FA029004980028CE
:100AF00004D1FFE701208DF81700A7E00498406AB1
:100B0000002801D0FFE7FFE70498022180F83510A4
:100B1000FFE70498002180F83410FFE7049800688C
:100B2000016821F001010160FFE704980068006896
:100B3000C007002812D0FFE700F088FA0299401A97
:100B400006280AD3FFE70498202141650498032171
:100B500080F835108DF8171078E0E6E70498006803
:100B600000680390039848F23F01CFF2100108405B
:100B70000390049841688268C368D0F810C011439C
:100B8000194341EA0C014269114382691143C26968
:100B90001143006A08430399084303900498406A8C
:100BA000042808D1FFE70498C16A006B0843039941
:100BB00008430390FFE703980499096808600498C4
:100BC000006840690390039820F0070003900498A0
:100BD000406A0399084303900498406A04281CD192
:100BE000FFE70498806A0399084303900498C06A59
:100BF000002811D0FFE70498FFF748FD00280AD02D
:100C0000FFE70498402141650498012180F83510E0
:100C10008DF817101AE0FFE7FFE7039804990968B9
:100C200048610498FFF706FD01900498C06D3F21CC
:100C300001FA00F001998860049800214165049848
:100C4000012280F835208DF81710FFE79DF8170076
:100C500006B080BD8EB00D900C9100200A900990D6
:100C600008900B90FFE70B980F2800F2D281FFE766
:100C70000B98012101FA00F00A900C9800680A997B
:100C80000840099009980A99884240F0BD81FFE721
:100C90000C98406800F00300012807D0FFE70C988B
:100CA000406800F0030002282FD1FFE70D9880680C
:100CB00008900B984000032101FA00F0089921EAFE
:100CC000000008900C98C0680B994900884008996A
:100CD0000843089008980D9988600D98406808901E
:100CE0000B98012101FA00F0089921EA0000089010
:100CF0000C984068C0F300100B998840089908438D
:100D0000089008980D994860FFE70C98406800F03B
:100D10000300032818D0FFE70D98C06808900B98CF
:100D20004000032101FA00F0089921EA0000089030
:100D30000C9880680B9949008840089908430890EE
:100D400008980D99C860FFE70C98406800F0030010
:100D5000022826D1FFE70D980B996FF0030202EAF3
:100D600051010844006A08900B9800F007008000C9
:100D70000F2101FA00F0089921EA000008900C9870
:100D800000690B9901F00701890088400899084320
:100D9000089008980D990B9B02EA530211440862CF
:100DA000FFE70D98006808900B984000032101FAB6
:100DB00000F0089921EA000008900C98406800F0C3
:100DC00003000B9949008840089908430890089847
:100DD0000D9908600C9880798007002800F0138135
:100DE000FFE7FFE70020079043F64400C4F202004B
:100DF000016841F480410160006800F48040079080
:100E00000798FFE70B9820F0030043F60801C4F2AF
:100E10000101405808900B9800F0030080000F215A
:100E200001FA00F0089921EA000008900D980021CD
:100E3000C4F20201884203D1FFE7002006905EE081
:100E40000D9840F20041C4F20201884203D1FFE74D
:100E50000120059050E00D9840F60001C4F2020117
:100E6000884203D1FFE70220049042E00D9840F64B
:100E70000041C4F20201884203D1FFE7032003903E
:100E800034E00D9841F20001C4F20201884203D11E
:100E9000FFE70420029026E00D9841F20041C4F2E1
:100EA0000201884203D1FFE70520019018E00D9868
:100EB00041F60001C4F20201884203D1FFE7062097
:100EC00000900AE00D9841F60041C4F202010822A8
:100ED000884208BF07220092FFE700980190FFE7D1
:100EE00001980290FFE702980390FFE703980490AF
:100EF000FFE704980590FFE705980690FFE706983E
:100F0000C0B20B9901F00301890088400899084399
:100F1000089008980B9921F0030143F60802C4F2E7
:100F20000102885043F60840C4F2010000680890AE
:100F30000998089921EA000008900C988079C00669
:100F4000002805D5FFE70998089908430890FFE7AE
:100F5000089843F60841C4F20101086043F60C40CA
:100F6000C4F20100006808900998089921EA00007D
:100F700008900C9880798006002805D5FFE709982D
:100F8000089908430890FFE7089843F60C41C4F21B
:100F90000101086043F60440C4F2010000680890B3
:100FA0000998089921EA000008900C988079800738
:100FB000002805D5FFE70998089908430890FFE73E
:100FC000089843F60441C4F20101086043F600406A
:100FD000C4F20100006808900998089921EA00000D
:100FE00008900C988079C007002805D0FFE7099881
:100FF000089908430890FFE7089843F60041C4F2B7
:1010000001010860FFE7FFE7FFE70B9801300B9055
:1010100029E60EB07047000082B013468C4601905E
:10102000ADF802108DF801209DF80100002805D0D0
:10103000FFE7BDF802000199886105E0BDF80200F4
:10104000000401998861FFE702B0704740F2701018
:10105000C2F200000068704740F20400C2F20000D3
:10106000007840F27011C2F200010A681044086072
:101070007047000080B582B043F60040C4F2020021
:10108000016841F400710160016841F48061016010
:10109000016841F480710160032000F095F80F2091
:1010A00000F006F8019000F03DF8002002B080BD8D
:1010B00080B582B0009040F20000C2F200000068EB
:1010C00040F20401C2F2000109784FF47A72B2FBD7
:1010D000F1F1B0FBF1F000F081FE002804D0FFE751
:1010E00001208DF8070018E000980F280DD8FFE7C1
:1010F00000994FF0FF30002200F046F8009840F2CF
:101100000801C2F20001086003E001208DF8070029
:1011100003E000208DF80700FFE79DF8070002B00C
:1011200080BD000082B0FFE70020019043F644003C
:10113000C4F20200016841F480410160006800F4DB
:10114000804001900198FFE7FFE70020009043F600
:101150004000C4F20200016841F080510160006863
:1011600000F0805000900098FFE702B07047000048
:1011700080B582B001468DF807009DF90700009107
:1011800001F01CF902B080BD80B588B003468DF82F
:101190001F000691059200200490039301F028F9A6
:1011A00004909DF91F000499069A059B0290084639
:1011B00011461A4600F05EFF029901900846019917
:1011C00001F01EF908B080BD80B582B00190019891
:1011D00001F038F902B080BD80B584B00290019171
:1011E0000298002804D1FFE701208DF80F0021E1CB
:1011F000019843F60041C4F20201096801F00701B9
:10120000884212D9FFE7019843F60041C4F2020177
:101210000870086800F007000199884204D0FFE7D1
:1012200001208DF80F0005E1FFE7029800788007A4
:1012300000282AD5FFE7029800784007002809D542
:10124000FFE743F60800C4F20200016841F4E051F0
:101250000160FFE7029800780007002809D5FFE742
:1012600043F60800C4F20200016841F460410160E5
:10127000FFE743F60800C4F20200016821F0F00124
:10128000029A926811430160FFE702980078C00754
:1012900000286ED0FFE702984068012811D1FFE7CF
:1012A00043F60000C4F20200006800F400300021A0
:1012B000B1EB504F04D1FFE701208DF80F00B9E0EA
:1012C0002CE002984068022805D0FFE702984068A9
:1012D000032811D1FFE743F60000C4F202000068C2
:1012E00000F000700021B1EB506F04D1FFE7012046
:1012F0008DF80F009EE010E043F60000C4F20200FB
:10130000006800F002000021B1EB500F04D1FFE7AC
:1013100001208DF80F008DE0FFE7FFE743F608009E
:10132000C4F20200016821F00301029A52681143DD
:101330000160FFF78BFE0090FFE743F60800C4F260
:101340000200006800F00C0002994968B0EB810FC0
:101350000ED0FFE7FFF77AFE0099401A41F289317B
:10136000884204D3FFE703208DF80F0062E0E4E732
:10137000FFE7019843F60041C4F20201096801F059
:101380000701884212D2FFE7019843F60041C4F2F8
:1013900002010870086800F007000199884204D033
:1013A000FFE701208DF80F0044E0FFE70298007886
:1013B000400700280CD5FFE743F60800C4F20200FE
:1013C000016821F4E051029AD26811430160FFE7FD
:1013D00002980078000700280DD5FFE743F60800C3
:1013E000C4F20200016821F46041029A126941EAE4
:1013F000C2010160FFE700F021F843F60801C4F2E2
:1014000002010968C9B2090942F2C042C0F60002ED
:10141000515CC84040F20001C2F20001086040F295
:101420000800C2F200000068FFF742FE00218DF8BC
:101430000F10FFE79DF80F0004B080BD80B586B0A7
:101440000020059004900390029043F60800C4F237
:101450000200006800F00C0001460028019108D04D
:10146000FFE7019804280AD0FFE7019808280CD06C
:101470004FE042F20040C0F2F40002904FE041F22F
:101480000020C0F27A00029049E043F60400C4F262
:101490000200016801F03F01059100684002002848
:1014A00013D5FFE743F60400C4F202000068C0F35E
:1014B000881041F20021C0F27A01A0FB0101059AD7
:1014C0000023FEF7D7FE049012E043F60400C4F2B6
:1014D00002000068C0F3881042F20041C0F2F4013B
:1014E000A0FB0101059A0023FEF7C4FE0490FFE76C
:1014F00043F60400C4F20200006800F44030022108
:1015000001EBD030039004980399B0FBF1F0029006
:1015100005E042F20040C0F2F4000290FFE70298BA
:1015200006B080BD80B586B004900498002804D130
:10153000FFE701208DF8170055E304980078C007F5
:10154000002800F0A780FFE743F60800C4F202007D
:10155000006800F00C00042813D0FFE743F60800F1
:10156000C4F20200006800F00C0008281FD1FFE759
:1015700043F60400C4F2020000684002002816D5B9
:10158000FFE743F60000C4F20200006800F40030F8
:101590000021B1EB504F09D0FFE7049840680028C4
:1015A00004D1FFE701208DF817001CE371E0FFE78D
:1015B00004984068B0F5803F09D1FFE743F600008A
:1015C000C4F20200016841F48031016020E0049817
:1015D0004068B0F5A02F0DD1FFE743F60000C4F23C
:1015E0000200016841F480210160016841F480310A
:1015F00001600CE043F60000C4F20200016821F42F
:1016000080310160016821F480210160FFE7FFE77C
:10161000FFE70498406800281DD0FFE7FFF716FD9C
:101620000390FFE743F60000C4F20200006800F4F4
:1016300000300021B1EB504F0CD1FFE7FFF706FD62
:101640000399401A652804D3FFE703208DF817009B
:10165000C9E2E7E71CE0FFF7F9FC0390FFE743F678
:101660000000C4F20200006800F400300021B1EB79
:10167000504F0CD0FFE7FFF7E9FC0399401A6528AB
:1016800004D3FFE703208DF81700ACE2E7E7FFE79C
:10169000FFE7FFE7049800788007002840F1978073
:1016A000FFE743F60800C4F20200006810F00C0FD8
:1016B00013D0FFE743F60800C4F20200006800F010
:1016C0000C0008282CD1FFE743F60400C4F2020006
:1016D00000684002002823D4FFE743F60000C4F26C
:1016E0000200006800F002000021B1EB500F09D0A9
:1016F000FFE70498C068012804D0FFE701208DF8B7
:10170000170070E243F60000C4F20200016821F005
:10171000F801049A126941EAC2010160FFE755E04D
:101720000498C06800282ED0FFE70020C4F24720AC
:1017300001210160FFF78AFC0390FFE743F60000F8
:10174000C4F20200006800F002000021B1EB500F6B
:101750000CD1FFE7FFF77AFC0399401A032804D362
:10176000FFE703208DF817003DE2E7E743F60000AE
:10177000C4F20200016821F0F801049A126941EAFA
:10178000C201016021E00020C4F247200021016075
:10179000FFF75CFC0390FFE743F60000C4F2020091
:1017A000006800F002000021B1EB500F0CD0FFE701
:1017B000FFF74CFC0399401A032804D3FFE70320EA
:1017C0008DF817000FE2E7E7FFE7FFE7FFE7049870
:1017D0000078000700284CD5FFE7049840690028EE
:1017E00023D0FFE740F68060C4F24720012101606A
:1017F000FFF72CFC0390FFE743F67400C4F20200ED
:10180000006800F002000021B1EB500F0CD1FFE79F
:10181000FFF71CFC0399401A032804D3FFE70320B9
:101820008DF81700DFE1E7E722E040F68060C4F2C0
:10183000472000210160FFF709FC0390FFE743F612
:101840007400C4F20200006800F002000021B1EB55
:10185000500F0CD0FFE7FFF7F9FB0399401A03285C
:1018600004D3FFE703208DF81700BCE1E7E7FFE7AB
:10187000FFE7049800784007002840F1CF80FFE799
:1018800000208DF8070043F64000C4F20200006813
:10189000C000002815D4FFE7FFE70020009043F6C2
:1018A0004000C4F20200016841F08051016000680C
:1018B00000F0805000900098FFE701208DF80700AD
:1018C000FFE747F20000C4F200000068C0050028EE
:1018D00022D4FFE747F20000C4F20000016841F49F
:1018E00080710160FFF7B2FB0390FFE747F2000051
:1018F000C4F200000068C00500280CD4FFE7FFF721
:10190000A5FB0399401A032804D3FFE703208DF8B1
:10191000170068E1EAE7FFE7FFE70498806801281D
:1019200009D1FFE743F67000C4F20200016841F0FC
:10193000010101601FE00498806805280DD1FFE7D0
:1019400043F67000C4F20200016841F00401016036
:10195000016841F0010101600CE043F67000C4F23F
:101960000200016821F001010160016821F0040119
:101970000160FFE7FFE7FFE70498806800281FD0B9
:10198000FFE7FFF763FB0390FFE743F67000C4F245
:101990000200006800F002000021B1EB500F0ED1F0
:1019A000FFE7FFF753FB0399401A41F28931884260
:1019B00004D3FFE703208DF8170014E1E5E71EE0EC
:1019C000FFF744FB0390FFE743F67000C4F2020008
:1019D000006800F002000021B1EB500F0ED0FFE7CD
:1019E000FFF734FB0399401A41F28931884204D34E
:1019F000FFE703208DF81700F5E0E5E7FFE79DF826
:101A00000700012809D1FFE743F64000C4F20200B5
:101A1000016821F080510160FFE7FFE704988069C9
:101A2000002800F0DC80FFE743F60800C4F2020063
:101A3000006800F00C00082800F08580FFE704989B
:101A4000806902285CD1FFE76020C4F247200021B2
:101A50000160FFF7FBFA0390FFE743F60000C4F2D2
:101A60000200006800F000700021B1EB506F0CD054
:101A7000FFE7FFF7EBFA0399401A032804D3FFE7C7
:101A800003208DF81700AEE0E7E70498C169026A09
:101A9000436AD0F828C0114341EA83114FEACC329F
:101AA0004FF6FF739A43A2F580321143C06A41EAB0
:101AB000006043F60401C4F2020108606020C4F231
:101AC000472001210160FFF7C1FA0390FFE743F6C9
:101AD0000000C4F20200006800F000700021B1EBC9
:101AE000506F0CD1FFE7FFF7B1FA0399401A0328B2
:101AF00004D3FFE703208DF8170074E0E7E721E047
:101B00006020C4F2472000210160FFF79FFA039094
:101B1000FFE743F60000C4F20200006800F0007026
:101B20000021B1EB506F0CD0FFE7FFF78FFA03995C
:101B3000401A032804D3FFE703208DF8170052E072
:101B4000E7E7FFE74AE004988069012804D1FFE74E
:101B500001208DF8170046E043F60400C4F20200AD
:101B60000068029004988069012831D0FFE702984C
:101B700000F480000499C969884229D1FFE70298DE
:101B800000F03F000499096A884221D1FFE70298DA
:101B900047F6C07108400499496AB0EB811F17D11C
:101BA000FFE7029800F440300499896AC9034FF6B0
:101BB000FF729143A1F58031884209D1FFE7029875
:101BC00000F070600499C96AB0EB016F04D0FFE7C0
:101BD00001208DF8170006E0FFE7FFE7FFE7002090
:101BE0008DF81700FFE79DF8170006B080BD0000D4
:101BF00080B582B000900098002804D1FFE7012052
:101C00008DF8070072E00098406A00280CD1FFE7C9
:101C100000984068B0F5827F01D1FFE703E00098AB
:101C20000021C161FFE705E00098002101610098F3
:101C30004161FFE7009800218162009890F851000F
:101C4000002808D1FFE70098002180F85010009884
:101C500000F050F8FFE70098022180F8511000983A
:101C60000068016821F04001016000980168426845
:101C70008368D0F80CC002F4827203F404431A445F
:101C80000CF400631A44036903F002031A44436925
:101C900003F001031A44836903F400731A44C3690F
:101CA00003F038031A44036A03F080031A43806A7E
:101CB00000F40050104308600098418B01F00401CB
:101CC0000268406A00F01000084450600098006804
:101CD000C16921F40061C16100980021416500984B
:101CE000012280F851208DF80710FFE79DF80700CA
:101CF00002B080BD80B588B00790002006900590A6
:101D00000490039002900798006843F60001C4F223
:101D1000000188425FD1FFE7FFE70020019043F612
:101D20004000C4F20200016841F480410160006893
:101D300000F4804001900198FFE7FFE70020009049
:101D400043F63000C4F20200016841F00201016074
:101D5000006800F0020000900098FFE74FF4204078
:101D6000029002200390012004900320059005209A
:101D7000069040F20040C4F2020002A9FEF76AFF9A
:101D800040F27000C2F2000046F27001C4F202019B
:101D900001600021416040228260C1604FF4806296
:101DA000026141618161C1614FF48032026241622E
:101DB000FEF794FE002803D0FFE7FEF7E5FCFFE7FF
:101DC000FFE7079840F27001C2F2000181640798B2
:101DD0008863FFE7FFE708B080BD000080B582B0F0
:101DE0000190019800F082F902B080BD80B584B006
:101DF00002900298002804D1FFE701208DF80F001F
:101E000043E0029890F83D00002808D1FFE70298CF
:101E1000002180F83C10029800F03CF8FFE702989F
:101E2000022180F83D10029850F8041B01900846EA
:101E3000019900F0F3F90298012180F84610FFE7BC
:101E40000298012180F83E10029880F83F10029815
:101E500080F84010029880F84110FFE7FFE70298F1
:101E6000012180F84210029880F84310029880F80F
:101E70004410029880F84510FFE70298012180F88D
:101E80003D1000208DF80F00FFE79DF80F0004B013
:101E900080BD000082B001900198006842F200010C
:101EA000C4F20001884212D1FFE7FFE70020009052
:101EB00043F64000C4F20200016841F48071016001
:101EC000006800F4807000900098FFE7FFE702B020
:101ED00070470000FFE7FEE780B584B0FFE7002011
:101EE000039043F63000C4F20200016841F400118F
:101EF0000160006800F4001003900398FFE70F20D2
:101F0000002102900191019AFFF73EF90298FFF734
:101F10002FF904B080BD000080B58CB000200B907C
:101F20000A90099008900790FFE70020069043F67A
:101F30003000C4F20200016841F0800101600068D5
:101F400000F0800006900698FFE7FFE7002005906C
:101F500043F63000C4F20200016841F00201016062
:101F6000006800F0020005900598FFE7FFE70020F9
:101F7000049043F63000C4F20200016841F0080109
:101F80000160006800F0080004900498FFE7FFE794
:101F90000020039043F63000C4F20200016841F0D3
:101FA00001010160006800F0010003900398FFE761
:101FB00040F60040C4F202004FF4E06100220290BB
:101FC00001910092FFF728F80198079001210891EC
:101FD000099100990A9107A90298FEF73BFE0CB0FF
:101FE00080BD000080B540F2D000C2F2000043F690
:101FF0000001C4F2000101604FF4827141600021D0
:102000008160C160016141614FF400728261082208
:10201000C2610162416281620A21C162FFF7E8FD8B
:10202000002803D0FFE7FEF7AFFBFFE780BD00000D
:1020300080B540F22810C2F2000042F20001C4F262
:102040000001016044F29F1141600021816009227A
:10205000C260016180218161FFF7C8FE002803D0C2
:10206000FFE7FEF791FBFFE780BD0000FFE7FEE71B
:10207000FFE7FEE788B0079006910592079800F009
:10208000070004900498C0F10700052803D3FFE778
:102090000420019004E00498C0F107000190FFE7DC
:1020A0000198039004980430062803D8FFE7002025
:1020B000009003E0049803380090FFE70098029036
:1020C00006980399012202FA01F1013908400299A8
:1020D0008840059B02FA01F101391940084308B014
:1020E00070470000704700007047000080B582B064
:1020F000009000980138B0F1807F03D3FFE7012002
:10210000019019E0009801384EF21401CEF200015E
:1021100008604FF0FF300F2100F072F94EF2180006
:10212000CEF20000002101604EF21000CEF200005D
:10213000072202600191FFE7019802B080BD000014
:1021400080B5FEF789FF80BD80B594B008A8302126
:10215000FEF708F900200790069005900490039080
:10216000FFE70020029043F64000C4F2020001683D
:1021700041F080510160006800F0805002900298A8
:10218000FFE7FFE70020019047F20000C4F20000E3
:10219000016841F480410160006800F480400190D2
:1021A0000198FFE7012008904FF4A0200990022039
:1021B0000E904FF480010F9104211091A8221192EA
:1021C0001290139108A8FFF7ADF9002803D0FFE79C
:1021D000FEF7DAFAFFE70F200390022004900020B8
:1021E00005904FF4A05006904FF48050079003A83C
:1021F0000521FEF7F1FF002803D0FFE7FEF7C4FA40
:10220000FFE714B080BD00004EF68850CEF200000B
:10221000016841F4700101607047000083B00290D2
:10222000019102980068009002980021C4F2010117
:10223000884225D0FFE70298B0F1804F20D0FFE719
:10224000029840F20041C4F20001884218D0FFE732
:10225000029840F60001C4F20001884210D0FFE766
:10226000029840F60041C4F20001884208D0FFE71E
:10227000029840F20041C4F2010188420AD1FFE70E
:10228000009820F070000090019840680099084381
:102290000090FFE702980021C4F20101884255D066
:1022A000FFE70298B0F1804F50D0FFE7029840F26C
:1022B0000041C4F20001884248D0FFE7029840F68E
:1022C0000001C4F20001884240D0FFE7029840F6C6
:1022D0000041C4F20001884238D0FFE7029840F282
:1022E0000041C4F20101884230D0FFE7029844F275
:1022F0000001C4F20101884228D0FFE7029844F2AD
:102300000041C4F20101884220D0FFE7029844F660
:102310000001C4F20101884218D0FFE7029841F69B
:102320000001C4F20001884210D0FFE7029841F694
:102330000041C4F20001884208D0FFE7029842F24F
:102340000001C4F2000188420AD1FFE7009820F49E
:10235000407000900198C068009908430090FFE722
:10236000009820F080000199496908430090009886
:1023700002990860019880680299C8620198006813
:102380000299886202980021C4F20101884208D0B3
:10239000FFE7029840F20041C4F20101884205D1F2
:1023A000FFE70198006902990863FFE7029801219D
:1023B000416103B070470000FFE7FEE781B00146CE
:1023C0008DF803009DF9030000280FD4FFE79DF965
:1023D000030000F01F01012202FA01F140094EF250
:1023E0000012CEF2000242F82010FFE701B0704761
:1023F0004EF60C50CEF200000068C0F30220704789
:1024000082B002468DF8070000919DF90700002870
:102410000AD4FFE7009800019DF907104EF2004230
:10242000CEF2000288540BE0009800019DF80710DE
:1024300001F00F014EF61452CEF200028854FFE76D
:1024400002B0704783B00290029800F0070000903D
:102450004EF60C50CEF200000168019101994FF642
:10246000FF02114001910199009A41EA02210022E4
:10247000C0F2FA52114301910199016003B0704713
:1024800080B582B000200190FEF7F4FD0090FFF7C8
:102490005BFEFFF741FDFFF71FFDFFF7A3FDFFF711
:1024A000C7FDFFE7FEE7F1EE100A4FF6FF71C0F23D
:1024B000C03120EA010040F04070E1EE100A7047A0
:1024C00000000000000000000102030406070809E4
:1024D0000006101600061016F82400080000002060
:1024E00010000000C40100080825000810000020AA
:1024F00068310000E00100080024F4000100000041
:082500001000000000000000C3
:040000050800018965
:00000001FF
