:020000040800F2
:10000000E02800209D01000875300008472A0008FC
:10001000C52E0008310C0008096D00080000000022
:100020000000000000000000000000004164000823
:10003000F31300080000000059560008116B000877
:10004000B7010008B7010008B7010008B7010008B0
:10005000B7010008B7010008B7010008B7010008A0
:10006000B7010008B7010008B7010008B701000890
:10007000B7010008B7010008B70100080513000820
:10008000B7010008B7010008B7010008B701000870
:10009000B7010008B7010008B7010008B701000860
:1000A000B7010008B7010008B7010008B701000850
:1000B000B7010008B7010008B7010008B701000840
:1000C000B7010008B7010008B7010008B701000830
:1000D000B7010008B7010008B7010008B701000820
:1000E000B7010008B7010008B7010008B701000810
:1000F000B7010008E16B0008B7010008B70100086C
:10010000B7010008B7010008B7010008B7010008EF
:10011000B7010008B7010008B7010008B7010008DF
:10012000B7010008B7010008B7010008B7010008CF
:10013000B7010008B7010008B7010008B7010008BF
:10014000B7010008B7010008B7010008B7010008AF
:10015000B7010008B7010008B7010008B70100089F
:10016000B7010008B7010008B7010008B70100088F
:10017000B7010008B7010008B7010008000000003F
:10018000B7010008B7010008DFF80CD000F0B6FB9B
:10019000004800478B7E0008E02800200648804782
:1001A00006480047FEE7FEE7FEE7FEE7FEE7FEE75C
:1001B000FEE7FEE7FEE7FEE7CD6B000889010008D9
:1001C0002DE9F05F0546002092469B46884606468C
:1001D000814640241BE0284641464746224600F01F
:1001E0008EFA53465A46C01A914110D3114618460A
:1001F000224600F075FA2D1A67EB01084F46224699
:100200000120002100F06CFA17EB00094E41201E7E
:10021000A4F10104DFDC484631462A464346BDE8E6
:10022000F09F40EA01039B0703D009E008C9121FB1
:1002300008C0042AFAD203E011F8013B00F8013BA0
:10024000521EF9D27047D2B201E000F8012B491ECC
:10025000FBD270470022F6E710B513460A46044663
:100260001946FFF7F0FF204610BD10B5002200E050
:10027000521C835C8C5CA34201D1002BF8D1D8B214
:10028000E1B2401A10BD2DE9FE4F804681EA03001D
:10029000C00F0C46009021F0004123F00045B8EB60
:1002A0000200A94105D24046214690461C460B4615
:1002B000024623F00040104347D0270DC7F30A0041
:1002C000C3F30A510290401A019040286BDAC3F33D
:1002D000130040F4801B0098924620B10023D2EB1B
:1002E000030A63EB0B0B01985946C0F140025046DC
:1002F00000F0F6F906460D4650465946019A00F0C0
:100300000EFA10EB08006141002487EA115284EADA
:10031000E7731A4340D0009A62B3019A012A4FEA68
:10032000075215DC001B61EB02014FF0004202EAAC
:100330000752CDE90042001C41F5801132462B46A0
:1003400000F045FA03B0BDE8F08F40462146F9E7DA
:10035000001B61EB0201001C41F5801300185B419A
:100360002018A2F5001747EB030140EAD570B61933
:100370006D4111E06D084FEA360645EAC0754FEA57
:100380000752001B61EB0201001C41F58011490876
:100390004FEA30000019514132462B4603B0BDE808
:1003A000F04F00F005BA0098012240000023D0EB86
:1003B000020263EBE073009821464FEAE074B8EB69
:1003C000000061EB0401E9E783F000435BE781F0A3
:1003D000004158E72DE9FE4F81EA030404F0004490
:1003E00021F0004100944FF0000B23F0004350EA4D
:1003F00001045ED052EA03045BD0C3F30A54C1F394
:100400000A552C44A4F2F3340194A0FB0254C1F326
:10041000130141F48011C3F3130343F4801301FB70
:10042000024400FB034E840A970A44EA815447EAD7
:100430008357A4FB076802958D0A05FB07854FEAE1
:10044000932C04FB0C542705029D4FEA065847EAFB
:100450001637B5EB08056EEB070C870E920E47EAD0
:10046000811742EA8312A7FB0201B6EB0B0164EB92
:1004700000042B0D43EA0C335E1844EB1C50DA46A3
:100480005146E7FB0201C5F313044FEA0B3343EA7D
:1004900014534FEA0432019C43EA0603A4F10C040E
:1004A0000294009CCDE900B400F091F903B0BDE8DE
:1004B000F08F00200146F9E72DE9F04D81EA0304B1
:1004C00004F0004B21F0004514464FF0000A23F0E1
:1004D000004150EA050220D054EA01021DD0C5F3C4
:1004E0000A570246C5F31303C1F31300C1F30A56BA
:1004F00040F4801543F48013A7EB0608101BD64682
:1005000008F2FD3873EB050002D308F1010801E0A1
:1005100092185B41B8F1000F03DA00200146BDE8F4
:10052000F08D00204FF48011064684460EE0171B24
:1005300073EB050705D3121B63EB050306434CEA77
:10054000010C49084FEA300092185B4150EA01075C
:10055000EDD152EA030012D082EA040083EA0501D9
:10056000084305D0101BAB4106D20122002306E050
:1005700000224FF0004302E06FF0010253101AEB2B
:1005800006004CEB085110EB0A0041EB0B01BDE8F3
:10059000F04D00F00DB90EB5C10F80EAE0700844CF
:1005A000CA07002140F233438DE80E000A460B468D
:1005B00000F00DF903B000BD70B5C1F30A5201F0AF
:1005C00000450024C1F3130140F2FF3341F48011D0
:1005D0009A4201DA002070BD40F233439A42A2F2FF
:1005E000334203DC524200F08AF800E090402C4392
:1005F000F1D0404270BD00F0004230F000400AD01F
:10060000C10D01F56071C0F3160042EA0151C20844
:1006100040071143704700200146704730B5041E63
:1006200071F1000404DB4FF00044404264EB01012F
:10063000141E73F1000405DB1C464FF000435242C8
:1006400063EB04038B4208BF824230BD30B5041E09
:1006500071F1000404DB4FF00044404264EB0101FF
:10066000141E73F1000405DB1C464FF00043524298
:1006700063EB0403994208BF904230BD01F0004390
:1006800030B421F0004150EA010206D00A0DA2F573
:100690006072C1F31301002A02DC30BC00207047F5
:1006A000440F44EAC104C100E01830BC00EBC25062
:1006B00000F047B830B50B46014600202022012447
:1006C00009E021FA02F59D4205D303FA02F5491B20
:1006D00004FA02F52844151EA2F10102F1DC30BD36
:1006E000202A04DB203A00FA02F1002070479140F2
:1006F000C2F1200320FA03F3194390407047202AE7
:1007000004DB203A21FA02F00021704721FA02F3BB
:10071000D040C2F120029140084319467047202A78
:1007200006DBCB17203A41FA02F043EAE07306E019
:1007300041FA02F3D040C2F1200291400843194629
:1007400070470029A8BF7047401C490008BF20F02F
:100750000100704710B4B0FA80FC00FA0CF050EAC7
:10076000010404BF10BC704749B1CCF1200421FA48
:1007700004F411FA0CF118BF012121430843A3EB43
:100780000C01CB1D4FEA00614FEA102042BF002050
:1007900010BC704700EBC35010440029A4BF10BC2C
:1007A0007047401C490008BF20F0010010BC704792
:1007B00010B5141E73F1000408DA401C41F1000169
:1007C00092185B411A4301D120F0010010BD2DE9C0
:1007D000F04D92469B4611B1B1FA81F202E0B0FAB7
:1007E00080F220329046FFF77BFF04460F4640EA36
:1007F0000A0041EA0B0153465A46084313D01146FA
:1008000053EA010019D0C8F140025046FFF777FFC4
:1008100005460E46504659464246FFF761FF0843DB
:1008200005D0012004E020463946BDE8F08D0020C7
:10083000054346EAE0762C4337430A986305E40A09
:10084000A0EB08000022FD0A44EA47540A3002D512
:1008500000200146E9E7010510196941DDE9084575
:1008600000196941BDE8F04DA2E7C1F30A52C1F396
:10087000130140F2FF3341F480119A4202DA002062
:100880000146704740F233439A42A2F2334202DCFF
:100890005242FFF734BFFFF723BF70B5044601F0A3
:1008A00000450020054304D14FF00045644265EB4C
:1008B000010103F00045284305D118464FF00043DD
:1008C000524263EB0003101B73EB010002D24FF0A6
:1008D000004009E082EA040283EA01034FF000507D
:1008E0001A4301D14FF0C0404FEA2062EFF300817C
:1008F00062F31F6181F3008870BD0000064C074D54
:1009000006E0E06840F0010394E8070098471034DF
:10091000AC42F6D3FFF73CFC7CE500089CE5000800
:1009200070B58C1810F8015B15F0070301D110F8B1
:10093000013B2A1106D110F8012B03E010F8016BDE
:1009400001F8016B5B1EF9D12B0705D40023521E61
:100950000DD401F8013BFAE710F8013BCB1A921CC9
:1009600003E013F8015B01F8015B521EF9D5A142C7
:10097000D8D3002070BD000000B52DED048B85B0EC
:100980009FED390A394880ED020A9FED390A80ED62
:10099000030A00F02BFB374880210023CDE9013109
:1009A000324A0093CDE9031092ED010ABDEEC00A70
:1009B00010EE102A11B22D4A92ED000ABDEEC00AC7
:1009C00010EE102A10B24023202204F0B1F92A4878
:1009D00090ED000AD0ED020A30EE600A10EE101A17
:1009E0000846FFF708FE41EC190BB0EE490AF0EE9D
:1009F000690A06F0D9FCB0EE408AF0EE608A9FEDFD
:100A00001F0B53EC102B51EC180BFFF707FE08D20D
:100A10009FED1C0A1C4880ED020A9FED130A80ED31
:100A2000030A194800F0E2FA184880210023CDE9B2
:100A30000131154A0093CDE9031092ED010ABDEE94
:100A4000C00A10EE102A11B20F4A92ED000ABDEE54
:100A5000C00A10EE102A10B24023102204F068F9E8
:100A600005B0BDEC048B00BD00000000101100209B
:100A70000000A0C204E00008F01200200000000006
:100A8000000010400000DC4270110020B4DE0008BD
:100A900000B52DED048B85B09FED390A394880ED06
:100AA000020A9FED390A80ED030A00F09FFA3748E9
:100AB00080210023CDE90131324A0093CDE90310B2
:100AC00092ED010ABDEEC00A10EE102A11B22D4AB5
:100AD00092ED000ABDEEC00A10EE102A10B24023BB
:100AE000202204F025F92A4890ED000AD0ED020AF0
:100AF00030EE600A10EE101A0846FFF77CFD41EC5C
:100B0000190BB0EE490AF0EE690A06F04DFCB0EEA2
:100B1000408AF0EE608A9FED1F0B53EC102B51ECD6
:100B2000180BFFF77BFD08D29FED1C0A1C4880EDD7
:100B3000020A9FED130A80ED030A194800F056FAE5
:100B4000184880210023CDE90131154A0093CDE9F1
:100B5000031092ED010ABDEEC00A10EE102A11B288
:100B60000F4A92ED000ABDEEC00A10EE102A10B234
:100B700040231A2204F0DCF805B0BDEC048B00BD64
:100B800000000000101100200000A0C204E00008D6
:100B9000F012002000000000000010400000CC42D5
:100BA0004011002034DF000810B504480068C06818
:100BB00010B1022005F076FC10BD0000901000205E
:100BC00010B5024804F0E6F910BD0000080000204E
:100BD000C161094A02620022027042704260826072
:100BE000C2600274002343748374C274426102764B
:100BF0000A2280F824207047D11C000800B506495D
:100C00000648FFF7E5FF06490648FFF7E1FF0649FA
:100C10000648FFF7DDFF00BDE1160008641700205D
:100C2000F11600088C17002001170008B4170020E7
:100C300000BFFEE70FB4F0B5A1B006460F46002591
:100C400029A80090802101A8009B289A06F05EF850
:100C50000020009001AC0AE0207800F0800018B17C
:100C6000A81905B2A41C02E0E81905B2641C20789A
:100C70000028F1D1284621B0F0BC5DF814FB1CB56A
:100C8000044604F1500004F1400104F1300304F182
:100C90002002CDE900103039204600F039F804F187
:100CA000540104F1440004F1340304F12402CDE9B9
:100CB00000014039201D00F02BF804F1580104F127
:100CC000480004F1380304F12802CDE9000140395D
:100CD000403800F01DF804F15C0104F14C0004F10F
:100CE0003C0304F12C02CDE900014039403800F00A
:100CF0000FF81CBD1CB5044604F11400011F0B1FA6
:100D00001A1FCDE90010211D204600F001F81CBD7E
:100D10002DE9F0472DED0C8B04460E4615461F4677
:100D2000DDE91489A6480068407A00287DD194ED59
:100D3000000AD6ED000AB4EE600AF1EE10FA03D113
:100D4000BDEC0C8BBDE8F0879D48006890ED010A72
:100D5000B5EEC00AF1EE10FA0CD89FED9A0A85EDB7
:100D6000000A9FED980A87ED000A96ED000A84EDCF
:100D7000000AE5E795ED000A87ED000A96ED000A06
:100D8000D4ED000A30EE600A85ED000A95ED000A08
:100D900010EE101A0846FFF72EFC41EC1B0B88489A
:100DA000006890ED010A10EE101A0846FFF723FCC8
:100DB00041EC1D0B9FED840B53EC102BFFF70AFB4E
:100DC00041EC1C0B53EC1B2BFFF704FB41EC190B04
:100DD00094ED000A10EE101A0846FFF70CFC41ECE7
:100DE0001A0B53EC192BFFF74EFA41EC180BFFF7D7
:100DF00045FC20607248006890ED010AF3EE040A99
:100E000080EE201A11EE10AA5046FFF7F4FB41ECD9
:100E1000180B94ED000AD6ED000A30EE600A10EED1
:100E2000101A0846FFF7E7FB00E01FE041EC1A0B41
:100E3000B0EE4A0AF0EE6A0A06F0B6FAB0EE409A50
:100E4000F0EE609A53EC182B51EC190BFFF7E6FB10
:100E50000CD29FED5C0A85ED000A9FED5A0A87EDE2
:100E6000000A96ED000A84ED000A69E7544800681C
:100E7000407A01287ED15248006890ED010AB5EE13
:100E8000C00AF1EE10FA14D89FED4E0A85ED000A63
:100E90009FED4C0A87ED000A9FED4A0A89ED000A92
:100EA0009FED480A88ED000A96ED000A84ED000ADD
:100EB00046E74348006890ED010ADFED450A20EE61
:100EC000208A3F48006890ED010ADFED420A60EE9B
:100ED000208A9FED419A95ED000A87ED000A96ED74
:100EE000000AD4ED000A30EE600A85ED000A98EDA4
:100EF000000AD5ED000A30EE200A88ED000A95EDD3
:100F0000000AD7ED000A30EE600A10EE101A08460B
:100F1000FFF771FB41EC1B0B9FED300B53EC102BDB
:100F2000FFF7CAFA41EC1A0BFFF7A8FBC9F800005B
:100F300095ED000A20EE080AD8ED000A08EEA00A96
:100F4000D9ED000A09EE200AD4ED000A30EE200A9D
:100F500084ED000A96ED000AD4ED000A30EE600A36
:100F600010EE101A0846FFF746FB41EC1B0BB0EEE3
:100F70004B0A00E022E0F0EE6B0A06F015FAB0EE44
:100F800040AAF0EE60AA9FED170B53EC102B51EC2A
:100F90001A0BFFF743FB10D29FED0A0A85ED000AFA
:100FA0009FED080A87ED000A9FED060A89ED000A09
:100FB00096ED000A84ED000AC2E600BF00BFBFE65E
:100FC00090100020000000007B14AE47E17A943FAF
:100FD0000AD7A33C0AD7A33B6F12033B9A9999996E
:100FE0009999B93F000000000000E03F1CB504469D
:100FF00004F1280004F1200104F1180304F11002A7
:10100000CDE9001018392046FFF782FE04F12C01CB
:1010100004F1240004F11C0304F11402CDE90001E1
:101020002039201DFFF774FE1CBD000000B54748A5
:1010300000680078E8BB4648D0ED000A43480068E5
:10104000B0F92E0000EE100AB8EEC00A30EE800AA9
:10105000DFED400A30EE600A3F4880ED000A3B4871
:10106000006890ED110A3C4880ED010A374800689D
:1010700090ED100A384880ED020A3448006890ED7F
:10108000110A354880ED030A30480068B0F91400B1
:1010900000EE100AB8EEC00A304880ED000A2B4876
:1010A0000068B0F9140000EE100AB8EEC00A2B4830
:1010B00000E001E080ED010A244800680078012882
:1010C00041D122480068D0ED100A20480068B0F9EC
:1010D000360000EE100AB8EEC00A30EE800A1E4854
:1010E00080ED000A19480068B0F93800C0F1FF30FF
:1010F00000EE100AB8EEC00A174880ED010A134846
:10110000006890ED100A144880ED020A0F4800684C
:1011100090ED110A104880ED030A0C480068B0F900
:10112000140000EE100AB8EEC00A0C4880ED000A68
:1011300006480068B0F9140000EE100AB8EEC00AC4
:10114000064880ED010A05F0B7F900BD90100020B7
:101150000012002000000043F012002020130020A5
:1011600000B5624800680078002878D16048D0ED6A
:10117000000A5E480068B0F92E0000EE100AB8EED2
:10118000C00A30EE800ADFED5B0A30EE200A5A48D2
:1011900080ED000A5648D0ED010A54480068B0F9C5
:1011A000300000EE100AB8EEC00A30EE800A524855
:1011B00080ED010A4D480068D0ED070A4B480068F1
:1011C000B0F92E0000EE100AB8EEC00A30EE800A28
:1011D000494880ED020A45480068D0ED080A4348B6
:1011E0000068B0F9300000EE100AB8EEC00A30EE28
:1011F000800A414880ED030A3C48006890ED070AE8
:101200003B4880ED040A3948006890ED080A3848E8
:1012100080ED050A3548006890ED090A344880EDF4
:10122000060A3248006890ED0A0A314880ED070A44
:10123000B8EE080A314880ED000A2C480068B0F981
:10124000140000EE100AB8EEC00A2C4880ED010A26
:101250000020264909684887244909688887234867
:101260000068007801283ED1204A1268B2F9321095
:1012700001EBD17252101D4B1B68B3F9360000EB25
:10128000D073A2EB630200EE102AB8EEC00A1A4A2D
:1012900082ED020AB1EE080A104680ED030A9FEDC6
:1012A000180A80ED000A11480068B0F93600404283
:1012B00000EE100AB8EEC00A104680ED010AB7EE43
:1012C000000A0E4880ED000A08480068B0F91400D2
:1012D00000EE100AB8EEC00A084880ED010A0020AE
:1012E00002490968488705F0E7F800BD9010002022
:1012F0000012002000000043F01200202013002004
:10130000000048C210B5024800F044FA10BD0000C9
:10131000341800200146087810381823B0FBF3F287
:101320000848805CC865032A05D908686FF309007E
:10133000001D886503E008686FF309008865886D03
:101340007047000004E10008014600208A6A8B69AA
:10135000CBB932B1012A0DD0022A03D0032A10D111
:101360000EE000BFCB6A03F08073B3F1807F00D141
:10137000012007E0CB6AB3F1C07F00D1012001E07A
:1013800000E000BF34E08B69B3F5005F1AD132B1E1
:10139000012A07D0022A03D0032A11D10AE000BF94
:1013A00001200EE0CB6A03F08073B3F1807F00D19F
:1013B000012006E0CB6AB3F1C07F00D1012000E03C
:1013C00000BF15E032B1012A05D0022A04D0032A59
:1013D0000CD103E000BF00BF012008E0CB6A03F09E
:1013E0008073B3F1807F00D1012000E000BF00BF17
:1013F000704770472DE9F04385B005460C46164608
:101400001F46DDF8308095F82D0001287ED10FF2BF
:1014100038194E480068006904EB440100EBC10034
:10142000806880B104EB4401286900EBC10040688A
:1014300048B904EB4401286900EBC100C06810B949
:101440000FF20C1935E041480068006904EB4401D3
:1014500000EBC100806880B904EB4401286900EB0F
:10146000C100406848B104EB4401286900EBC100A9
:10147000C06810B90FF2DC091BE03448006800694D
:1014800004EB440100EBC100806880B904EB440127
:10149000286900EBC100406848B904EB44012869A1
:1014A00000EBC100C06810B10FF2AC0901E00FF20F
:1014B000AC0908F0FF01F8B296ED010ABDEEC00AD2
:1014C00010EE102A12B2CDE90319CDE9012096EDF4
:1014D000000ABDEEC00A10EE100A00B2DFF880C0AC
:1014E00000909CED030ABDEEC00A10EE10CA0FFA80
:1014F0008CF3DFF86CC09CED020AF1EE080A30EEC6
:10150000600ABDEEC00A10EE10CA00E018E00FFA43
:101510008CF2DFF84CC09CED010ABDEEC00A10EE63
:1015200010CA0FFA8CF1DFF838C09CED000ABDEE4E
:10153000C00A10EE10CA0FFA8CF003F098F800BF42
:1015400005B0BDE8F083000000000000901000200E
:101550003E0000007E0000002A0000002D00000078
:101560000012002010B5024803F014FD10BD000069
:1015700040000020704770470020704710B51D489C
:10158000006800691B490968B1F93A1001EB410193
:1015900000EBC100406870B1164800680069154949
:1015A0000968B1F93A1001EB410100EBC100806814
:1015B00008B904F06DFF0F48006800690D4909681B
:1015C000B1F93A1001EB410100EBC100806878B13C
:1015D00008480068006907490968B1F93A1001EB49
:1015E000410100EBC100406810B9012004F05AFF2E
:1015F00010BD00009010002072B600BFFEE701464B
:10160000B1F9020070470146487870474180704741
:10161000417070471A480068D0ED0A0A18480068FF
:10162000B0F9300000EE100AB8EEC00A30EEC00A81
:101630001448D0ED010A30EE200AF7EE000A30EE31
:10164000600ABDEEC00A10EE100A00B200EE100AE9
:10165000F8EEC00A0B4890ED011A0948006890F9AD
:101660000A0000EE100AB8EEC00A31EE000A80EE61
:10167000801ABDEEC10A10EE100A00B270470000D9
:1016800090100020201300200348007808B90120A2
:1016900070470020FCE70000981000200A48B0F9CD
:1016A0000400312806DA08488088401C00B2064948
:1016B000888007E000200449888008460088488028
:1016C0000020088070470000801000200348007848
:1016D00008B9012070470020FCE7000099100020A5
:1016E00010B54021014800F0E5FA10BD0014024099
:1016F00010B58021014800F0DDFA10BD0014024051
:1017000010B54FF48071024800F0D4FA10BD00000B
:10171000001402400146002001E0421C10B200EB20
:10172000400251F83220002AF7D1704710B5034625
:101730000C46082B06D00C2B07D0102B08D0142BEE
:101740000CD108E0082106220BE00C21072208E05A
:101750001021082205E014210A2202E00C210722B0
:1017600000BF00BF0CB9084610BD1046FCE70000E2
:1017700002460748006810B94FF0FF3070470AB1C1
:101780000120FBE709B10020F8E74FF0FF30F5E753
:1017900094100020F8B50446002000908C480068A2
:1017A0004FF41651B0FBF1F7A56D2E6894F85C105C
:1017B00008208840304098B12068006800F004009C
:1017C00070B12068006820F004002168086094F877
:1017D0005C1008208840A860606D40F001006065E2
:1017E00094F85C1001208840304068B1206840695E
:1017F00000F0800040B194F85C1001208840A8609F
:10180000606D40F00200606594F85C100420884030
:10181000304068B12068006800F0020040B194F8E0
:101820005C1004208840A860606D40F00400606592
:1018300094F85C1010208840304078B3206800682D
:1018400000F0080050B394F85C1010208840A860A5
:101850002068006800F4802080B12068006800F4EF
:10186000002028B9206CC8B12046216C884715E0BB
:10187000A06C98B12046A16C88470FE020680068F2
:1018800000F4807028B92068006820F00800216802
:101890000860206C10B12046216C884794F85C10D9
:1018A000202088403040002865D02068006800F083
:1018B000100000285FD094F85C1020208840A860B9
:1018C00094F83500052828D12068006820F016001B
:1018D000216808602068406920F080002168486124
:1018E000206C08B9A06C28B12068006820F00800BE
:1018F0002168086094F85C103F208840A8600120AF
:1019000084F8350000BF002084F8340000BF206D4B
:1019100010B12046216D8847F8BD2068006800F4AA
:10192000802080B12068006800F4002028B9606C35
:1019300010B12046616C88471DE0E06BD8B12046AD
:10194000E16B884717E02068006800F4807068B990
:101950002068006820F0100021680860012084F8E9
:10196000350000BF002084F8340000BFE06B10B1E8
:101970002046E16B8847606D38B3606D00F0010070
:10198000F0B1052084F835002068006820F00100DF
:101990002168086000BF0098401C0090B84200D940
:1019A00005E02068006800F001000028F3D100BFC6
:1019B000012084F8350000BF002084F8340000BF07
:1019C000E06C10B12046E16C884700BFA4E700003E
:1019D0000C1100202DE9F0410446002500F078F9B3
:1019E000074614B90120BDE8F081606A00B100BF6C
:1019F000022084F8350000BF002084F8340000BFC6
:101A00002068006820F00100216808600AE000F00A
:101A10005FF9C01B052805D920206065032084F8E4
:101A20003500E0E72068006800F001000028EED1F2
:101A30002068056821480540D4E901010843E168B0
:101A400008432169084361690843A1690843E169C2
:101A50000843216A08430543606A042803D1D4E996
:101A60000B0108430543206805602068456925F09F
:101A70000705606A0543606A04280DD1A06A054322
:101A8000E06A48B12046FFF75FFC28B1402060655E
:101A9000012084F83500A6E7206845612046FFF75D
:101AA00039FC064694F85C103F208840B060002066
:101AB0006065012084F83500002094E73F8010F035
:101AC000F8B502460B460025002400200021D6E090
:101AD000012606FA01F51E6806EA0504AC4274D137
:101AE0001E7906F00306012E04D01E7906F00306C7
:101AF000022E13D190684F000326BE40B0434F0022
:101B0000DE68BE4030439060506801268E40B0438E
:101B10001E79C6F300168E40304350601E7906F0E1
:101B20000306032E09D0D0684F000326BE40B04301
:101B30004F009E68BE403043D0601E7906F0030619
:101B4000022E13D1CF0802F1200656F827004E07C7
:101B5000F70E0F26BE40B0434F07FF0E1E69BE4072
:101B60003043CF0802F1200646F8270010684F00E6
:101B70000326BE40B0431E7906F003064F00BE4068
:101B8000304310605E6806F44036002E76D000BF09
:101B9000002600963C4E366846F480463A4F3E603A
:101BA0003E46366806F48046009600BF00BF374EBA
:101BB0008F0856F827008E07370F0F26BE40B04318
:101BC000334EB24202D1002624E057E0314EB242F9
:101BD00001D101261EE0304EB24201D1022619E0A9
:101BE0002E4EB24201D1032614E02D4EB24201D155
:101BF00004260FE02B4EB24201D105260AE02A4E00
:101C0000B24201D1062605E0284EB24201D1072694
:101C100000E008268F073F0FBE4030431B4E8F0861
:101C200046F82700224E3068A0435E6806F480160E
:101C300006B120431E4E3060361D3068A0435E68FA
:101C400006F4001606B12043194E361D3060184EBA
:101C5000361F3068A0435E6806F4003606B12043A4
:101C6000134E361F3060361F3068A0435E6806F49E
:101C7000803606B120430E4E083E3060491C1029C4
:101C8000FFF426AFF8BD0000443802400838014098
:101C9000000002400004024000080240000C024024
:101CA000001002400014024000180240001C0240D4
:101CB000083C0140024613690B400BB1012000E0D3
:101CC000002070470AB1816101E00B048361704715
:101CD00001480068704700000011002003480068B8
:101CE0000349097808440149086070470011002041
:101CF0000811002010B50D48006840F400700B4931
:101D000008600846006840F4806008600846006883
:101D100040F480700860032000F0A2F80F2000F06B
:101D200007F800F02BF8002010BD0000003C024036
:101D300070B504460E4800784FF47A71B1FBF0F0AC
:101D40000C490968B1FBF0F5284600F0D3FC08B156
:101D5000012070BD102C07D200222146501E00F039
:101D600041F80548046001E00120F2E70020F0E7B7
:101D7000081100200C1100200411002008B500BF3C
:101D8000002000900E48006840F480400C49086034
:101D90000846006800F48040009000BF00BF00BF0C
:101DA00000200090081F006840F08050091F086064
:101DB0000846006800F08050009000BF00BF08BDDA
:101DC0004438024001460846002809DB00F01F03A2
:101DD00001229A4043099B0003F1E023C3F800214C
:101DE00000BF70472DE9F05F80460D46164600277C
:101DF00004F0CCFF074639462A46334601F0070077
:101E0000C0F1070ABAF1040F02D94FF0040A01E049
:101E1000C0F1070AD14600F1040ABAF1070F02D255
:101E20004FF0000A01E0A0F1030AD4464FF0010A86
:101E30000AFA09FAAAF1010A0AEA020A0AFA0CFAEB
:101E40004FF0010B0BFA0CFBABF1010B0BEA030B90
:101E50004AEA0B042146404604F0A0FFBDE8F09F8B
:101E600000BF00F00702064B19684FF6FF03194048
:101E7000044B0B4343EA0221014B196000BF70473A
:101E80000CED00E00000FA0570B504460D460CB9F3
:101E9000012070BD5848006800F00700A84209D230
:101EA00055490D700846006800F00700A84201D0AF
:101EB0000120EEE7207800F0020002281DD12078F2
:101EC00000F00400042805D14C48006840F4E050BC
:101ED0004A490860207800F00800082805D14748E2
:101EE000006840F46040454908604448006820F0BC
:101EF000F000A168084341490860207800F0010023
:101F0000A8B36068012807D13C4808380068C0F3CE
:101F10004040B8B90120BCE76068022802D0606880
:101F2000032807D1354808380068C0F3406048B935
:101F30000120AEE7314808380068C0F3400008B916
:101F40000120A6E72D48006820F0030061680843DF
:101F50002A490860FFF7BCFE064609E0FFF7B8FE15
:101F6000801B41F28831884202D9032091E707E0C3
:101F70002248006800F00C006168B0EB810FEDD1E1
:101F80001D48006800F00700A84209D91A490D70E1
:101F90000846006800F00700A84201D0012078E759
:101FA000207800F00400042807D11448006820F4C9
:101FB000E050E168084311490860207800F008000B
:101FC000082808D10D48006820F46040216940EAE3
:101FD000C1000A49086000F019F808490968C1F30E
:101FE0000311074A515CC84006490860064800686A
:101FF000FFF79EFE00204CE7003C024008380240FC
:102000000CE100080C110020041100202DE9F0471C
:10201000002400250026A1462548006800F00C0099
:1020200020B1042805D008283AD105E0DFF88490D3
:1020300039E0DFF8849036E01D48001F006800F0AA
:102040003F041B48001F006800F4800078B11A4864
:102050001749091F0968C1F38811A0FB01700146E7
:10206000224600233846FEF7ABF805460EE011483D
:102070000F49091F0968C1F38811A0FB01700146CF
:10208000224600233846FEF79BF805460848001F05
:102090000068C0F30140401C4600B5FBF6F902E0C1
:1020A000DFF8109000BF00BF4846BDE8F087000091
:1020B000083802400024F40000127A00F8B5044603
:1020C0000CB90120F8BD207800F00100002876D07E
:1020D000FA48006800F00C0004280DD0F7480068AA
:1020E00000F00C00082813D1F448001F006800F429
:1020F0008000B0F5800F0BD1F04808380068C0F3BD
:10210000404000285BD06068002858D10120D9E702
:1021100000BF6068B0F5803F08D1E8480838006823
:1021200040F48030E549083908601EE06068B0F589
:10213000A02F0DD1E1480838006840F48020DF4925
:10214000083908600846006840F4803008600CE0F8
:10215000DA480838006820F48030D8490839086027
:102160000846006820F48020086000BF606898B1CD
:10217000FFF7AEFD054607E0FFF7AAFD401BB0F5EF
:102180007A7F01D903209DE7CC4808380068C0F366
:1021900040400028F0D012E0FFF79AFD054607E026
:1021A000FFF796FD401BB0F57A7F01D9032089E740
:1021B000C24808380068C0F340400028F0D12078B9
:1021C00000F0020002285FD1BC48006800F00C005B
:1021D00058B1BA48006800F00C0008281CD1B74874
:1021E000001F006800F48000B0B9B44808380068E7
:1021F000C0F3400020B1E068012801D0012061E770
:10220000AE480838006820F0F800216940EAC100B3
:10221000AA490839086037E0E06800B30120A849FE
:102220000860FFF755FD054606E0FFF751FD401B2E
:10223000022801D9032045E7A04808380068C0F308
:1022400040000028F1D09D480838006820F0F800D0
:10225000216940EAC10099490839086014E000206A
:1022600097490860FFF734FD054606E0FFF730FDAB
:10227000401B022801D9032024E790480838006851
:10228000C0F340000028F1D1207800F008000828B1
:102290002CD16069A8B101208A490860FFF718FDB8
:1022A000054606E0FFF714FD401B022801D9032074
:1022B00008E782486C300068C0F340000028F1D085
:1022C00014E000207F490860FFF702FD054606E0A4
:1022D000FFF7FEFC401B022801D90320F2E67748F5
:1022E0006C300068C0F340000028F1D1207800F085
:1022F0000400042870D1002770483830006800F0CE
:10230000805090B900BF002000906C4838300068C1
:1023100040F080506949383108600846006800F094
:102320008050009000BF00BF01276748006800F49C
:102330008070B0B96448006840F4807062490860F9
:10234000FFF7C6FC054606E0FFF7C2FC401B02286B
:1023500001D90320B6E65C48006800F480700028CC
:10236000F2D000BFA068012808D154486830006846
:1023700040F001005149683108601DE0A06805285F
:102380000DD14E486830006840F004004B49683178
:1023900008600846006840F0010008600CE047480B
:1023A0006830006820F00100444968310860084640
:1023B000006820F00400086000BFA068A8B1FFF723
:1023C00087FC054609E0FFF783FC401B41F288319A
:1023D000884202D9032075E626E038486830006854
:1023E000C0F340000028EED013E0FFF771FC054673
:1023F00008E0FFF76DFC401B41F28831884201D9AB
:1024000003205FE62D4868300068C0F340000028D4
:10241000EFD1012F07D129483830006820F08050D3
:1024200026493831086000BFA069002845D02348FC
:10243000006800F00C0008285DD0A069022845D192
:1024400000201F490866FFF743FC054606E0FFF73A
:102450003FFC401B022801D9032033E61748083807
:102460000068C0F340600028F1D1D4E907010843B7
:10247000616A40EA81110122A06AC2EB500041EA80
:1024800000412C20005D41EA00600C49091F0860F2
:1024900001200B490866FFF71BFC054606E0FFF725
:1024A00017FC401B022801D903200BE6034808381B
:1024B0000068C0F340600028F1D049E008380240CD
:1024C00000004742800E4742007000400020214932
:1024D0000866FFF7FDFB054606E0FFF7F9FB401B2A
:1024E000022801D90320EDE51B480068C0F34060D5
:1024F0000028F2D12CE0A069012800D1E2E51648BD
:10250000001D0668A069012820D006F48001E0695A
:1025100081421BD106F03F01206A814216D147F665
:10252000C0703040616AB0EB811F0FD106F44031BA
:102530000122A06AC2EB5000B1EB004F06D106F0B9
:1025400070612C20005DB1EB006F01D00120B9E576
:102550000020B7E5000047420038024010B50446AD
:102560000CB9012010BD606A38B96068B0F5827F8F
:1025700000D105E00021E16102E0002121616161FB
:102580000021A16294F8510028B9002084F850007D
:10259000204600F047F8022084F8510020680068C7
:1025A00020F0400021680860A08800F48270218932
:1025B00001F404410843A18901F400610843217C2E
:1025C00001F002010843217D01F001010843218B44
:1025D00001F400710843217F01F0380108432021F4
:1025E000095D01F080010843218D01F40051084389
:1025F000216808600421A06901EA104094F82410C1
:1026000001F010010843216848602068C06920F487
:1026100000602168C86100206065012084F85100D5
:1026200000209FE710B586B00446142101A8FDF7ED
:1026300011FE2B492068884250D100BF0020009035
:102640002848006840F48040264908600846006831
:1026500000F48040009000BF00BF00BF0020009049
:1026600020481038006840F002001E491039086008
:102670000846006800F00200009000BF00BF4FF461
:10268000204001900220029001200390032004903A
:102690000520059001A91448FFF712FA13481449C0
:1026A0000860002048604021114881600021C1601D
:1026B0004FF480610161002141618161C1614FF48A
:1026C0008031016200214162FFF784F908B1FEF711
:1026D00093FF00BF0648A064846300BF06B010BD2E
:1026E0000038004040380240000402407060024060
:1026F0003418002070B504462546681EB0F1807F6E
:1027000001D301200FE0681E4FF0E02148610F2146
:102710004FF0FF3004F042FB00204FF0E0218861D1
:1027200007200861002070BD7047704710B504464F
:102730000CB9012010BD94F83D0028B9002084F8A0
:102740003C00204600F026F8022084F83D00211DC0
:10275000206804F04DFA012084F8460000BF84F898
:102760003E0001213F2001554020015541200155E7
:1027700000BF00BF012084F84200432001554420DF
:1027800001554520015500BF012084F83D0000207F
:10279000D0E7000038B504460E492068884217D1BA
:1027A00000BF002000900C48006840F480700A4987
:1027B00008600846006800F48070009000BF00BF09
:1027C000002211462D20FFF70DFB2D20FFF7FAFA0E
:1027D00038BD00000020004040380240014691F81A
:1027E0003D00012801D001207047022081F83D0002
:1027F0000868C06840F001000B68D8601A4B086890
:1028000098421BD00868B0F1804F17D0174B08686A
:10281000984213D0164B086898420FD0154B0868A1
:1028200098420BD0144B0868984207D0134B0868A5
:10283000984203D0124B086898420CD1086880680F
:1028400000F00702062A0CD00868006840F001007A
:102850000B68186005E00868006840F001000B682C
:1028600018600020C0E700000000014000040040A4
:1028700000080040000C00400004014000400140FE
:1028800000180040704710B5044620680069C0F386
:102890004000D8B12068C068C0F34000B0B16FF00C
:1028A000020021680861012020772068806900F01B
:1028B000030018B12046FFF7E5FF05E0204600F0D1
:1028C000ADF8204600F0ABF80020207720680069C2
:1028D000C0F38000D8B12068C068C0F38000B0B1F8
:1028E0006FF0040021680861022020772068806969
:1028F00000F4407018B12046FFF7C4FF05E0204601
:1029000000F08CF8204600F08AF80020207720683C
:102910000069C0F3C000D8B12068C068C0F3C0002F
:10292000B0B16FF0080021680861042020772068AA
:10293000C06900F0030018B12046FFF7A3FF05E0CF
:10294000204600F06BF8204600F069F80020207760
:1029500020680069C0F30010D8B12068C068C0F3D7
:102960000010B0B16FF010002168086108202077D6
:102970002068C06900F4407018B12046FFF782FF5C
:1029800005E0204600F04AF8204600F048F8002014
:1029900020772068006900F0010058B12068C06805
:1029A00000F0010030B16FF001002168086120469D
:1029B00000F036F820680069C0F3C01058B12068F4
:1029C000C068C0F3C01030B16FF0800021680861AA
:1029D0002046FFF7A9FE20680069C0F3801058B1B7
:1029E0002068C068C0F3801030B16FF040002168EB
:1029F0000861204600F026F820680069C0F3401006
:102A000058B12068C068C0F3401030B16FF02000AA
:102A1000216808612046FFF788FE10BD70477047A7
:102A200010B5044605492068884206D1044800884C
:102A3000401C0349088002F085FB10BD00200040C7
:102A4000FC100020704700BFFEE70000012804D002
:102A5000022806D003280BD109E00121064A917211
:102A600007E006490968491E044A116001E000E0D8
:102A700000BF00BF7047000058170020F010002072
:102A8000012804D0022806D003280BD109E0012137
:102A9000064A517207E006490968491E044A116056
:102AA00001E000E000BF00BF7047000058170020A1
:102AB000F4100020012804D0022806D0032806D1F3
:102AC00004E00121034AD17102E001E000E000BF0F
:102AD00000BF7047581700202DE9F0410446002739
:102AE0000125002694F824000A2802D00020BDE821
:102AF000F081206A80470646E06980470546607895
:102B000030B1012808D002280DD003281AD111E0D5
:102B10000DB90120607015E015B90220607001E068
:102B2000002060700EE015B90320607001E0002005
:102B3000607007E015B90120207002E0002060708D
:102B4000207000BF00BF2078012803D1606850B911
:102B5000666008E0606830B1A660D4E90110401AF0
:102B6000E06000206060E06878B3E0680A280CD379
:102B7000E068B0F5487F08D20121E27C04F1100042
:102B80008154E07C401CE07425E0E068B0F5487FAB
:102B90000DD340F6C411E068884208D80221E27CD7
:102BA00004F110008154E07C401CE07413E040F616
:102BB000C411E068884209D90321E27C04F11000C5
:102BC0008154E07C401CE07405E00BE00021E27CD5
:102BD00004F110008154E07C022801DD0220E07441
:102BE0000020E060207850B9606910B906F5C8701F
:102BF00060616069B04204D20120207601E00020CB
:102C00006061207E70B108480278084904F1100024
:102C100000F00EF807460020207400216174A174B2
:102C2000E0742076384662E7E9100020CD100020DD
:102C3000F0B506460D46174600240BE005EB840070
:102C4000411C0322304603F011FA10B115F824009C
:102C5000F0BD641C072CF1DB0720F9E708B500BFC5
:102C6000002000900A48006840F4001008490860FD
:102C70000846006800F40010009000BF00BF00226A
:102C800011460F20FFF7AEF80F20FFF79BF808BDA5
:102C90003038024000B587B0142102A8FDF7DAFAF7
:102CA00000BF002001904248006840F020004049E9
:102CB00008600846006800F02000019000BF00BFD7
:102CC00000BF002001900846006840F080000860C6
:102CD0000846006800F08000019000BF00BF00BF00
:102CE000002001900846006840F002000860084695
:102CF000006800F00200019000BF00BF00BF00208C
:102D000001900846006840F0080008600846006826
:102D100000F00800019000BF00BF00BF002001903C
:102D20000846006840F0010008600846006800F0AE
:102D30000100019000BF00BF00224FF4E0611D4878
:102D4000FEF7C0FF00224FF478711B48FEF7BAFF70
:102D50004FF4E0700290002003900120049002A93B
:102D60001648FEF7ADFE4FF4E0600290012003909C
:102D700004900020059002A90E48FEF7A1FEE02075
:102D800002900120039004900020059002A90A48B7
:102D9000FEF796FE4FF440700290012003900490DD
:102DA0000320059002A90448FEF78AFE07B000BD83
:102DB00030380240000C024000040240001402407F
:102DC00010B50E480E4908604FF48270486000212B
:102DD0000B488160C160016141614FF40071816104
:102DE0000821C16100210162416281620A21C16240
:102DF000FFF7B4FB08B1FEF7FFFB10BD0038004041
:102E0000DC17002010B50C480C49086044F29F10F4
:102E100048600021094881600921C16000210161E9
:102E200080218161FFF782FC08B1FEF7E5FB0348D2
:102E3000FFF7D4FC10BD00000020004094180020D3
:102E40009FED190A194880ED020A9FED190A80EDDD
:102E5000030A9FED150A80ED000A9FED150A80ED2B
:102E6000010A9FED140A144880ED020A9FED100A32
:102E700080ED030A9FED0F0A80ED000A9FED0C0A1A
:102E800080ED010A9FED0D0A0D4880ED020A9FEDCD
:102E9000080A80ED030A9FED090A80ED000A9FED04
:102EA000040A80ED010A7047000048C31011002099
:102EB000000000000000014340110020000000431A
:102EC0007011002000BFFEE70A48D0ED010A0A4851
:102ED000006890F90A0000EE100AB8EEC00A30EE61
:102EE000800A0648D0ED030A30EE200A80ED030A7E
:102EF000704700002013002090100020F0120020E6
:102F00000A48D0ED010A0A480068B0F9360000EE20
:102F1000100AB8EEC00A30EE800A0648D0ED020A68
:102F200030EEC00A80ED020A704700002013002036
:102F300090100020F01200200A48D0ED010A0A4843
:102F40000068B0F9360000EE100AB8EEC00A30EEA4
:102F5000800A0648D0ED020A30EE200A80ED020A0F
:102F6000704700002013002090100020F012002075
:102F70000A48D0ED010A0A48006890F90A0000EEFC
:102F8000100AB8EEC00A30EE800A0648D0ED030AF7
:102F900030EEC00A80ED030A7047000020130020C5
:102FA00090100020F012002038B503F09FFA03F0D3
:102FB000FDFB03F01DFC03F093FC2448FEF716F81C
:102FC0002348FDF797FE2348FDF794FE2248FDF7BE
:102FD00056FE02F043FB2148FDF751FE20480068F1
:102FE000007A1E4C009094ED030ABDEEC00A10EE6C
:102FF000104A23B2194C94ED020ABDEEC00A10EE3D
:10300000104A22B2154C94ED010ABDEEC00A10EE32
:10301000104A21B2114C94ED000ABDEEC00A10EE28
:10302000104A20B202F07CFF0E48007801F0AEFB9F
:103030000D48B0F9000000F01FF80C48FDF75AFEEB
:103040000B48FDF71CFE00F085FC38BDF012002097
:1030500020130020C012002000120020A011002028
:10306000901000209A1000209C100020D812002000
:103070006012002000BFFEE710B504460A48B0F910
:103080000000844200D110BD07480480FF2C00DD01
:10309000FF24002C00DA0024812002F091FAE0B233
:1030A00002F08EFA00BFEEE7EC10002000200CE0EA
:1030B000002106E00022064B03EBC0135A544A1CC1
:1030C00011B28029F6DB421C10B20828F0DB7047F1
:1030D000381300202DE9FF4F06460F469446BCF1F9
:1030E000000F02DD0399002901DCBDE8FF8F002EEF
:1030F00001DA002100E03146884606EB0C010BB2F4
:10310000802B00DD8023984500DBEEE7002F01DAFD
:10311000002100E039468946039939440CB2402C1D
:1031200000DD4024A14500DBDFE7A3EB08010FFA37
:1031300081FCA4EB090109B2039148462FE0454602
:1031400029E04FEAE07A00EB5A7A4FEAEA0ADFF820
:1031500058B00BEBCA1A1AF805A002464FEAE07BFA
:1031600000EB5B7B4FEAEB0BA0EBCB0E4FF0010BC0
:103170000BFA0EFB2AEA0B0A01464FEAE07B00EB52
:103180005B7B4FEAEB0BDFF820E00EEBCB1B0BF881
:1031900005A0691C0DB29D42D3DB411C08B2A042C0
:1031A000CDDB00BFA1E70000381300202DE9F05F60
:1031B00007460E4691469B46B9F1000F01DCBDE87B
:1031C000F09FC9F101000FFA80FA00254C465A46DB
:1031D000214628460A9B01F0BFF828B1321911B2E6
:1031E0007A1910B200F0DAF95A46604201B2684228
:1031F00000B20A9B01F0B0F828B1321B11B27A1B61
:1032000010B200F0CBF95A46294620460A9B01F03D
:10321000A3F828B1721911B23A1910B200F0BEF930
:103220005A46684201B2604200B20A9B01F094F82B
:1032300028B1721B11B23A1B10B200F0AFF90B9813
:10324000B0B160420FFA80F810E05A4641460020C3
:103250000A9B01F081F828B106EB080001B238465C
:1032600000F09CF908F101000FFA80F8A045ECDBB2
:10327000D3E0681C05B2BAF1000F05DA6800401C03
:1032800050440FFA80FA07E0601E04B2281B400089
:10329000401C50440FFA80FA5A46214628460A9BA1
:1032A00001F05AF828B1321911B27A1910B200F0AF
:1032B00075F95A46294620460A9B01F04DF828B177
:1032C000721911B23A1910B200F068F95A46604208
:1032D00001B2684200B20A9B01F03EF828B1321BED
:1032E00011B27A1B10B200F059F95A46684201B285
:1032F000604200B20A9B01F02FF828B1721B11B294
:103300003A1B10B200F04AF95A46604201B2284610
:103310000A9B01F021F828B1321B11B27A1910B2C0
:1033200000F03CF95A46684201B220460A9B01F07F
:1033300013F828B1721B11B23A1910B200F02EF92D
:103340005A462146684200B20A9B01F005F828B1AE
:10335000321911B27A1B10B200F020F95A462946F0
:10336000604200B20A9B00F0F7FF28B1721911B257
:103370003A1B10B200F012F90B9800284DD06042B1
:103380000FFA80F820E05A46414628460A9B00F092
:10339000E3FF30B106EB080211B27A1910B200F067
:1033A000FDF85A464146684200B20A9B00F0D4FF3D
:1033B00030B106EB080211B27A1B10B200F0EEF841
:1033C00008F101000FFA80F8A045DCDB68420FFA33
:1033D00080F820E05A464146604200B20A9B00F065
:1033E000BBFF30B106EB080211B23A1B10B200F07D
:1033F000D5F85A46414620460A9B00F0ADFF30B151
:1034000006EB080211B23A1910B200F0C7F808F141
:1034100001000FFA80F8A845DCDBA542FFF629AFD2
:1034200000BFCCE62DE9FF4F86B0069E079CDDF875
:103430002080DDF824900020019000904C450FD1B1
:10344000464502DDB2464646D046354605E02146B1
:10345000284600F0A3F8681C05B24545F7DD99E061
:1034600046450FD14C4502DDA2464C46D146274683
:1034700005E03946304600F091F8781C07B24F4518
:10348000F7DD87E0464505DDB2464646D046A24612
:103490004C46D1464C4507DD604204B2C9F10000FC
:1034A0000FFA80F901200190A9EB0400A8EB0601B6
:1034B000884207DDB24626465446C246C846D14633
:1034C00001200090A8EB060000B20590A9EB0400D3
:1034D0000FFA80FB4FEA4B0000B203900598ABEB6C
:1034E0000000400000B202900598C0EB4B0000B213
:1034F000049035462746019838B1009828B16842B3
:1035000001B2384600F04AF812E0019828B178423A
:1035100001B2284600F042F80AE0009820B129469E
:10352000384600F03BF803E03946284600F036F80C
:103530002EE0681C05B20498002805DADDE90310C6
:10354000084400B2049006E0781C07B2029904987F
:10355000084400B20490019838B1009828B168423C
:1035600001B2384600F01AF812E0019828B178420A
:1035700001B2284600F012F80AE0009820B129466E
:10358000384600F00BF803E03946284600F006F80C
:103590004545CEDB0AB0BDE8F08F000070B50346AC
:1035A000002B05DB002903DB7F2B01DC3F2900DD3D
:1035B00070BDCC1701EB5474E4100C4D05EBC41432
:1035C000E45C0A46CD1701EB5575ED10A1EBC5067D
:1035D0000125B5402C430846CD1701EB5575ED107C
:1035E000024E06EBC515EC5400BFE1E7381300208E
:1035F0002DE9FF4F84B0804689469246BAF1000F0C
:1036000001D0079810B908B0BDE8F08F464608EB26
:103610000A00401E07B24C4607984844401E05B2B7
:10362000002E00DA0026802F00DB7F27002C00DA36
:103630000024402D00DB3F25B81B401C00B2039046
:10364000281B401C00B202900398002802DD02985B
:10365000002800DCD7E7119800BBB3460BE02146F9
:103660005846FFF79BFF29465846FFF797FF0BF197
:1036700001000FFA80FBBB45F1DDA3460BE0594684
:103680003046FFF78BFF59463846FFF787FF0BF1AF
:1036900001000FFA80FBAB45F1DD4FE02046E1175A
:1036A00004EB5171C9100BB22846E91705EB5171B3
:1036B000C9100FFA81FC2046E11704EB5171C910C3
:1036C000A4EBC102FF219140C9B201912846E9173C
:1036D00005EB5171C910A5EBC101C1F10702FF2132
:1036E00011410091314626E0184620E0FF22984221
:1036F00003D1DDF804B002EA0B02604503D1DDF826
:1037000000B002EA0B0200280FDB08280DDADFF810
:1037100030B00BEBC01B1BF801B04BEA020BDFF81B
:1037200020E00EEBC01E0EF801B0421C10B2604546
:10373000DCDD481C01B2B942D6DD00BF00BF62E744
:10374000381300202DE9FC4705460E4617469846DB
:10375000DDE90A4917B1B8F1000F01D1BDE8FC87D6
:1037600007EBD7725210A24204DB08EBD87252105A
:10377000A24209DA474501DA394600E041460846E7
:1037800001EBD07149100CB2002C08DC43463A46DC
:1037900031462846CDF80090FFF72AFFDEE7022CDD
:1037A00038D13146681C00B2FFF7F8FEE919891ECE
:1037B00008B23146FFF7F2FE06EB0800401E01B2E8
:1037C000681C00B2FFF7EAFE06EB0802521E11B2B7
:1037D000EA19921E10B2FFF7E1FE701C01B22846F2
:1037E000FFF7DCFE06EB0800801E01B22846FFF75B
:1037F000D5FEE919491E08B2711C09B2FFF7CEFEC9
:1038000006EB0802921E11B2EA19521E10B2FFF71F
:10381000C5FE37E06FF05900321911B22A19CDE90F
:10382000000910B2B4232246FFF7C0FC0020321971
:1038300011B2EA19121B521ECDE9000910B26FF045
:1038400059032246FFF7B2FCB42006EB0802121B14
:10385000521E11B22A19CDE9000910B25A2322468C
:10386000FFF7A4FC5A2006EB0802121B521E11B2ED
:10387000EA19121B521ECDE9000910B2002322469C
:10388000FFF794FCB9F1000F18D00120022101FBD1
:1038900014710AB22919009008B243463146FFF765
:1038A000A7FE01200090022000FB148003B2301913
:1038B00001B23A462846FFF79BFE48E0E919091B8A
:1038C000491E0AB2291908B233463146FFF7AAFD4C
:1038D00006EB080CACF1010C0FFA8CF305EB070CAE
:1038E000ACEB040CACF1010C0FFA8CF206EB080CFB
:1038F000ACF1010C0FFA8CF105EB040C0FFA8CF013
:10390000FFF790FD06EB0800001B401E03B23019C4
:1039100001B22A462846FFF785FD06EB080CACEB02
:10392000040CACF1010C0FFA8CF305EB070CACF1B5
:10393000010C0FFA8CF206EB040C0FFA8CF105EB7C
:10394000070CACF1010C0FFA8CF0FFF76BFD00BF18
:1039500004E700002DE9F0432DED048B89B0F84811
:10396000807880B9B3EE0E0AF64880ED070A9FED25
:10397000F60A80ED060A9FEDF50A80ED040A9FED38
:10398000F40A80ED050AF348006820B909B0BDECDF
:10399000048BBDE8F083EF49096891F9100000211C
:1039A000FDF7C4FE0546EB49096891F910000121B5
:1039B000FDF7BCFE0446E248807801281BD0E148B0
:1039C00090ED030AF3EE0E0AB4EE600AF1EE10FA7F
:1039D0007ED090ED020ADFEDDC0AB4EE600AF1EE73
:1039E00010FAF5D090ED010ADFEDD90AB4EE600AC5
:1039F000F1EE10FAECD0D7480068007AF0BB002056
:103A0000DFF840C300909CED030AF0EE000A30EEB0
:103A1000200ABDEEC00A10EE10CA0FFA8CF3DFF8D0
:103A200024C39CED020AF0EE000A30EE200ABDEE3F
:103A3000C00A10EE10CA0FFA8CF2DFF808C39CED32
:103A4000010AF7EE000A30EE600ABDEEC00A10EE81
:103A500010CA0FFA8CF1DFF8ECC29CED000AF7EE09
:103A6000000A30EE600ABDEEC00A10EE10CA0FFA6E
:103A70008CF0FFF7BDFDDFF8CCC200E029E09CED43
:103A8000030ABDEEC00A10EE10CA0FFA8CF3DFF87D
:103A9000B4C29CED020ABDEEC00A10EE10CA0FFAC5
:103AA0008CF2DFF8A0C29CED010ABDEEC00A10EE58
:103AB00010CA0FFA8CF1DFF88CC29CED000ABDEE43
:103AC000C00A10EE10CA0FFA8CF0FFF703FB68E093
:103AD000CDE300200221DFF86CC2CDE900109CED9F
:103AE000030AF0EE000A30EE200ABDEEC00A10EE26
:103AF00010CA0FFA8CF3DFF84CC29CED020AF0EE0C
:103B0000000A30EE200ABDEEC00A10EE10CA0FFA0D
:103B10008CF2DFF830C29CED010AF7EE000A30EEBD
:103B2000600ABDEEC00A10EE10CA0FFA8CF1DFF881
:103B300014C29CED000AF7EE000A30EE600ABDEEFA
:103B4000C00A10EE10CA0FFA8CF0FFF7FBFDDFF889
:103B5000F4C19CED030ABDEEC00A10EE10CA0FFAC4
:103B60008CF3DFF8E0C19CED020ABDEEC00A10EE56
:103B700010CA0FFA8CF2DFF8CCC19CED010ABDEE41
:103B8000C00A10EE10CA0FFA8CF1DFF8B8C19CED34
:103B9000000ABDEEC00A10EE10CA0FFA8CF0FFF753
:103BA00099FA6848D0ED020A6A480068B0F9120034
:103BB000400000EE100AB8EEC00A30EEC00AF1EE86
:103BC000000A30EE600ABDEEC00A10EE100A07B21D
:103BD0000026604A126891695E4A1268D069FDF752
:103BE000C7FD804608F1010000287DD0B8F1010F23
:103BF0007BD158480068C069B0F9003056A2214610
:103C00002846FDF717F800EE100AF8EEC00A4D48F6
:103C100090ED021A4F480068B0F91200400000EE23
:103C2000100AB8EEC00A31EE400A30EE600AF1EE3A
:103C3000000A30EE600ABDEEC00A10EE100A07B2AC
:103C400044480068C069B0F9003043A221462846C4
:103C5000FCF7F0FF06463F480068C069B0F9001065
:103C60003DA3E0B2EAB2CDE90431CDE90220354806
:103C7000D0ED010A37480068B0F9140000EE100AD0
:103C8000B8EEC00A30EE800ABDEEC00A10EE100A8F
:103C900000B22C49D1ED000A2E490968B1F9001093
:103CA00000EE101AB8EEC00A30EE800AF7EE000AF5
:103CB00070EE600A27490968B1F9121000EE101A77
:103CC000B8EEC00A70EEC00A00EE106AB8EEC00A84
:103CD00030EEC00ABDEEC00A10EE101A09B2DFF8CD
:103CE00064C0CDE9001001E0E6E137E09CED030A95
:103CF000BDEEC00A10EE10CA0FFA8CF3DFF844C014
:103D00009CED020ABDEEC00A10EE10CA0FFA8CF24A
:103D1000DFF830C09CED010ABDEEC00A10EE10CAFB
:103D20000FFA8CF1DFF81CC09CED000ABDEEC00A52
:103D300010EE10CA0FFA8CF000F099FCCAE00000F7
:103D40009E10002060120020000070420000084217
:103D5000000020C29410002025336400FE48006853
:103D6000806990ED000A10EE101A0846FCF743FC3B
:103D700041EC180B8DED008BF8A221462846FCF78C
:103D800059FF00EE100AF8EEC00AF64890ED021A4C
:103D9000F1480068B0F91200400000EE100AB8EED9
:103DA000C00A31EE400A30EE600AF1EE000A30EE51
:103DB000600ABDEEC00A10EE100A07B2E6480068BD
:103DC000806990ED000A10EE101A0846FCF713FC0B
:103DD00041EC180B8DED008BE0A221462846FCF744
:103DE00029FF0646DC480068806990ED000A10EE65
:103DF000101A0846FCF7FFFB41EC180B8DED068B03
:103E0000D6A3E0B2E9B2D74AD2ED010AD24A12688B
:103E1000B2F9142000EE102AB8EEC00A30EE800A83
:103E2000BDEEC00A10EE102A12B2CDE90303CDE9AF
:103E30000121CC48D0ED000AC7480068B0F9000065
:103E400000EE100AB8EEC00A30EE800AF7EE000A63
:103E500070EE600AC0480068B0F9120000EE100A67
:103E6000B8EEC00A70EEC00A00EE106AB8EEC00AE2
:103E700030EEC00ABDEEC00A10EE100A00B2DFF844
:103E8000E4C200909CED030ABDEEC00A10EE10CA19
:103E90000FFA8CF3DFF8CCC29CED020ABDEEC00A2B
:103EA00010EE10CA0FFA8CF2DFF8B8C29CED010ACE
:103EB000BDEEC00A10EE10CA0FFA8CF1DFF8A4C2F2
:103EC0009CED000ABDEEC00A10EE10CA0FFA8CF08D
:103ED00000F0CDFB00200221DFF888C2CDE9001000
:103EE000DCED020ADFF870C2DCF800C0BCF92EC0BD
:103EF0004FEA4C0C00EE10CAB8EEC00A30EEC00A11
:103F0000BDEEC00A10EE10CA0FFA8CF2DFF854C2F0
:103F10009CED010ADCED030A70EE200ADFF838C2DE
:103F2000DCF800C0BCF930C000EE10CAB8EEC00A20
:103F300070EEC00ADFF820C2DCF800C0BCF92CC06B
:103F400000EE10CAB8EEC00A30EEC00ABDEEC00ADC
:103F500010EE10CA0FFA8CF1DFF808C2DCED000A8F
:103F6000DFF8F4C1DCF800C0BCF92EC000EE10CAC6
:103F7000B8EEC00A30EE800ABDEEC00A10EE10CADC
:103F80000FFA8CF0DFF8D0C1DCF800C0BCF930309B
:103F9000FFF7D8FB0120DFF8CCC10090DCED020A6E
:103FA000DFF8B4C1DCF800C0BCF92EC04FEA4C0CFD
:103FB00000EE10CAB8EEC00A30EEC00AF1EE000AF8
:103FC00030EE600ADFF8A0C1DCED000AB4EEE00AD2
:103FD000F1EE10FA16D8DFF88CC1DCED020ADFF83A
:103FE00078C1DCF800C0BCF92EC04FEA4C0C00EEE2
:103FF00010CAB8EEC00A30EEC00AF1EE000A30EE88
:10400000600A03E0DFF860C19CED000ABDEEC00A63
:1040100010EE10CA0FFA8CF2DFF848C19CED010ACD
:10402000DCED030A70EE200ADFF82CC1DCF800C0DA
:10403000BCF930C000EE10CAB8EEC00A70EEC00A7B
:10404000DFF814C1DCF800C0BCF92CC000EE10CAC7
:10405000B8EEC00A30EEC00AF0EE000A30EE200AD8
:10406000BDEEC00A10EE10CA0FFA8CF1DFF8F4C0F2
:10407000DCED000ADFF8E0C0DCF800C0BCF92EC0BF
:1040800000EE10CAB8EEC00A30EE800AF0EE000A68
:1040900030EE200ABDEEC00A10EE10CA0FFA8CF006
:1040A000DFF8B4C0DCF800C0BCF830C0ACF1040CE0
:1040B0000FFA8CF3FFF79CFA27480068C0680028C5
:1040C0007DD0254800682146C2682846FCF7B2FD2D
:1040D0008146B9453CDD234890ED000AD0ED040A45
:1040E000B4EE600AF1EE10FA32D190ED010AD0ED93
:1040F000050AB4EE600AF1EE10FA29D190ED020A39
:10410000D0ED060AB4EE600AF1EE10FA20D190ED7F
:10411000030AD0ED070AB4EE600AF1EE10FA17D1E7
:104120000D48006890ED0D0A10EE101A0846FCF7D5
:1041300062FA41EC190B9FED0D0B53EC102BFCF7C1
:1041400043F941EC180BFCF799FA034909684863F5
:10415000014800680EE000009410002025352E3242
:104160006600000060120020D8120020000000004D
:104170000000E03FD0ED0D0AC9F1000000EE100A8A
:10418000B8EEC00AF4EEC00AF1EE10FA08D2781CBC
:1041900000EE100AB8EEC00A3848006880ED0D0A3B
:1041A00036480068C168E0B2EAB2354BD3ED010A87
:1041B000324B1B68B3F9143000EE103A00E055E0C2
:1041C000B8EEC00A30EE800ABDEEC00A10EE103A1A
:1041D0001BB2CDE90132CDE903012948D0ED000A37
:1041E00026480068B0F9120000EE100AB8EEC00AC6
:1041F00030EE800A21480068D0ED0D0A30EE200A2A
:10420000BDEEC00A10EE100A00B21D4A0090D2EDB9
:10421000010A1A4A1268B2F9142000EE102AB8EE08
:10422000C00A30EE800ABDEEC00A10EE102A11B2AC
:10423000134AD2ED000A114A1268B2F9122000EEB8
:10424000102AB8EEC00A30EE800ABDEEC00A10EEA9
:10425000102A10B20A4A92ED030ABDEEC00A10EE0F
:10426000102A13B23A4600F002FA00BF02E0002022
:104270000249086000BFFFF789BB000094100020CE
:104280006012002010B54FF4001032490860002081
:1042900006E0002100E0491CB1F57A7FFBDB401C01
:1042A000B0F57A7FF5DB20202A490860AE2001F0C6
:1042B00087F9FD2001F084F9122001F081F9D52061
:1042C00001F07EF9A02001F07BF9A82001F078F937
:1042D0003F2001F075F9D32001F072F9002001F0C0
:1042E0006FF9402001F06CF9A12001F069F9C820B4
:1042F00001F066F9DA2001F063F9122001F060F9AB
:10430000812001F05DF9FF2001F05AF9D92001F078
:1043100057F9252001F054F9DB2001F051F9342040
:1043200001F04EF9A42001F04BF9A62001F048F964
:10433000FEF7BCFEAF2001F043F9002006E00021AB
:1043400000E0491CB1F57A7FFBDB401CB0F57A7FB9
:10435000F5DB10BD180402402DE9F0412DED0A8B6C
:1043600080460F4614461D464046FCF714F941ECC2
:104370001B0B3846FCF70FF941EC1C0BB0EE4B1A47
:10438000F0EE6B1AB0EE4C0AF0EE6C0A02F088FE0A
:10439000B0EE40AAF0EE60AA9FED130B53EC102B89
:1043A00051EC1A0BFCF788F841EC180B9FED100B41
:1043B00053EC102BFCF70EF841EC190BFCF7FCF852
:1043C00006B2AC4208DAA6420CDBAE420ADC01209F
:1043D000BDEC0A8BBDE8F081A64201DAAE4201DCF9
:1043E0000120F5E70020F3E71F85EB51B81E0940D7
:1043F000000000000080664070B52DED028B82B099
:1044000081488078814988707F48C078C8707E482C
:10441000007808707C48407848707D48407A7A4936
:1044200008707B48807A48707948C07988707848ED
:10443000007AC87000207649487288727348807884
:10444000E0BB71488078C8BB72480088401C00B24D
:10445000704908800846B0F9000000EE100AB8EE76
:10446000C00ADFED6D0AB4EEE00AF1EE10FA31DBBE
:104470006A480088401C00B2684908806548B0F965
:104480000000FCF788F841EC180B9FED650B53EC2E
:10449000102BFCF7DBF801D8012000E00A205F496F
:1044A000B1F9001088420ADC01205F490870002041
:1044B0005A49088001205C4908700BE003E00020A5
:1044C0005949087006E00020524908805349088085
:1044D000554908704D48C078E0BB4B48C078C8BB10
:1044E00052480088401C00B2504908800846B0F984
:1044F000000000EE100AB8EEC00ADFED470AB4EE85
:10450000E00AF1EE10FA31DB49480088401C00B2A5
:10451000474908804548B0F90000FCF73CF841ECF9
:10452000180B9FED3F0B53EC102BFCF78FF801D8C5
:10453000012000E00A203E49B1F9001088420ADC5F
:1045400001203C4908700020394908800120394980
:1045500008700BE003E000203649087006E00020F8
:1045600032490880324908803249087026488078EC
:104570002549C978884204D100202B4908702D496B
:1045800008702D4909680869FDF7C4F8064600203F
:10459000019029480068B0F93A402546FCF7ECFF45
:1045A000204404B21848807818498978884203D09A
:1045B00015488078012802D01B48007808B1601E99
:1045C00004B21148C0781149C978884203D00E4816
:1045D000C078012802D01748007808B1601C04B2E6
:1045E000601B00B2ADF80600701EA04200DC04B2F1
:1045F000002C00DC0024601B00B2ADF80400019820
:1046000002B0BDEC028B70BD861000208A10002025
:1046100058170020A410002000002042A6100020FF
:104620000000000000806140A2100020A8100020BF
:10463000AA100020A3100020901000200FB470B525
:10464000A2B005460E4614462AA8019002A8019A77
:10465000299902F071FB00200190234602AA3146FD
:10466000284600F07BFC22B070BC5DF814FB2DE9FD
:10467000F04FA7B004460D4616461F46DDE932ABA3
:10468000DDE9308935A8069007A8069A349902F02A
:1046900053FB0020069007A83B4632462946CDE949
:1046A00003ABCDE900890290204600F017FC27B04B
:1046B000BDE8F08F2DE9F04F044615461E46002D4B
:1046C00001DD002E01DCBDE8F08F7F2C00DDFAE774
:1046D0003F2900DDF7E76219802A02DDC4F180027C
:1046E00015B28A19402A02DDC1F1400216B26219E0
:1046F000002A00DAE7E78A19002A00DAE3E7002C4B
:1047000002DA4FF0000C00E0A446002902DA4FF074
:10471000000800E08846404630E0674629E04FEA5E
:10472000E07900EB59794FEAE909DFF85CA00AEB80
:10473000C91919F8079003464FEAE07A00EB5A7A54
:104740004FEAEA0AA0EBCA0B4FF0010A0AFA0BFA89
:1047500089EA0A0902464FEAE07A00EB5A7A4FEA00
:10476000EA0ADFF824B00BEBCA1A0AF807907A1CA1
:1047700017B26219BA42D2DC421C10B28A198242C4
:10478000CBDC00BF9FE70000381300200149087010
:1047900070470000EA10002030B505460C4645F091
:1047A000B00000F00DFF102141EA141000F008FFE6
:1047B00004F00F0000F004FF30BD0000F8B506461D
:1047C0000F4614461D46082D0CD1A4F120001F49A8
:1047D00001EB00101023082239460090304600F00B
:1047E000AFF931E0062D0ED1A4F1200000EB40001E
:1047F000174901EB40000823062239460090304655
:1048000000F09EF920E0072D0ED1A4F12000C0EBAE
:10481000C000104901EB40000C23072239460090EC
:10482000304600F08DF90FE00A2D0DD1A4F12000E3
:10483000C0EB0010084901EB400014230A2239465E
:104840000090304600F07CF9F8BD00007E8A000838
:10485000A09500086E9000085C7F00082DE9F04FDD
:1048600085B004460D4616461F46DDE90EABDDE970
:104870001089B9F1080F0ED1A8F12000254901EBEC
:1048800000101023082259468DE8F000049050468D
:1048900000F04EFA3AE0B9F1060F10D1A8F120006D
:1048A00000EB40001C4901EB40000823062259465A
:1048B0008DE8F0000490504600F03AFA26E0B9F195
:1048C000070F10D1A8F12000C0EBC000134901EB85
:1048D00040000C23072259468DE8F0000490504612
:1048E00000F026FA12E0B9F10A0F0FD1A8F120006A
:1048F000C0EB00100A4901EB400014230A2259467C
:104900008DE8F0000490504600F012FA05B0BDE8C2
:10491000F08F00007E8A0008A09500086E900008C5
:104920005C7F00082DE9F04F89B0804689469246A9
:104930009B46159E0020089007900027EDE01498F4
:10494000C15D07AA089811540898401CC0B208908D
:10495000089802287ADB00200890082E01D1734DB8
:104960000AE00C2E01D1724D06E0102E01D1714DDE
:1049700002E0142E00D1704D082E31D100240BE03E
:1049800004EB440101EBC401481907A9FBF76DFCD6
:1049900000B90BE0601CC4B204EB440101EBC4019C
:1049A000481966A1FBF761FC0028E9D100BF04EBC0
:1049B000440000EBC4002844C01C791C8DE8000FA3
:1049C0000691049001EBD1714910491E129A02EB35
:1049D000C10108B208231A46139900F0A9F999E019
:1049E0000C2E34D100240BE004EBC40101EB410197
:1049F000481907A9FBF739FC00B90BE0601CC4B2E9
:104A000004EBC40101EB410148194CA1FBF72DFC5B
:104A10000028E9D100BF04EBC40000EB40002844AB
:104A2000C01C791C8DE8000F0691049001EBD17138
:104A30004910491E01EB4102129901EB820108B2B3
:104A40000C231A46139900F073F963E063E0102E0B
:104A500031D100240BE0C4EBC40101EB8101481902
:104A600007A9FBF702FC00B90BE0601CC4B2C4EB61
:104A7000C40101EB8101481930A1FBF7F6FB0028C6
:104A8000E9D100BFC4EBC40000EB80002844C01C87
:104A9000791C8DE8000F0691049001EBD17149104B
:104AA000491E129A02EB011108B210231A461399FB
:104AB00000F03EF92EE0142E2CD1002409E0C4EBC6
:104AC0008411481907A9FBF7D0FB00B909E0601C65
:104AD000C4B2C4EB8411481918A1FBF7C6FB002827
:104AE000EDD100BFC4EB84102844C01C791C8DE8B4
:104AF000000F0691049001EBD1714910491E01EBA2
:104B00008102129901EB820108B214231A4613990B
:104B100000F00EF900BF781CC7B21498C05D0028E1
:104B20007FF40DAF09B0BDE8F08F0000FCBB0008BA
:104B30003AB10008A6A40008DA97000800000000B7
:104B40002DE9FF4F07460C4615469946DDF834B06F
:104B500015B1B9F1000F01D1BDE8FF8F7F2F00DD46
:104B6000FAE73F2C00DDF7E7002F01DA002000E034
:104B70003846C0B20390002C01DA002000E0204645
:104B8000C0B202907819401E7F2801DD7F2001E02D
:104B90007819401EC0B2019004EB0900401E3F2866
:104BA00001DD3F2002E004EB0900401EC0B200908E
:104BB00002990098401A431C03990198401A421C1C
:104BC000DDE90210FEF786FA4FF0000873E00026D8
:104BD0006BE0B9190AB204EBC80108B2002A05DB80
:104BE0007F2A03DC002801DB3F2800DD5BE0014673
:104BF0004FEAE07C00EB5C7C4FEAEC0CDFF82CA188
:104C00000AEBCC1C1CF802C003464FEAE07A00EB2A
:104C10005A7A4FEAEA0AA0EBCA0A08FB056E1BF8AB
:104C20000EE00EFA0AFE4CEA0E0C4FEAE07A00EBB8
:104C30005A7A4FEAEA0ADFF8F4E00EEBCA1A0AF8E9
:104C400002C008313F292DDC01464FEAE07C00EB31
:104C50005C7C4FEAEC0C0CF1010CF2460AEBCC1C2C
:104C60001CF802C04FEAE07A00EB5A7A4FEAEA0AEF
:104C7000A0EBCA0ACAF1080A08FB056E1BF80EE091
:104C80004EFA0AFE4CEA0E0C4FEAE07A00EB5A7A32
:104C90004FEAEA0A0AF1010ADFF890E00EEBCA1ABD
:104CA0000AF802C000BF701CC6B2AE4291DB08F128
:104CB000010000F0FF08A9F10100C11700EB5171DC
:104CC000012202EBE101414581DC002C2BDA0026B8
:104CD00027E0B91908B2002801DB7F2800DD1EE0BB
:104CE0006242D31702EB5373DB1003FB05631BF81F
:104CF000033061424FEAE17C01EB5C7C4FEAEC0C53
:104D0000A1EBCC0C43FA0CF3DFF820C01CF800C078
:104D100043EA0C03DFF814C00CF8003000BF701C2D
:104D2000C6B2AE42D5DB00BF16E700003813002044
:104D30002DE9F04F85B0044672B16BB1109858B1AF
:104D4000119848B17F2C07DC0E987F2804DC3F299E
:104D500002DC0F983F2802DD05B0BDE8F08F0E9809
:104D6000844201DA0E9800E020460490109D0E98CF
:104D70002844401EA5186D1EA84204DA109D0E9806
:104D80002844401E01E0A018401E06B20F98814240
:104D900001DA0F9800E008460390119D0F9828440F
:104DA000401ECD186D1EA84204DA119D0F982844AC
:104DB000401E01E0C818401E07B27F2E01DD7F2093
:104DC00000E0304606463F2F01DD3F2000E0384638
:104DD00007460498B04202DC0398B84200DDBBE706
:104DE00000256EE04FF0000C67E004EB0C0000F0D3
:104DF000FF080498804501DBB04500DD59E04FF025
:104E0000000952E001EBC50ACA440AF0FF00DDF8D0
:104E10000CA0504501DBB84200DD42E082464FEA7B
:104E2000E07B00EB5B7BCBF3C70BCDF808B04FEA20
:104E3000E07B00EB5B7B4FEAEB0BA0EBCB0B0BF0CB
:104E4000FF0BCDF804B005FB02CBDDF848A01AF843
:104E50000BB0CDF800B04FF0010A0AFA09FADDF8FC
:104E600000B00AEA0B0ABAF1000F19D0DFF868B0F7
:104E7000DDF808A00BEBCA1A1AF808A04FF0010ED3
:104E8000DDF804B00EFA0BFE4AEA0E0A0AF0FF0B38
:104E9000DFF844E0DDF808A00EEBCA1A0AF808B003
:104EA00000BF09F1010000F0FF09B9F1080FA9DB0B
:104EB00000BF0CF1010000F0FF0C944595DB681C6D
:104EC000C5B2581E4FEAE07C00EB5C7CB5EBEC0F02
:104ED00088DD00BF40E70000381300202DE9FF4FB8
:104EE00085B081468A469346DDE91578DDE912569C
:104EF000149C2DE0207800F08000D0B1002004E068
:104F0000215C04AA1154411CC8B20228F8DB00201D
:104F10008DF8120004A8CDE90207CDE900565A46E3
:104F200051464846089BFFF7FDFCE81905B2A41C52
:104F30000EE02078CDE90208CDE900565A465146E8
:104F40004846089BFFF78AFC05EB080005B2641C85
:104F500020780028CED109B0BDE8F08F2DE9F041CE
:104F60000646884615461F46002409E02A5D04FBD4
:104F7000076108B23B464146FFF720FC601CC4B203
:104F8000285D0028F2D1BDE8F08110B5FBF70CFEDA
:104F900010BD000001211F4A91709FED1F0A1F499B
:104FA00081ED000A00211180B0F9001000EE101A06
:104FB000B8EEC00A1A4981ED060AB0F9021000EEF7
:104FC000101AB8EEC00A164981ED070AB0F90020A0
:104FD000C2F1800101EBD172521000EE102AB8EE3E
:104FE000C00A0F4A82ED040AB0F90220C2F1400162
:104FF00001EBD172521000EE102AB8EEC00A084A36
:1050000082ED050A9FED040A80ED0D0A054908604E
:10501000704700009E10002000000000D812002001
:1050200060120020941000202DE9F04F87B0044654
:105030000D4616461F46DDF84080002C02DA301976
:1050400006B20024002D02DA781907B20025A01953
:10505000802802DDC4F1800006B2E819402802DD94
:10506000C5F1400007B2002E01DD002F02DC07B0C1
:10507000BDE8F08FB8F1010F02DBB8F1050F00DDDC
:10508000F5E71422274902A8FBF7CBF8A0190FFA7D
:1050900080F9E8190FFA80FA28463FE00146C31765
:1050A00000EB5373DA10C31700EB5373DB10A0EB64
:1050B000C3030193012301998B40D9B2009121468A
:1050C00028E00B1B03EBD37E4FEA6E0EA3EB4E0CD6
:1050D000431B03EBD37E4FEA6E0EA3EB4E0BA8F1FE
:1050E00001030DF1080E0EEB830303EB4B0313F8E2
:1050F0000C306BB10C4B03EBC2135B5CDDF800E0D2
:1051000023EA0E03DFF820E00EEBC21E0EF801309A
:105110004B1C19B24945D4DB411C08B25045BDDBDC
:1051200000BFA4E7487F00083813002010B50446EC
:10513000FFF7A8F802480460FCF712F810BD000061
:105140009010002008B5FCF7A9FAFCF79DFA00289A
:105150007BD0FCF7BBFA0028FAD0FFF74DF900909E
:10516000E6488078012871D1BDF8020010B1002016
:10517000E2490880E24A12689169E14A1268D069FE
:10518000FCF7F6FA0346581C00285DD0012B5ED1CF
:10519000DB480068C069B0F9000000EE100AB8EE04
:1051A000C00ABDF9020000EE900AF8EEE00AD44809
:1051B000006890ED081A00EE810ABDEEC00A10EEFC
:1051C000100A00B2CE490968C9690880CC48006855
:1051D000C069B0F9000000EE100AB8EEC00AC84875
:1051E0000068D0ED090AB4EEE00AF1EE10FA0CD234
:1051F000C348006890ED090ABDEEC00A10EE100A1F
:1052000000B2BF490968C9690880BD480068C06923
:10521000B0F9000000EE100AB8EEC00AB848006805
:10522000D0ED0A0AB4EEE00AF1EE10FA53DDB4480C
:10523000006890ED0A0ABDEEC00A10EE100A00B236
:10524000AF490968C969088045E032E147E0AC48E8
:105250000068806990ED000ABDF9020000EE900A36
:10526000F8EEE00AA648006890ED081A00EE810A00
:10527000A3480068806980ED000AA1480068806941
:1052800090ED000A9E480068D0ED090AB4EEE00AED
:10529000F1EE10FA08D29A48006890ED090A984891
:1052A0000068806980ED000A95480068806990ED8B
:1052B000000A93480068D0ED0A0AB4EEE00AF1EE65
:1052C00010FA08DD8E48006890ED0A0A8C480068E4
:1052D000806980ED000A0020ADF8000000BFBDF934
:1052E000000000283ADA002133E0864800680078A0
:1052F000F8B984480068808F28B982480068408FD8
:1053000008B1FDF7E1FD7F480068B0F93C000028D6
:1053100007DD7C480068808F401E00B2794A126821
:10532000908778480068408F401E00B2754A126826
:105330005087744800680078012809D171480068D6
:10534000408F401E00B26F4A12685087FDF7F4FD8F
:10535000491CBDF9000040428842C6DCBDF900008E
:10536000002848DD002342E066480068007870BBF2
:10537000FCF750F9401E63490968B1F93C108842B6
:105380000CD1604909680869FCF7C4F95D490968EE
:10539000B1F93A10884201D0FDF7EAFDFCF73AF97D
:1053A000401E58490968B1F93C10884207DD55484C
:1053B0000068808F401C00B25249096888875148B4
:1053C0000068408F401C00B24E49096848874D482C
:1053D00000680078012809D14A480068408F401CC5
:1053E00000B2484909684887FDF78AFD5B1CBDF992
:1053F00000009842B8DC44484078444949788842E3
:1054000018D041484078012814D13C48807810B920
:10541000FBF7CAFB0EE03A48006890ED010ADFEDA9
:105420003C0A20EE200ABDEEC00A10EE100A00B2BF
:10543000324908803448007834490978884237D0A6
:1054400031480078012833D12C48807868BBFCF7BC
:1054500095F82C48006800692A490968B1F93A10A2
:1054600001EB410100EBC100C06808B325480068AA
:10547000006924490968B1F93A1001EB410100EBD8
:10548000C100C068007808B9012000E000201D4973
:10549000096809691B4A1268B2F93A2002EB420214
:1054A00001EBC201C968087002E0002013490880BE
:1054B00000BF12488078012805D110480088401CA0
:1054C00000B20E4908800E480068A8B10B48B0F938
:1054D00000100B48006890ED010ADFED0D0A20EE88
:1054E000200ABDEEC00A10EE100A00B2814203DBB2
:1054F000002002498870088008BD00009E1000202E
:105500009410002090100020861000208A100020A7
:105510000000484210B5FDF7C9FDFDF745FD00F05C
:10552000B5FD00F0DBFD00F003F800F01DF810BD44
:1055300008B50A480088401C00B20849088008489D
:10554000007848B10846B0F9020006A306220021FF
:1055500000906E20FFF772F808BD00008010002058
:105560009B1000202533640010B500240BE00021BF
:105570002046FFF711F9054901EBC410802100F026
:1055800007F8601CC4B2082CF1DB10BD38130020F2
:1055900070B505460E4600240DE00848007818B1A5
:1055A000285D00F033F804E0295DC943C8B200F07B
:1055B0002DF8601CC4B2B442EFDB70BDEA100020CD
:1055C0004FF48001104A116049001160002115E07C
:1055D0004FF080720C4B1A6000F0800212B15A1525
:1055E0001A6003E04FF00072074B1A604FF48072AC
:1055F000054B1A604206100E4A1CD1B20829E7DB9F
:105600008021014A11607047180402404021114A6C
:10561000116049041160002115E04FF080720D4BBC
:105620001A6000F0800212B15A151A6003E04FF0C0
:105630000072084B1A604FF48072064B1A604206E3
:10564000100E4A1CD1B20829E7DB8021014A116003
:105650007047000018040240704700002DE9F04F29
:105660002DED068BADB0FE4804683022FD4921A81F
:10567000FAF7D7FD6022FC4909A8FAF7D2FD2069A4
:10568000FCF748F8089094F90A000021FCF74EF85E
:10569000054694F90A000121FCF748F80646DDE9C1
:1056A0002101CDE90601207800287DD108EE100AFD
:1056B00008EE900A94F82C0001282FD100200090C9
:1056C0009DED0C0AF0EE000A30EE200ABDEEC00A95
:1056D00010EE107A3BB29DED0B0AF0EE000A30EEB0
:1056E000200ABDEEC00A10EE107A3AB29DED0A0A09
:1056F000F7EE000A30EE600ABDEEC00A10EE107A36
:1057000039B29DED090AF7EE000A30EE600ABDEEEF
:10571000C00A10EE107A38B2FDF76AFF94F82D0037
:10572000012802D1B01C08EE100A0027CEE1DDED01
:10573000070A00EE105AB8EEC00A30EE800AB5EE45
:10574000C00AF1EE10FA08D39DED070ADFEDC70A93
:10575000B4EEE00AF1EE10FA11DD94F90A0000EE61
:10576000100AB8EEC00AC248D0ED000A30EE200A96
:10577000DDED070A30EE200A8DED070AA4E107EB04
:105780004701206950F8312031462846FBF752FA8C
:1057900080462B4606AA394620460096FBF72AFE8D
:1057A00007EB4701206900E0FBE100EBC100C068A6
:1057B00000285AD0A81C08EE900A0FF2B82907EB6F
:1057C0004701206900EBC100C0680078012802D1C0
:1057D0000FF2A42901E00FF2A429F1B2E8B29DED85
:1057E000070ABDEEC00A10EE102A12B2CDE9031965
:1057F000CDE901209DED060ADDED0B0A30EE200A11
:10580000F8EEE80A30EE600AF2EE020A30EE600AC4
:10581000BDEEC00A10EE100A00B200909DED0C0A19
:10582000BDEEC00A10EE10CA0FFA8CF39DED0B0A04
:10583000F1EE080A30EE600ABDEEC00A10EE10CAA2
:105840000FFA8CF29DED0A0ABDEEC00A10EE10CAE6
:105850000FFA8CF19DED090ABDEEC00A10EE10CAD8
:105860000FFA8CF0FEF703FF02E0002008EE900A2A
:105870009DED0D0ADDED0F0A30EE200AF1EE080A6B
:1058800030EE600AF0EE000A30EE600ADDED230A29
:1058900030EE600AF8EEC80A30EE600AF8EEE80A68
:1058A00070EE600A00EE108AB8EEC00AF4EEC00A8C
:1058B000F1EE10FA6CD29DED0F0ADDED0B0AB4EE9D
:1058C000600AF1EE10FA38D19DED0D0ADDED090AFE
:1058D000B4EE600AF1EE10FA2FD19DED100ADDED65
:1058E0000C0AB4EE600AF1EE10FA26D19DED0E0A14
:1058F000DDED0A0AB4EE600AF1EE10FA1DD107EBF5
:105900004702206900EBC20090ED050A10EE101A64
:105910000846FAF770FE41EC1A0B9FED590B53EC59
:10592000102BFAF751FD41EC190BFAF7A7FE07EB24
:105930004702216901EBC201486107EB4701206979
:1059400000EBC100D0ED050AC8F1000000EE100A1E
:10595000B8EEC00AF4EEC00AF1EE10FA18D29DEDCE
:105960000D0ADDED0F0A30EE200AF1EE080A30EEE6
:10597000600ADDED060A30EE600AF8EEC80A30EE85
:10598000600A07EB4701206900EBC10080ED050AC2
:1059900007EB4701206950F83110F0B2EAB29DEDF3
:1059A000070ABDEEC00A10EE103A1BB2CDE9013273
:1059B000CDE9030107EB4701206900EBC10090ED41
:1059C000050ADDED060AB8EEC81A70EE810A30EE5F
:1059D000200ABDEEC00A10EE100A00B200909DED44
:1059E0000B0AF1EE080A30EE600AF8EEC80A70EE13
:1059F000600ADFF86CC0DCF800C0BCF92EC000EE15
:105A000010CAB8EEC00A30EEC00AF0EE000A30EE5E
:105A1000600AF8EEE80A30EE600ABDEEC00A10EE49
:105A200010CA0FFA8CF29DED090AF8EEC80A70EE62
:105A3000200ADFF82CC0DCF800C0BCF92EC000EE54
:105A400010CAB8EEC00A30EE800ABDEEC00A10EEF1
:105A500010CA0FFA8CF09DED0C0ABDEEC00A13E0DF
:105A600090100020F0120020001200200000804260
:105A70002013002000000000A1F60000A1F50000A6
:105A8000000000000000E03F10EE10CA0FFA8CF397
:105A90009DED0A0ABDEEC00A10EE10CA0FFA8CF195
:105AA000FEF7E5FD94F90A0000EE100AB8EEC00A10
:105AB000FE48D0ED000A30EE200ADDED070A30EE98
:105AC000200A8DED070A00BF781C07B208988742AC
:105AD000FFF62DAE0120F64A009092ED000AD4EDBB
