:020000040800F2
:10000000D82A00209D010008E1400008E1390008DD
:10001000313F0008F50C0008D590000800000000F2
:10002000000000000000000000000000D583000870
:100030001315000800000000D9660008A58A000812
:10004000B7010008B7010008B7010008B7010008B0
:10005000B7010008B7010008B7010008B7010008A0
:10006000B7010008B7010008B7010008B701000890
:10007000B7010008B7010008B7010008C91300085C
:10008000B7010008B7010008B7010008B701000870
:10009000B7010008B7010008B7010008B701000860
:1000A000B7010008B7010008B7010008B701000850
:1000B000B7010008B7010008B7010008B701000840
:1000C000B7010008B7010008B7010008B701000830
:1000D000B7010008C5900008B7010008B701000883
:1000E000B7010008B7010008B7010008B701000810
:1000F000B7010008798B0008B7010008B7010008B4
:10010000B7010008B7010008B7010008B7010008EF
:10011000B7010008B7010008B7010008B7010008DF
:10012000B7010008B7010008D9130008E913000857
:10013000B7010008B7010008B7010008B7010008BF
:10014000B7010008B7010008B7010008B7010008AF
:10015000B7010008B7010008F9130008B70100084B
:10016000B7010008B7010008B7010008B70100088F
:10017000B7010008B7010008B7010008000000003F
:10018000B7010008B7010008DFF80CD000F0B6FB9B
:100190000048004753A20008D82A0020064880479C
:1001A00006480047FEE7FEE7FEE7FEE7FEE7FEE75C
:1001B000FEE7FEE7FEE7FEE7658B00088901000821
:1001C0002DE9F05F0546002092469B46884606468C
:1001D000814640241BE0284641464746224600F01F
:1001E0008EFA53465A46C01A914110D3114618460A
:1001F000224600F075FA2D1A67EB01084F46224699
:100200000120002100F06CFA17EB00094E41201E7E
:10021000A4F10104DFDC484631462A464346BDE8E6
:10022000F09F40EA01039B0703D009E008C9121FB1
:1002300008C0042AFAD203E011F8013B00F8013BA0
:10024000521EF9D27047D2B201E000F8012B491ECC
:10025000FBD270470022F6E710B513460A46044663
:100260001946FFF7F0FF204610BD10B5002200E050
:10027000521C835C8C5CA34201D1002BF8D1D8B214
:10028000E1B2401A10BD2DE9FE4F804681EA03001D
:10029000C00F0C46009021F0004123F00045B8EB60
:1002A0000200A94105D24046214690461C460B4615
:1002B000024623F00040104347D0270DC7F30A0041
:1002C000C3F30A510290401A019040286BDAC3F33D
:1002D000130040F4801B0098924620B10023D2EB1B
:1002E000030A63EB0B0B01985946C0F140025046DC
:1002F00000F0F6F906460D4650465946019A00F0C0
:100300000EFA10EB08006141002487EA115284EADA
:10031000E7731A4340D0009A62B3019A012A4FEA68
:10032000075215DC001B61EB02014FF0004202EAAC
:100330000752CDE90042001C41F5801132462B46A0
:1003400000F045FA03B0BDE8F08F40462146F9E7DA
:10035000001B61EB0201001C41F5801300185B419A
:100360002018A2F5001747EB030140EAD570B61933
:100370006D4111E06D084FEA360645EAC0754FEA57
:100380000752001B61EB0201001C41F58011490876
:100390004FEA30000019514132462B4603B0BDE808
:1003A000F04F00F005BA0098012240000023D0EB86
:1003B000020263EBE073009821464FEAE074B8EB69
:1003C000000061EB0401E9E783F000435BE781F0A3
:1003D000004158E72DE9FE4F81EA030404F0004490
:1003E00021F0004100944FF0000B23F0004350EA4D
:1003F00001045ED052EA03045BD0C3F30A54C1F394
:100400000A552C44A4F2F3340194A0FB0254C1F326
:10041000130141F48011C3F3130343F4801301FB70
:10042000024400FB034E840A970A44EA815447EAD7
:100430008357A4FB076802958D0A05FB07854FEAE1
:10044000932C04FB0C542705029D4FEA065847EAFB
:100450001637B5EB08056EEB070C870E920E47EAD0
:10046000811742EA8312A7FB0201B6EB0B0164EB92
:1004700000042B0D43EA0C335E1844EB1C50DA46A3
:100480005146E7FB0201C5F313044FEA0B3343EA7D
:1004900014534FEA0432019C43EA0603A4F10C040E
:1004A0000294009CCDE900B400F091F903B0BDE8DE
:1004B000F08F00200146F9E72DE9F04D81EA0304B1
:1004C00004F0004B21F0004514464FF0000A23F0E1
:1004D000004150EA050220D054EA01021DD0C5F3C4
:1004E0000A570246C5F31303C1F31300C1F30A56BA
:1004F00040F4801543F48013A7EB0608101BD64682
:1005000008F2FD3873EB050002D308F1010801E0A1
:1005100092185B41B8F1000F03DA00200146BDE8F4
:10052000F08D00204FF48011064684460EE0171B24
:1005300073EB050705D3121B63EB050306434CEA77
:10054000010C49084FEA300092185B4150EA01075C
:10055000EDD152EA030012D082EA040083EA0501D9
:10056000084305D0101BAB4106D20122002306E050
:1005700000224FF0004302E06FF0010253101AEB2B
:1005800006004CEB085110EB0A0041EB0B01BDE8F3
:10059000F04D00F00DB90EB5C10F80EAE0700844CF
:1005A000CA07002140F233438DE80E000A460B468D
:1005B00000F00DF903B000BD70B5C1F30A5201F0AF
:1005C00000450024C1F3130140F2FF3341F48011D0
:1005D0009A4201DA002070BD40F233439A42A2F2FF
:1005E000334203DC524200F08AF800E090402C4392
:1005F000F1D0404270BD00F0004230F000400AD01F
:10060000C10D01F56071C0F3160042EA0151C20844
:1006100040071143704700200146704730B5041E63
:1006200071F1000404DB4FF00044404264EB01012F
:10063000141E73F1000405DB1C464FF000435242C8
:1006400063EB04038B4208BF824230BD30B5041E09
:1006500071F1000404DB4FF00044404264EB0101FF
:10066000141E73F1000405DB1C464FF00043524298
:1006700063EB0403994208BF904230BD01F0004390
:1006800030B421F0004150EA010206D00A0DA2F573
:100690006072C1F31301002A02DC30BC00207047F5
:1006A000440F44EAC104C100E01830BC00EBC25062
:1006B00000F047B830B50B46014600202022012447
:1006C00009E021FA02F59D4205D303FA02F5491B20
:1006D00004FA02F52844151EA2F10102F1DC30BD36
:1006E000202A04DB203A00FA02F1002070479140F2
:1006F000C2F1200320FA03F3194390407047202AE7
:1007000004DB203A21FA02F00021704721FA02F3BB
:10071000D040C2F120029140084319467047202A78
:1007200006DBCB17203A41FA02F043EAE07306E019
:1007300041FA02F3D040C2F1200291400843194629
:1007400070470029A8BF7047401C490008BF20F02F
:100750000100704710B4B0FA80FC00FA0CF050EAC7
:10076000010404BF10BC704749B1CCF1200421FA48
:1007700004F411FA0CF118BF012121430843A3EB43
:100780000C01CB1D4FEA00614FEA102042BF002050
:1007900010BC704700EBC35010440029A4BF10BC2C
:1007A0007047401C490008BF20F0010010BC704792
:1007B00010B5141E73F1000408DA401C41F1000169
:1007C00092185B411A4301D120F0010010BD2DE9C0
:1007D000F04D92469B4611B1B1FA81F202E0B0FAB7
:1007E00080F220329046FFF77BFF04460F4640EA36
:1007F0000A0041EA0B0153465A46084313D01146FA
:1008000053EA010019D0C8F140025046FFF777FFC4
:1008100005460E46504659464246FFF761FF0843DB
:1008200005D0012004E020463946BDE8F08D0020C7
:10083000054346EAE0762C4337430A986305E40A09
:10084000A0EB08000022FD0A44EA47540A3002D512
:1008500000200146E9E7010510196941DDE9084575
:1008600000196941BDE8F04DA2E7C1F30A52C1F396
:10087000130140F2FF3341F480119A4202DA002062
:100880000146704740F233439A42A2F2334202DCFF
:100890005242FFF734BFFFF723BF70B5044601F0A3
:1008A00000450020054304D14FF00045644265EB4C
:1008B000010103F00045284305D118464FF00043DD
:1008C000524263EB0003101B73EB010002D24FF0A6
:1008D000004009E082EA040283EA01034FF000507D
:1008E0001A4301D14FF0C0404FEA2062EFF300817C
:1008F00062F31F6181F3008870BD0000064C074D54
:1009000006E0E06840F0010394E8070098471034DF
:10091000AC42F6D3FFF73CFC6409010884090108E6
:1009200070B58C1810F8015B15F0070301D110F8B1
:10093000013B2A1106D110F8012B03E010F8016BDE
:1009400001F8016B5B1EF9D12B0705D40023521E61
:100950000DD401F8013BFAE710F8013BCB1A921CC9
:1009600003E013F8015B01F8015B521EF9D5A142C7
:10097000D8D3002070BD000000B52DED048B85B0EC
:100980009FED390A394880ED020A9FED390A80ED62
:10099000030A00F08DFB374880210023CDE90131A7
:1009A000324A0093CDE9031092ED010ABDEEC00A70
:1009B00010EE102A11B22D4A92ED000ABDEEC00AC7
:1009C00010EE102A10B24023202205F0F1F92A4837
:1009D00090ED000AD0ED020A30EE600A10EE101A17
:1009E0000846FFF708FE41EC190BB0EE490AF0EE9D
:1009F000690A08F0BDFEB0EE408AF0EE608A9FED15
:100A00001F0B53EC102B51EC180BFFF707FE08D20D
:100A10009FED1C0A1C4880ED020A9FED130A80ED31
:100A2000030A194800F044FB184880210023CDE94F
:100A30000131154A0093CDE9031092ED010ABDEE94
:100A4000C00A10EE102A11B20F4A92ED000ABDEE54
:100A5000C00A10EE102A10B24023102205F0A8F9A7
:100A600005B0BDEC048B00BD000000001411002097
:100A70000000A0C2D8030108F4120020000000000A
:100A8000000010400000DC427411002088020108C0
:100A900000B52DED048B85B09FED390A394880ED06
:100AA000020A9FED390A80ED030A00F001FB374886
:100AB00080210023CDE90131324A0093CDE90310B2
:100AC00092ED010ABDEEC00A10EE102A11B22D4AB5
:100AD00092ED000ABDEEC00A10EE102A10B24023BB
:100AE000202205F065F92A4890ED000AD0ED020AAF
:100AF00030EE600A10EE101A0846FFF77CFD41EC5C
:100B0000190BB0EE490AF0EE690A08F031FEB0EEBA
:100B1000408AF0EE608A9FED1F0B53EC102B51ECD6
:100B2000180BFFF77BFD08D29FED1C0A1C4880EDD7
:100B3000020A9FED130A80ED030A194800F0B8FA83
:100B4000184880210023CDE90131154A0093CDE9F1
:100B5000031092ED010ABDEEC00A10EE102A11B288
:100B60000F4A92ED000ABDEEC00A10EE102A10B234
:100B700040231A2205F01CF905B0BDEC048B00BD22
:100B800000000000141100200000A0C2D8030108DA
:100B9000F412002000000000000010400000CC42D1
:100BA000441100200803010810B5044621460248FC
:100BB00001F0D4FF10BD0000E417002010B5044878
:100BC00001F0DFFF042801D0012010BD0020FCE768
:100BD000E417002010B5002400F014F8012801D01B
:100BE000012010BD064801F0DEFF044634B94FF481
:100BF0000061034801F068FE00B101242046F0E7DF
:100C0000E417002008B5012000909DF8000008BD01
:100C10002DE9F04104460D461646002733462A4684
:100C20002146044802F0CAF800B101273846BDE861
:100C3000F0810000E417002001200149086070479E
:100C4000081100202DE9F04104460D461646002704
:100C500033462A462146044802F05EF900B10127D6
:100C60003846BDE8F0810000E417002010B50448C4
:100C70000068C06810B1022007F0DEFB10BD000064
:100C80009010002010B5024805F0C4F910BD000016
:100C900008000020C161094A02620022027042700D
:100CA00042608260C2600274002343748374C27421
:100CB000426102760A2280F824207047F11F000862
:100CC00000B506490648FFF7E5FF06490648FFF765
:100CD000E1FF06490648FFF7DDFF00BD691800087F
:100CE0006C17002079180008941700208918000854
:100CF000BC17002000BFFEE70FB4F0B5A1B0064658
:100D00000F46002529A80090802101A8009B289A61
:100D100008F0E2F90020009001AC0AE0207800F031
:100D2000800018B1A81905B2A41C02E0E81905B2A8
:100D3000641C20780028F1D1284621B0F0BC5DF871
:100D400014FB1CB5044604F1500004F1400104F109
:100D5000300304F12002CDE900103039204600F0C4
:100D600039F804F1540104F1440004F1340304F1AE
:100D70002402CDE900014039201D00F02BF804F1D8
:100D8000580104F1480004F1380304F12802CDE9C8
:100D900000014039403800F01DF804F15C0104F115
:100DA0004C0004F13C0304F12C02CDE90001403970
:100DB000403800F00FF81CBD1CB5044604F11400C7
:100DC000011F0B1F1A1FCDE90010211D204600F046
:100DD00001F81CBD2DE9F0472DED0C8B04460E46A5
:100DE00015461F46DDE91489A6480068407A0028A8
:100DF0007DD194ED000AD6ED000AB4EE600AF1EE62
:100E000010FA03D1BDEC0C8BBDE8F0879D4800685B
:100E100090ED010AB5EEC00AF1EE10FA0CD89FED84
:100E20009A0A85ED000A9FED980A87ED000A96ED73
:100E3000000A84ED000AE5E795ED000A87ED000A57
:100E400096ED000AD4ED000A30EE600A85ED000A46
:100E500095ED000A10EE101A0846FFF7CCFB41ECA6
:100E60001B0B8848006890ED010A10EE101A084626
:100E7000FFF7C1FB41EC1D0B9FED840B53EC102BD6
:100E8000FFF7A8FA41EC1C0B53EC1B2BFFF7A2FA5F
:100E900041EC190B94ED000A10EE101A0846FFF70A
:100EA000AAFB41EC1A0B53EC192BFFF7ECF941ECC0
:100EB000180BFFF7E3FB20607248006890ED010A11
:100EC000F3EE040A80EE201A11EE10AA5046FFF746
:100ED00092FB41EC180B94ED000AD6ED000A30EEBF
:100EE000600A10EE101A0846FFF785FB00E01FE0CD
:100EF00041EC1A0BB0EE4A0AF0EE6A0A08F038FC30
:100F0000B0EE409AF0EE609A53EC182B51EC190BAE
:100F1000FFF784FB0CD29FED5C0A85ED000A9FED84
:100F20005A0A87ED000A96ED000A84ED000A69E787
:100F300054480068407A01287ED15248006890EDFC
:100F4000010AB5EEC00AF1EE10FA14D89FED4E0A70
:100F500085ED000A9FED4C0A87ED000A9FED4A0AD5
:100F600089ED000A9FED480A88ED000A96ED000A17
:100F700084ED000A46E74348006890ED010ADFED82
:100F8000450A20EE208A3F48006890ED010ADFED17
:100F9000420A60EE208A9FED419A95ED000A87EDA6
:100FA000000A96ED000AD4ED000A30EE600A85EDE5
:100FB000000A98ED000AD5ED000A30EE200A88ED0F
:100FC000000A95ED000AD7ED000A30EE600A10EE37
:100FD000101A0846FFF70FFB41EC1B0B9FED300B7F
:100FE00053EC102BFFF768FA41EC1A0BFFF746FBA6
:100FF000C9F8000095ED000A20EE080AD8ED000AB5
:1010000008EEA00AD9ED000A09EE200AD4ED000A84
:1010100030EE200A84ED000A96ED000AD4ED000AB5
:1010200030EE600A10EE101A0846FFF7E4FA41ECC1
:101030001B0BB0EE4B0A00E022E0F0EE6B0A08F06A
:1010400097FBB0EE40AAF0EE60AA9FED170B53ECB1
:10105000102B51EC1A0BFFF7E1FA10D29FED0A0AA0
:1010600085ED000A9FED080A87ED000A9FED060A4C
:1010700089ED000A96ED000A84ED000AC2E600BF81
:1010800000BFBFE690100020000000007B14AE47B8
:10109000E17A943F0AD7A33C0AD7A33B6F12033BE4
:1010A0009A9999999999B93F000000000000E03F92
:1010B0001CB5044604F1280004F1200104F11803D2
:1010C00004F11002CDE9001018392046FFF782FE26
:1010D00004F12C0104F1240004F11C0304F11402B6
:1010E000CDE900012039201DFFF774FE1CBD000072
:1010F00000B5474800680078E8BB4648D0ED000AD4
:1011000043480068B0F92E0000EE100AB8EEC00A9D
:1011100030EE800ADFED400A30EE600A3F4880ED95
:10112000000A3B48006890ED110A3C4880ED010A36
:101130003748006890ED100A384880ED020A3448BC
:10114000006890ED110A354880ED030A30480068C8
:10115000B0F9140000EE100AB8EEC00A304880ED75
:10116000000A2B480068B0F9140000EE100AB8EE2F
:10117000C00A2B4800E001E080ED010A2448006825
:101180000078012841D122480068D0ED100A20489B
:101190000068B0F9360000EE100AB8EEC00A30EE72
:1011A000800A1E4880ED000A19480068B0F938002E
:1011B000C0F1FF3000EE100AB8EEC00A174880ED0B
:1011C000010A1348006890ED100A144880ED020AE5
:1011D0000F48006890ED110A104880ED030A0C4892
:1011E0000068B0F9140000EE100AB8EEC00A0C480E
:1011F00080ED000A06480068B0F9140000EE100AFD
:10120000B8EEC00A064880ED010A07F01FF900BDDC
:10121000901000200412002000000043F41200206F
:101220002413002000B5624800680078002878D1B7
:101230006048D0ED000A5E480068B0F92E0000EE6C
:10124000100AB8EEC00A30EE800ADFED5B0A30EE1D
:10125000200A5A4880ED000A5648D0ED010A544849
:101260000068B0F9300000EE100AB8EEC00A30EEA7
:10127000800A524880ED010A4D480068D0ED070A07
:101280004B480068B0F92E0000EE100AB8EEC00A14
:1012900030EE800A494880ED020A45480068D0EDEA
:1012A000080A43480068B0F9300000EE100AB8EEB2
:1012B000C00A30EE800A414880ED030A3C480068CD
:1012C00090ED070A3B4880ED040A3948006890ED2C
:1012D000080A384880ED050A3548006890ED090A8B
:1012E000344880ED060A3248006890ED0A0A314819
:1012F00080ED070AB8EE080A314880ED000A2C4854
:101300000068B0F9140000EE100AB8EEC00A2C48CC
:1013100080ED010A002026490968488724490968A8
:10132000888723480068007801283ED1204A126847
:10133000B2F9321001EBD17252101D4B1B68B3F998
:10134000360000EBD073A2EB630200EE102AB8EE79
:10135000C00A1A4A82ED020AB1EE080A104680ED70
:10136000030A9FED180A80ED000A11480068B0F9E1
:101370003600404200EE100AB8EEC00A104680ED7A
:10138000010AB7EE000A0E4880ED000A084800681E
:10139000B0F9140000EE100AB8EEC00A084880ED5B
:1013A000010A002002490968488707F04FF800BD8C
:1013B000901000200412002000000043F4120020CE
:1013C00024130020000048C210B5024800F014FBAE
:1013D00010BD00002019002010B5024800F00CFBE1
:1013E00010BD00000C1A002010B5024800F004FBEC
:1013F00010BD00006818002010B5024800F0FCFA8B
:1014000010BD00006C1A002001460878103818231F
:10141000B0FBF3F20848805CC865032A05D9086868
:101420006FF30900001D886503E008686FF3090089
:101430008865886D70470000D804010801460020C7
:101440008A6A8B69CBB932B1012A0DD0022A03D046
:10145000032A10D10EE000BFCB6A03F08073B3F112
:10146000807F00D1012007E0CB6AB3F1C07F00D1BB
:10147000012001E000E000BF34E08B69B3F5005FBC
:101480001AD132B1012A07D0022A03D0032A11D17E
:101490000AE000BF01200EE0CB6A03F08073B3F1D5
:1014A000807F00D1012006E0CB6AB3F1C07F00D17C
:1014B000012000E000BF15E032B1012A05D0022A68
:1014C00004D0032A0CD103E000BF00BF012008E0D4
:1014D000CB6A03F08073B3F1807F00D1012000E07C
:1014E00000BF00BF704730B50468246824F480242E
:1014F00005682C60046863608468402C04D104682B
:10150000A2600468E16003E00468A1600468E2602E
:1015100030BD70472DE9F04385B005460C461646B0
:101520001F46DDF8308095F82D0001287ED10FF29E
:1015300038194E480068006904EB440100EBC10013
:10154000806880B104EB4401286900EBC100406869
:1015500048B904EB4401286900EBC100C06810B928
:101560000FF20C1935E041480068006904EB4401B2
:1015700000EBC100806880B904EB4401286900EBEE
:10158000C100406848B104EB4401286900EBC10088
:10159000C06810B90FF2DC091BE03448006800692C
:1015A00004EB440100EBC100806880B904EB440106
:1015B000286900EBC100406848B904EB4401286980
:1015C00000EBC100C06810B10FF2AC0901E00FF2EE
:1015D000AC0908F0FF01F8B296ED010ABDEEC00AB1
:1015E00010EE102A12B2CDE90319CDE9012096EDD3
:1015F000000ABDEEC00A10EE100A00B2DFF880C08B
:1016000000909CED030ABDEEC00A10EE10CA0FFA5E
:101610008CF3DFF86CC09CED020AF1EE080A30EEA4
:10162000600ABDEEC00A10EE10CA00E018E00FFA22
:101630008CF2DFF84CC09CED010ABDEEC00A10EE42
:1016400010CA0FFA8CF1DFF838C09CED000ABDEE2D
:10165000C00A10EE10CA0FFA8CF004F048F800BF70
:1016600005B0BDE8F08300000000000090100020ED
:101670003E0000007E0000002A0000002D00000057
:101680000412002010B5024804F0C4FC10BD000094
:1016900040000020704770470020704710B51D487B
:1016A000006800691B490968B1F93A1001EB410172
:1016B00000EBC100406870B1164800680069154928
:1016C0000968B1F93A1001EB410100EBC1008068F3
:1016D00008B906F0A7FE0F48006800690D490968BF
:1016E000B1F93A1001EB410100EBC100806878B11B
:1016F00008480068006907490968B1F93A1001EB28
:10170000410100EBC100406810B9012006F094FED1
:1017100010BD00009010002072B600BFFEE730B58B
:1017200004460D4600222946204600F001F830BD4F
:10173000F0B50346012500241148407A01281CDA3F
:1017400000200F4E767A0E4FB8553846467A001D67
:1017500040F82630001F467A083082553E46707A9F
:10176000461C7E72044604F1300008703A2048702E
:101770002F2088700020C87000252846F0BD00008A
:10178000CC1A00200146B1F90200704701464878A2
:101790007047418070474170704700001A480068E8
:1017A000D0ED0A0A18480068B0F9300000EE100ABF
:1017B000B8EEC00A30EEC00A1448D0ED010A30EE8F
:1017C000200AF7EE000A30EE600ABDEEC00A10EE05
:1017D000100A00B200EE100AF8EEC00A0B4890EDB5
:1017E000011A0948006890F90A0000EE100AB8EEE4
:1017F000C00A31EE000A80EE801ABDEEC10A10EE7A
:10180000100A00B27047000090100020241300203E
:101810000348007808B9012070470020FCE7000069
:10182000981000200A48B0F90400312806DA084868
:101830008088401C00B20649888007E000200449E7
:101840008880084600884880002008807047000093
:10185000801000200348007808B90120704700205C
:10186000FCE700009910002010B54021014800F06D
:10187000B1FB10BD0014024010B58021014800F0FA
:10188000A9FB10BD0014024010B54FF4807102484E
:1018900000F0A0FB10BD0000001402400146002033
:1018A00001E0421C10B200EB400251F83220002A45
:1018B000F7D1704710B503460C46082B06D00C2B09
:1018C00007D0102B08D0142B0CD108E008210622D9
:1018D0000BE00C21072208E01021082205E014216A
:1018E0000A2202E00C21072200BF00BF0CB9084603
:1018F00010BD1046FCE7000002460748006810B91A
:101900004FF0FF3070470AB10120FBE709B100201A
:10191000F8E74FF0FF30F5E79410002070B504466B
:10192000A56D00F065FB064694F83500022808D046
:101930008020606500BF002084F8340000BF0120D3
:1019400070BD2068006820F01600216808602068DB
:10195000406920F0800021684861206C08B9A06CC3
:1019600028B12068006820F008002168086020681D
:10197000006820F001002168086010E000F038FBEA
:10198000801B05280BD920206065032084F83500D2
:1019900000BF002084F8340000BF0320D0E7206897
:1019A000006800F001000028E8D194F85C103F20A6
:1019B0008840A860012084F8350000BF002084F82A
:1019C000340000BF00BFBBE7014691F83500022894
:1019D00003D08020486501207047052081F835003C
:1019E0000868006820F001000A6810600020F3E732
:1019F0000146486D70470000F8B50446002000908D
:101A00008C4800684FF41651B0FBF1F7A56D2E68B5
:101A100094F85C1008208840304098B12068006835
:101A200000F0040070B12068006820F00400216814
:101A3000086094F85C1008208840A860606D40F051
:101A40000100606594F85C1001208840304068B166
:101A50002068406900F0800040B194F85C100120DB
:101A60008840A860606D40F00200606594F85C10EA
:101A700004208840304068B12068006800F002000F
:101A800040B194F85C1004208840A860606D40F07C
:101A90000400606594F85C1010208840304078B3F2
:101AA0002068006800F0080050B394F85C10102023
:101AB0008840A8602068006800F4802080B1206819
:101AC000006800F4002028B9206CC8B12046216CC1
:101AD000884715E0A06C98B12046A16C88470FE0BC
:101AE0002068006800F4807028B92068006820F041
:101AF000080021680860206C10B12046216C8847DE
:101B000094F85C10202088403040002865D0206880
:101B1000006800F0100000285FD094F85C102020CE
:101B20008840A86094F83500052828D1206800680E
:101B300020F01600216808602068406920F08000CD
:101B400021684861206C08B9A06C28B12068006841
:101B500020F008002168086094F85C103F2088405D
:101B6000A860012084F8350000BF002084F834000C
:101B700000BF206D10B12046216D8847F8BD206858
:101B8000006800F4802080B12068006800F4002024
:101B900028B9606C10B12046616C88471DE0E06B8D
:101BA000D8B12046E16B884717E02068006800F450
:101BB000807068B92068006820F010002168086013
:101BC000012084F8350000BF002084F8340000BFF5
:101BD000E06B10B12046E16B8847606D38B3606DF3
:101BE00000F00100F0B1052084F83500206800689D
:101BF00020F001002168086000BF0098401C0090A0
:101C0000B84200D905E02068006800F00100002813
:101C1000F3D100BF012084F8350000BF002084F814
:101C2000340000BFE06C10B12046E16C884700BF73
:101C3000A4E70000FC1000202DE9F0410446002537
:101C400000F0D6F9074614B90120BDE8F081606ABA
:101C500000B100BF022084F8350000BF002084F8E6
:101C6000340000BF2068006820F00100216808608F
:101C70000AE000F0BDF9C01B052805D920206065E9
:101C8000032084F83500E0E72068006800F00100D8
:101C90000028EED12068056821480540D4E90101FB
:101CA0000843E16808432169084361690843A16961
:101CB0000843E1690843216A08430543606A042830
:101CC00003D1D4E90B01084305432068056020686F
:101CD000456925F00705606A0543606A04280DD14F
:101CE000A06A0543E06A48B12046FFF7A7FB28B188
:101CF00040206065012084F83500A6E72068456132
:101D00002046FFF781FB064694F85C103F20884090
:101D1000B06000206065012084F83500002094E761
:101D20003F8010F02DE9F04704460D4616461F4649
:101D30004FF00008D4F8589000BF94F83400012800
:101D400002D10220BDE8F087012084F8340000BFF2
:101D500094F83500012825D1022084F835000020B0
:101D600060653B46324629462046FFF7BCFB94F8A7
:101D70005C103F208840C9F808002068006840F0E7
:101D8000160021680860206C28B12068006840F0C7
:101D90000800216808602068006840F001002168A0
:101DA000086006E000BF002084F8340000BF4FF058
:101DB00002084046C6E7000070B5044600F018F976
:101DC00006462546681C10B104480078054400BF4B
:101DD00000F00EF9801BA842FAD370BDF810002065
:101DE000F8B502460B460025002400200021D6E06D
:101DF000012606FA01F51E6806EA0504AC4274D114
:101E00001E7906F00306012E04D01E7906F00306A3
:101E1000022E13D190684F000326BE40B0434F00FE
:101E2000DE68BE4030439060506801268E40B0436B
:101E30001E79C6F300168E40304350601E7906F0BE
:101E40000306032E09D0D0684F000326BE40B043DE
:101E50004F009E68BE403043D0601E7906F00306F6
:101E6000022E13D1CF0802F1200656F827004E07A4
:101E7000F70E0F26BE40B0434F07FF0E1E69BE404F
:101E80003043CF0802F1200646F8270010684F00C3
:101E90000326BE40B0431E7906F003064F00BE4045
:101EA000304310605E6806F44036002E76D000BFE6
:101EB000002600963C4E366846F480463A4F3E6017
:101EC0003E46366806F48046009600BF00BF374E97
:101ED0008F0856F827008E07370F0F26BE40B043F5
:101EE000334EB24202D1002624E057E0314EB242D6
:101EF00001D101261EE0304EB24201D1022619E086
:101F00002E4EB24201D1032614E02D4EB24201D131
:101F100004260FE02B4EB24201D105260AE02A4EDC
:101F2000B24201D1062605E0284EB24201D1072671
:101F300000E008268F073F0FBE4030431B4E8F083E
:101F400046F82700224E3068A0435E6806F48016EB
:101F500006B120431E4E3060361D3068A0435E68D7
:101F600006F4001606B12043194E361D3060184E97
:101F7000361F3068A0435E6806F4003606B1204381
:101F8000134E361F3060361F3068A0435E6806F47B
:101F9000803606B120430E4E083E3060491C1029A1
:101FA000FFF426AFF8BD0000443802400838014075
:101FB000000002400004024000080240000C024001
:101FC000001002400014024000180240001C0240B1
:101FD000083C0140024613690B400BB1012000E0B0
:101FE000002070470AB1816101E00B0483617047F2
:101FF0000148006870470000F010002003480068A6
:10200000034909780844014908607047F01000202E
:10201000F810002010B50D48006840F400700B491E
:1020200008600846006840F4806008600846006860
:1020300040F480700860032000F0A2F80F2000F048
:1020400007F800F02BF8002010BD0000003C024013
:1020500070B504460E4800784FF47A71B1FBF0F089
:102060000C490968B1FBF0F5284601F0CBF808B13E
:10207000012070BD102C07D200222146501E00F016
:1020800041F80548046001E00120F2E70020F0E794
:10209000F8100020FC100020F410002008B500BF4C
:1020A000002000900E48006840F480400C49086011
:1020B0000846006800F48040009000BF00BF00BFE9
:1020C00000200090081F006840F08050091F086041
:1020D0000846006800F08050009000BF00BF08BDB7
:1020E0004438024001460846002809DB00F01F037F
:1020F00001229A4043099B0003F1E023C3F8002129
:1021000000BF70472DE9F05F80460D461646002758
:1021100007F022F8074639462A46334601F0070001
:10212000C0F1070ABAF1040F02D94FF0040A01E026
:10213000C0F1070AD14600F1040ABAF1070F02D232
:102140004FF0000A01E0A0F1030AD4464FF0010A63
:102150000AFA09FAAAF1010A0AEA020A0AFA0CFAC8
:102160004FF0010B0BFA0CFBABF1010B0BEA030B6D
:102170004AEA0B042146404606F0F6FFBDE8F09F10
:1021800000BF00F00702064B19684FF6FF03194025
:10219000044B0B4343EA0221014B196000BF704717
:1021A0000CED00E00000FA0570B504460D460CB9D0
:1021B000012070BD5848006800F00700A84209D20D
:1021C00055490D700846006800F00700A84201D08C
:1021D0000120EEE7207800F0020002281DD12078CF
:1021E00000F00400042805D14C48006840F4E05099
:1021F0004A490860207800F00800082805D14748BF
:10220000006840F46040454908604448006820F098
:10221000F000A168084341490860207800F00100FF
:10222000A8B36068012807D13C4808380068C0F3AB
:102230004040B8B90120BCE76068022802D060685D
:10224000032807D1354808380068C0F3406048B912
:102250000120AEE7314808380068C0F3400008B9F3
:102260000120A6E72D48006820F0030061680843BC
:102270002A490860FFF7BCFE064609E0FFF7B8FEF2
:10228000801B41F28831884202D9032091E707E0A0
:102290002248006800F00C006168B0EB810FEDD1BE
:1022A0001D48006800F00700A84209D91A490D70BE
:1022B0000846006800F00700A84201D0012078E736
:1022C000207800F00400042807D11448006820F4A6
:1022D000E050E168084311490860207800F00800E8
:1022E000082808D10D48006820F46040216940EAC0
:1022F000C1000A49086000F03FF808490968C1F3C5
:102300000311074A515CC840064908600648006846
:10231000FFF79EFE00204CE7003C024008380240D8
:10232000E0040108FC100020F410002001480068BF
:1023300070470000FC10002000B5FFF7F7FF0449CC
:102340000968C1F38221034A515CC84000BD000006
:1023500008380240F004010800B5FFF7E7FF044920
:102360000968C1F34231034A515CC84000BD000016
:1023700008380240F00401082DE9F0470024002548
:102380000026A1462548006800F00C0020B1042872
:1023900005D008283AD105E0DFF8849039E0DFF86D
:1023A000849036E01D48001F006800F03F041B4881
:1023B000001F006800F4800078B11A481749091F0F
:1023C0000968C1F38811A0FB017001462246002371
:1023D0003846FDF7F5FE05460EE011480F49091F86
:1023E0000968C1F38811A0FB017001462246002351
:1023F0003846FDF7E5FE05460848001F0068C0F3B3
:102400000140401C4600B5FBF6F902E0DFF81090F1
:1024100000BF00BF4846BDE8F08700000838024012
:102420000024F40000127A00F8B504460CB901202B
:10243000F8BD207800F00100002876D0FA48006846
:1024400000F00C0004280DD0F748006800F00C00E4
:10245000082813D1F448001F006800F48000B0F58C
:10246000800F0BD1F04808380068C0F340400028C6
:102470005BD06068002858D10120D9E700BF6068B0
:10248000B0F5803F08D1E8480838006840F4803053
:10249000E549083908601EE06068B0F5A02F0DD14D
:1024A000E1480838006840F48020DF4908390860B6
:1024B0000846006840F4803008600CE0DA480838CC
:1024C000006820F48030D849083908600846006860
:1024D00020F48020086000BF606898B1FFF788FD95
:1024E000054607E0FFF784FD401BB0F57A7F01D970
:1024F00003209DE7CC4808380068C0F3404000281E
:10250000F0D012E0FFF774FD054607E0FFF770FD1D
:10251000401BB0F57A7F01D9032089E7C24808380B
:102520000068C0F340400028F0D1207800F002009D
:1025300002285FD1BC48006800F00C0058B1BA48CE
:10254000006800F00C0008281CD1B748001F006884
:1025500000F48000B0B9B44808380068C0F3400007
:1025600020B1E068012801D0012061E7AE480838B9
:10257000006820F0F800216940EAC100AA49083942
:10258000086037E0E06800B30120A8490860FFF761
:102590002FFD054606E0FFF72BFD401B022801D961
:1025A000032045E7A04808380068C0F34000002831
:1025B000F1D09D480838006820F0F800216940EA11
:1025C000C10099490839086014E000209749086063
:1025D000FFF70EFD054606E0FFF70AFD401B022847
:1025E00001D9032024E7904808380068C0F3400070
:1025F0000028F1D1207800F0080008282CD160696B
:10260000A8B101208A490860FFF7F2FC054606E000
:10261000FFF7EEFC401B022801D9032008E782489F
:102620006C300068C0F340000028F1D014E00020B6
:102630007F490860FFF7DCFC054606E0FFF7D8FCA1
:10264000401B022801D90320F2E677486C3000686D
:10265000C0F340000028F1D1207800F004000428E5
:1026600070D1002770483830006800F0805090B971
:1026700000BF002000906C483830006840F0805067
:102680006949383108600846006800F080500090C1
:1026900000BF00BF01276748006800F48070B0B930
:1026A0006448006840F4807062490860FFF7A0FC4D
:1026B000054606E0FFF79CFC401B022801D90320D9
:1026C000B6E65C48006800F480700028F2D000BFD5
:1026D000A068012808D154486830006840F0010023
:1026E0005149683108601DE0A06805280DD14E48A9
:1026F0006830006840F004004B49683108600846C3
:10270000006840F0010008600CE04748683000684D
:1027100020F001004449683108600846006820F054
:102720000400086000BFA068A8B1FFF761FC05467F
:1027300009E0FFF75DFC401B41F28831884202D975
:10274000032075E626E0384868300068C0F3400092
:102750000028EED013E0FFF74BFC054608E0FFF73A
:1027600047FC401B41F28831884201D903205FE6D3
:102770002D4868300068C0F340000028EFD1012FD9
:1027800007D129483830006820F080502649383178
:10279000086000BFA069002845D02348006800F009
:1027A0000C0008285DD0A069022845D100201F49EF
:1027B0000866FFF71DFC054606E0FFF719FC401B05
:1027C000022801D9032033E6174808380068C0F30F
:1027D00040600028F1D1D4E907010843616A40EA6A
:1027E00081110122A06AC2EB500041EA00412C2075
:1027F000005D41EA00600C49091F086001200B4997
:102800000866FFF7F5FB054606E0FFF7F1FB401B06
:10281000022801D903200BE6034808380068C0F3FA
:1028200040600028F1D049E00838024000004742EB
:10283000800E474200700040002021490866FFF7E3
:10284000D7FB054606E0FFF7D3FB401B022801D962
:102850000320EDE51B480068C0F340600028F2D17A
:102860002CE0A069012800D1E2E51648001D0668A9
:10287000A069012820D006F48001E06981421BD1C3
:1028800006F03F01206A814216D147F6C070304001
:10289000616AB0EB811F0FD106F440310122A06ABA
:1028A000C2EB5000B1EB004F06D106F070612C2056
:1028B000005DB1EB006F01D00120B9E50020B7E564
:1028C0000000474200380240F0B589B004460E4689
:1028D0000027032084F83400606C032820D0B6F56C
:1028E000805F04D1A06B40F08050A0631CE0B6F57F
:1028F000006F07D1204605F05DFC0546A06B28431C
:10290000A06311E03EB9204605F020FC0546A06B0F
:102910002843A06308E0A06B40F00060A06303E0E0
:10292000A06B40F08050A063A06B38B117482168BD
:102930008863012084F83400012713E06068039065
:10294000A0680490E0680590069660690790A06909
:10295000089006A807C88DE80700206803A90EC9DB
:1029600004F0D3FD4FF40071206804F03FFE0546EB
:1029700035B1064821688863A06B2843A06301270E
:10298000012084F83400384609B0F0BDFF0540004E
:102990007047000010B50246506E800F0870506EF0
:1029A000C0F383604870506EC0F301608870506E51
:1029B000000CC870B2F86400000A087192F8640054
:1029C0004871906E000DC880906EC0F3034008728D
:1029D0006820805AC0F3C03048726820805AC0F323
:1029E000803088726820805AC0F34030C8726820F6
:1029F000805AC0F30030087300204873506C0028E0
:102A000036D16820805A8005030DD06E43EA90705D
:102A10000861D06EC0F3C2600875D06EC0F302606A
:102A20004875D06EC0F342508875D06EC0F38240B6
:102A3000C875D06EC0F3C23008760869401C506576
:102A40000B7E506D03F007039B1C01249C406043E8
:102A50005065087A00F00F03012098409065D2E994
:102A600015035B0A5843D0654FF40073136621E0E9
:102A7000506C012813D16820805C8006830AD06ED8
:102A800043EA104008610869401C83025365536D96
:102A9000D3654FF400739365936D13660AE02E4877
:102AA00013689863906B40F080509063012082F827
:102AB000340010BD6C20805AC0F3803001F8190F2B
:102AC0006C20805AC0F3C61048706C20805C00F007
:102AD0007F008870106FC00FC870106FC0F3417016
:102AE0000871106FC0F382604871106FC0F383509B
:102AF0008871106FC0F34050C87100200872106FC9
:102B0000C0F3004048727020805AC0F3C030887211
:102B10007020805AC0F38030C8727020805AC0F391
:102B2000403008737020805AC0F300304873702022
:102B3000805AC0F3812088737020805AC0F301202E
:102B4000C8737020805CC0F346000874012048748C
:102B500019390020ADE70000FF0540000246506C27
:102B60000860906C4860D06C8860106DC860506DD3
:102B70000861906D4861D06D8861106EC861002059
:102B80007047F8B50446002000906946204605F0DD
:102B9000C5FA054615B1A06B2843A0630098C0F3A1
:102BA00043263046F8BD10B504460CB9012010BDCF
:102BB00094F8340020B900202077204600F06AF80D
:102BC000032084F83400204600F00CF808B10120FE
:102BD000EDE70020A0632063012084F8340000208A
:102BE000E5E7000070B58AB0044600200490059027
:102BF0000690079008907620099007A807C88DE8EE
:102C00000700206804A90EC904F07FFC064616B12F
:102C100001200AB070BD00201C490860206804F043
:102C20008EFC01201949A039C1F8A0000220FFF74D
:102C3000C3F8204605F00CFA05463DB1012084F8A2
:102C40003400A06B2843A0630120E2E7204605F092
:102C50007DF905463DB1012084F83400A06B28437E
:102C6000A0630120D5E74FF40071206804F0BEFC9A
:102C700005464DB1064821688863A06B2843A063D0
:102C8000012084F83400C4E70020C2E7A080254278
:102C9000FF05400010B586B00446142101A8FDF7D9
:102CA000D9FA40492068884279D100BF00200090BD
:102CB0003D48006840F400603B49086008460068F1
:102CC00000F40060009000BF00BF00BF0020009033
:102CD00035481438006840F004003349143908605E
:102CE0000846006800F00400009000BF00BF00BF6D
:102CF000002000900846006840F008000860084680
:102D0000006800F00800009000BF00BF4FF4F850CA
:102D100001900220029000200390032004900C20D8
:102D2000059001A92148FFF75BF8042001900220DB
:102D3000029000200390032004900C20059001A92C
:102D40001B48FFF74DF81B481B4908604FF0006017
:102D50004860002118488160C1604FF480610161C2
:102D600089004161890081612021C16100210162E6
:102D700004214162032181624FF40001C162891084
:102D80000163FEF759FF08B1FEF7C6FC00BF0A4811
:102D90002064846300BF00BFE063846300BF06B0AB
:102DA00010BD0000002C01404438024000080240E1
:102DB000000C024058640240681800202DE9F043DE
:102DC00087B004460F4691461D46C8463FB9A06BE2
:102DD00040F00060A063012007B0BDE8F08394F8E4
:102DE000340001287ED10020A06308EB0501E06DCE
:102DF000814205D9A06B40F00070A0630120EBE791
:102E0000032084F8340000202168C8622068C06B69
:102E100040F22A3108432168C8633848216CC863EE
:102E20003748216CC8640020216C08650021206CA3
:102E30008160206C0068006820F0C000216C896807
:102E40000843216C096808606A029308226802F14D
:102E500080013A46206CFEF765FF80B12068C06BA8
:102E600020F495702168C863264821688863A06BA8
:102E700040F08040A063012084F83400ACE70120DA
:102E800021490860606C012801D04FEA48284FF0C2
:102E9000FF3001906802029090200390022004907D
:102EA000002005900120069001A9206804F008FB8D
:102EB000012D07D9822020634146206804F0FEFBE3
:102EC000064606E0812020634146206804F012FC9B
:102ED000064676B10B4821688863A06B3043A06337
:102EE000012000E007E084F8340000202063012086
:102EF00072E7002070E702206EE70000B17D000855
:102F00003D7D0008FF0540008C85254210B5044634
:102F1000FDF792FE10BD00002DE9F04387B0044696
:102F2000884691461D464F46B8F1000F07D1A06B69
:102F300040F00060A063012007B0BDE8F08394F882
:102F40003400012874D10020A0637919E06D81421A
:102F500005D9A06B40F00070A0630120ECE70320CE
:102F600084F8340000202168C8622068C06B40F2F9
:102F70001A2108432168C8633848E16BC8633848A0
:102F8000E16BC8640020E16B0865606C012800D02B
:102F90007F02012D07D9A02020633946206804F064
:102FA00087FC064606E0902020633946206804F03E
:102FB0009BFC064666B12B4821688863A06B3043B2
:102FC000A063012084F83400002020630120B3E7CF
:102FD0000120254908604021E06B8160E06B0068BA
:102FE000006820F0C000E16B89680843E16B096864
:102FF000086069028B08216801F180024146E06B9C
:10300000FEF790FEA8B12068C06B40F21A218843F9
:103010002168C863134821688863A06B40F0804032
:10302000A063012084F8340000202063012083E79E
:1030300011E04FF0FF300190680202909020039061
:103040000020049005900120069001A9206804F05A
:1030500037FA002070E702206EE70000F97D0008D3
:103060003D7D0008FF0540008C85254210B50446D3
:103070000CB9012010BD606A38B96068B0F5827F74
:1030800000D105E00021E16102E0002121616161E0
:103090000021A16294F8510028B9002084F8500062
:1030A000204600F047F8022084F8510020680068AC
:1030B00020F0400021680860A08800F48270218917
:1030C00001F404410843A18901F400610843217C13
:1030D00001F002010843217D01F001010843218B29
:1030E00001F400710843217F01F0380108432021D9
:1030F000095D01F080010843218D01F4005108436E
:10310000216808600421A06901EA104094F82410A5
:1031100001F010010843216848602068C06920F46C
:1031200000602168C86100206065012084F85100BA
:1031300000209FE710B586B00446142101A8FDF7D2
:1031400089F82B492068884250D100BF00200090A8
:103150002848006840F48040264908600846006816
:1031600000F48040009000BF00BF00BF002000902E
:1031700020481038006840F002001E4910390860ED
:103180000846006800F00200009000BF00BF4FF446
:10319000204001900220029001200390032004901F
:1031A0000520059001A91448FEF71AFE134814499A
:1031B0000860002048604021114881600021C16002
:1031C0004FF480610161002141618161C1614FF46F
:1031D0008031016200214162FEF72EFD08B1FEF749
:1031E0009BFA00BF0648A064846300BF06B010BD10
:1031F0000038004040380240000402407060024045
:103200002019002070B504462546681EB0F1807F65
:1032100001D301200FE0681E4FF0E02148610F212B
:103220004FF0FF3005F0A0FF00204FF0E021886153
:1032300007200861002070BD7047704710B5044634
:103240000CB9012010BD94F83D0028B9002084F885
:103250003C00204600F026F8022084F83D00211DA5
:10326000206805F091FC012084F8460000BF84F836
:103270003E0001213F2001554020015541200155CC
:1032800000BF00BF012084F84200432001554420C4
:1032900001554520015500BF012084F83D00002064
:1032A000D0E7000038B504460E492068884217D19F
:1032B00000BF002000900C48006840F480700A496C
:1032C00008600846006800F48070009000BF00BFEE
:1032D000002211462D20FEF715FF2D20FEF702FFDC
:1032E00038BD00000020004040380240014691F8FF
:1032F0003D00012801D001207047022081F83D00E7
:103300000868C06840F001000B68D8601A4B086874
:1033100098421BD00868B0F1804F17D0174B08684F
:10332000984213D0164B086898420FD0154B086886
:1033300098420BD0144B0868984207D0134B08688A
:10334000984203D0124B086898420CD108688068F4
:1033500000F00702062A0CD00868006840F001005F
:103360000B68186005E00868006840F001000B6811
:1033700018600020C0E70000000001400004004089
:1033800000080040000C00400004014000400140E3
:1033900000180040704710B5044620680069C0F36B
:1033A0004000D8B12068C068C0F34000B0B16FF0F1
:1033B000020021680861012020772068806900F000
:1033C000030018B12046FFF7E5FF05E0204600F0B6
:1033D000ADF8204600F0ABF80020207720680069A7
:1033E000C0F38000D8B12068C068C0F38000B0B1DD
:1033F0006FF004002168086102202077206880694E
:1034000000F4407018B12046FFF7C4FF05E02046E5
:1034100000F08CF8204600F08AF800202077206821
:103420000069C0F3C000D8B12068C068C0F3C00014
:10343000B0B16FF00800216808610420207720688F
:10344000C06900F0030018B12046FFF7A3FF05E0B4
:10345000204600F06BF8204600F069F80020207745
:1034600020680069C0F30010D8B12068C068C0F3BC
:103470000010B0B16FF010002168086108202077BB
:103480002068C06900F4407018B12046FFF782FF41
:1034900005E0204600F04AF8204600F048F80020F9
:1034A00020772068006900F0010058B12068C068EA
:1034B00000F0010030B16FF0010021680861204682
:1034C00000F036F820680069C0F3C01058B12068D9
:1034D000C068C0F3C01030B16FF08000216808618F
:1034E0002046FFF7A9FE20680069C0F3801058B19C
:1034F0002068C068C0F3801030B16FF040002168D0
:103500000861204600F026F820680069C0F34010EA
:1035100058B12068C068C0F3401030B16FF020008F
:10352000216808612046FFF788FE10BD704770478C
:1035300010B5044605492068884206D10448008831
:10354000401C0349088002F03DFE10BD00200040F1
:10355000EE10002070477047704700002DE9F84FCB
:103560000446206805682068C668206847694FF0EF
:103570000009CA4605F00F09B9F1000F0AD105F09C
:10358000200038B106F0200020B1204605F0D8FB1D
:10359000BDE8F88FB9F1000F7CD007F0010018B931
:1035A00006F49070002875D005F0010030B106F4E3
:1035B000807018B1206C40F00100206405F0040018
:1035C00030B107F0010018B1206C40F00200206417
:1035D00005F0020030B107F0010018B1206C40F096
:1035E0000400206405F0080048B106F0200010B97E
:1035F00007F0010018B1206C40F008002064206C36
:10360000002846D005F0200028B106F0200010B1B7
:10361000204605F095FB20684069C0F3801A206CB5
:1036200000F0080010B9BAF1000F2DD0204605F0C7
:1036300041FB2068406900F04000402820D100BFD5
:1036400000BF2168143151E8001F21F040002168BB
:10365000143141E80002002AF3D100BFA06B50B141
:103660007548A16B0865A06BFEF7AEF988B1A06B39
:10367000016D88470DE02046FFF76EFF09E009E085
:103680002046FFF769FF04E02046FFF765FF0020B2
:1036900020647DE7206B012876D105F0100000281A
:1036A00072D006F010000028FAD000BF0020009071
:1036B00020680068009020684068009000BF00BF4C
:1036C0002068406900F0400040285ED1A06B00688F
:1036D00040681FFA80F8B8F1000F54D0A08D404523
:1036E00051DDA4F82E80A06BC069B0F5807F43D077
:1036F00000BF00BF21680C3151E8001F21F4807029
:1037000021680C3141E80002002AF3D100BF00BF5C
:1037100000BF2168143151E8001F21F00100216829
:10372000143141E80002002AF3D100BF00BF00BFFE
:103730002168143151E8001F21F040002168143144
:1037400041E80002002AF3D100BF202084F83E00A7
:103750000020206300BF00BF21680C3151E8001F2A
:1037600021F0100021680C3141E80002002AF3D159
:1037700000BFA06BFEF7D2F8A08DE28D801A81B257
:103780002046FFF7E8FE03E740E0A08DE18D401AF8
:103790001FFA80F8E08DC0B3B8F1000F35D000BF3C
:1037A00000BF21680C3151E8001F21F4907021689E
:1037B0000C3141E80002002AF3D100BF00BF00BF76
:1037C0002168143151E8001F21F0010021681431F3
:1037D00041E80002002AF3D100BF202084F83E0017
:1037E0000020206300BF00BF21680C3151E8001F9A
:1037F00021F0100021680C3141E80002002AF3D1C9
:1038000000BF41462046FFF7A6FEC1E605F0800056
:1038100030B106F0800018B1204605F023FCB7E671
:1038200005F0400030B106F0400018B1204605F028
:1038300077FAADE600BFABE6A18C000810B50446F0
:103840000CB9012010BDA06900B100E000BF94F8E0
:103850003D0028B9002084F83C00204600F028F8FC
:10386000242084F83D002068C06820F400502168BE
:10387000C860204605F0E0FA2068006920F4904016
:10388000216808612068406920F02A0021684861A9
:103890002068C06840F400502168C860002020649F
:1038A000202084F83D0084F83E000020CAE7000094
:1038B00010B586B00446142101A8FCF7CBFC4149A1
:1038C000206888427BD100BF002000903E480068FD
:1038D00040F010003C4908600846006800F0100005
:1038E000009000BF00BF00BF002000903648143891
:1038F000006840F001003449143908600846006847
:1039000000F00100009000BF00BF4FF4C0600190C4
:1039100002200290012003900320049007200590CC
:1039200001A92A48FEF75CFA29482A4908604FF0A5
:1039300000604860002127488160C1604FF48061C9
:1039400001610021416181614FF48071C16109020F
:10395000016200214162FEF76FF908B1FDF7DCFE5C
:1039600000BF1C48A063846300BF194878301A491F
:1039700008604FF0006048604021174881600021D6
:10398000C1604FF480610161002141618161C161C9
:103990004FF48031016200214162FEF74DF908B118
:1039A000FDF7BAFE00BF0C486063846300BF0022CD
:1039B00011462520FEF7A6FB2520FEF793FB06B057
:1039C00010BD0000001001404438024000000240D9
:1039D000406402400C1A00206C1A002070477047A7
:1039E00000BFFEE7012804D0022806D0032809D131
:1039F00007E00121054A517205E00121034A917255
:103A000001E000E000BF00BF704700006017002029
:103A1000012804D0022806D0032806D104E00121A1
:103A2000034A117202E001E000E000BF00BF7047EE
:103A300060170020012804D0022806D0032806D1F0
:103A400004E00121034AD17102E001E000E000BF7F
:103A500000BF7047601700202DE9F04104460027A1
:103A60000125002694F824000A2802D00020BDE891
:103A7000F081206A80470646E06980470546607805
:103A800030B1012808D002280DD003281AD111E046
:103A90000DB90120607015E015B90220607001E0D9
:103AA000002060700EE015B90320607001E0002076
:103AB000607007E015B90120207002E000206070FE
:103AC000207000BF00BF2078012803D1606850B982
:103AD000666008E0606830B1A660D4E90110401A61
:103AE000E06000206060E06878B3E0680A280CD3EA
:103AF000E068B0F5487F08D20121E27C04F11000B3
:103B00008154E07C401CE07425E0E068B0F5487F1B
:103B10000DD340F6C411E068884208D80221E27C47
:103B200004F110008154E07C401CE07413E040F686
:103B3000C411E068884209D90321E27C04F1100035
:103B40008154E07C401CE07405E00BE00021E27C45
:103B500004F110008154E07C022801DD0220E074B1
:103B60000020E060207850B9606910B906F5C8708F
:103B700060616069B04204D20120207601E000203B
:103B80006061207E70B108480278084904F1100095
:103B900000F00EF807460020207400216174A17423
:103BA000E0742076384662E7E9100020CD1000204E
:103BB000F0B506460D46174600240BE005EB8400E1
:103BC000411C0322304603F091FA10B115F824008D
:103BD000F0BD641C072CF1DB0720F9E708B500BF36
:103BE000002000901E48006840F400101C49086046
:103BF0000846006800F40010009000BF00BF00BF3E
:103C0000002000900846006840F4800008600846E4
:103C1000006800F48000009000BF00BF0022114641
:103C20000F20FEF76FFA0F20FEF75CFA0022114614
:103C30003A20FEF767FA3A20FEF754FA00221146BE
:103C40003B20FEF75FFA3B20FEF74CFA00221146BC
:103C50004620FEF757FA4620FEF744FA08BD00005A
:103C60003038024010B503490348FDF758FD0349B9
:103C7000087010BD0D110020F80401080C1100207F
:103C800000B587B0142102A8FCF7E4FA00BF0020B9
:103C900001904A48006840F0200048490860084602
:103CA000006800F02000019000BF00BF00BF0020AE
:103CB00001900846006840F08000086008460068EF
:103CC00000F08000019000BF00BF00BF0020019005
:103CD0000846006840F0020008600846006800F0EE
:103CE0000200019000BF00BF00BF00200190084605
:103CF000006840F0080008600846006800F008000E
:103D0000019000BF00BF00BF00200190084600687E
:103D100040F0040008600846006800F004000190CC
:103D200000BF00BF00BF002001900846006840F0BF
:103D3000010008600846006800F00100019000BF23
:103D400000BF00224FF4E0611D48FEF74BF900224E
:103D50004FF478711B48FEF745F94FF4E07002907C
:103D6000002003900120049002A91748FEF738F8BC
:103D70004FF4E06002900120039004900020059031
:103D800002A90F48FEF72CF8E020029001200390D2
:103D900004900020059002A90A48FEF721F84FF48C
:103DA000407002900120039004900320059002A926
:103DB0000448FEF715F807B000BD00003038024097
:103DC000000C024000040240001402400748084969
:103DD000086000204860002105488160C1604FF400
:103DE000006101610021416181617047002C014047
:103DF000E417002010B50E480E4908604FF4827099
:103E0000486000210B488160C160016141614FF44D
:103E1000007181610821C1610021016241628162FA
:103E20000A21C162FFF722F908B1FDF775FC10BD48
:103E300000380040C818002010B50C480C49086034
:103E400044F29F1048600021094881600921C16047
:103E50000021016180218161FFF7F0F908B1FDF7D0
:103E60005BFC0348FFF742FA10BD00000020004051
:103E70008019002010B50A480A4908600A484860BD
:103E8000002108488160C16001610C21416100216D
:103E90008161C161FFF7D2FC08B1FDF73DFC10BDA7
:103EA00000100140C819002020A107009FED190A49
:103EB000194880ED020A9FED190A80ED030A9FED73
:103EC000150A80ED000A9FED150A80ED010A9FEDAD
:103ED000140A144880ED020A9FED100A80ED030ACF
:103EE0009FED0F0A80ED000A9FED0C0A80ED010A9C
:103EF0009FED0D0A0D4880ED020A9FED080A80ED46
:103F0000030A9FED090A80ED000A9FED040A80ED87
:103F1000010A7047000048C314110020000000008F
:103F200000000143441100200000004374110020F0
:103F300000BFFEE70A48D0ED010A0A48006890F980
:103F40000A0000EE100AB8EEC00A30EE800A0648F9
:103F5000D0ED030A30EE200A80ED030A704700001E
:103F60002413002090100020F41200200A48D0ED05
:103F7000010A0A480068B0F9360000EE100AB8EEEF
:103F8000C00A30EE800A0648D0ED020A30EEC00AC0
:103F900080ED020A704700002413002090100020DA
:103FA000F41200200A48D0ED010A0A480068B0F96E
:103FB000360000EE100AB8EEC00A30EE800A06485D
:103FC000D0ED020A30EE200A80ED020A70470000B0
:103FD0002413002090100020F41200200A48D0ED95
:103FE000010A0A48006890F90A0000EE100AB8EECB
:103FF000C00A30EE800A0648D0ED030A30EEC00A4F
:1040000080ED030A70470000241300209010002068
:10401000F412002038B504F033FA04F091FB04F0F8
:10402000B1FB04F027FC2448FDF742F82348FCF7D5
:10403000C3FE2348FCF7C0FE2248FCF782FE02F0D4
:104040004DFB2148FCF77DFE20480068007A1E4C9D
:10405000009094ED030ABDEEC00A10EE104A23B2A0
:10406000194C94ED020ABDEEC00A10EE104A22B2BD
:10407000154C94ED010ABDEEC00A10EE104A21B2B3
:10408000114C94ED000ABDEEC00A10EE104A20B2A9
:1040900002F086FF0E48007801F0B8FB0D48B0F939
:1040A000000000F01FF80C48FCF786FE0B48FCF7F8
:1040B00048FE00F085FC38BDF412002024130020D7
:1040C000C412002004120020A4110020901000202F
:1040D0009A1000209C100020DC12002064120020A6
:1040E00000BFFEE710B504460A48B0F9000084425C
:1040F00000D110BD07480480FF2C00DDFF24002CF8
:1041000000DA0024812002F09BFAE0B202F098FA73
:1041100000BFEEE7EC10002000200CE0002106E0DC
:104120000022064B03EBC0135A544A1C11B28029DB
:10413000F6DB421C10B20828F0DB70473C1300206D
:104140002DE9FF4F06460F469446BCF1000F02DDF5
:104150000399002901DCBDE8FF8F002E01DA002160
:1041600000E03146884606EB0C010BB2802B00DDE7
:104170008023984500DBEEE7002F01DA002100E004
:1041800039468946039939440CB2402C00DD40245D
:10419000A14500DBDFE7A3EB08010FFA81FCA4EBEC
:1041A000090109B2039148462FE0454629E04FEA4C
:1041B000E07A00EB5A7A4FEAEA0ADFF858B00BEBE4
:1041C000CA1A1AF805A002464FEAE07B00EB5B7BB7
:1041D0004FEAEB0BA0EBCB0E4FF0010B0BFA0EFBF3
:1041E0002AEA0B0A01464FEAE07B00EB5B7B4FEAD1
:1041F000EB0BDFF820E00EEBCB1B0BF805A0691CE6
:104200000DB29D42D3DB411C08B2A042CDDB00BF02
:10421000A1E700003C1300202DE9F05F07460E46A1
:1042200091469B46B9F1000F01DCBDE8F09FC9F152
:1042300001000FFA80FA00254C465A4621462846CE
:104240000A9B01F0BFF828B1321911B27A1910B2E5
:1042500000F0DAF95A46604201B2684200B20A9BA5
:1042600001F0B0F828B1321B11B27A1B10B200F085
:10427000CBF95A46294620460A9B01F0A3F828B1FB
:10428000721911B23A1910B200F0BEF95A466842DA
:1042900001B2604200B20A9B01F094F828B1721B8F
:1042A00011B23A1B10B200F0AFF90B98B0B16042F6
:1042B0000FFA80F810E05A46414600200A9B01F0B0
:1042C00081F828B106EB080001B2384600F09CF9ED
:1042D00008F101000FFA80F8A045ECDBD3E0681C80
:1042E00005B2BAF1000F05DA6800401C50440FFA1D
:1042F00080FA07E0601E04B2281B4000401C5044B6
:104300000FFA80FA5A46214628460A9B01F05AF8CD
:1043100028B1321911B27A1910B200F075F95A4663
:10432000294620460A9B01F04DF828B1721911B2B6
:104330003A1910B200F068F95A46604201B2684278
:1043400000B20A9B01F03EF828B1321B11B27A1B71
:1043500010B200F059F95A46684201B2604200B208
:104360000A9B01F02FF828B1721B11B23A1B10B250
:1043700000F04AF95A46604201B228460A9B01F011
:1043800021F828B1321B11B27A1910B200F03CF9B1
:104390005A46684201B220460A9B01F013F828B140
:1043A000721B11B23A1910B200F02EF95A4621468A
:1043B000684200B20A9B01F005F828B1321911B227
:1043C0007A1B10B200F020F95A462946604200B22A
:1043D0000A9B00F0F7FF28B1721911B23A1B10B214
:1043E00000F012F90B9800284DD060420FFA80F8C7
:1043F00020E05A46414628460A9B00F0E3FF30B1D0
:1044000006EB080211B27A1910B200F0FDF85A4614
:104410004146684200B20A9B00F0D4FF30B106EB7F
:10442000080211B27A1B10B200F0EEF808F1010098
:104430000FFA80F8A045DCDB68420FFA80F820E034
:104440005A464146604200B20A9B00F0BBFF30B1C1
:1044500006EB080211B23A1B10B200F0D5F85A462A
:10446000414620460A9B00F0ADFF30B106EB080242
:1044700011B23A1910B200F0C7F808F101000FFAB2
:1044800080F8A845DCDBA542FFF629AF00BFCCE6EB
:104490002DE9FF4F86B0069E079CDDF82080DDF8F1
:1044A00024900020019000904C450FD1464502DD3C
:1044B000B2464646D046354605E02146284600F03D
:1044C000A3F8681C05B24545F7DD99E046450FD1D4
:1044D0004C4502DDA2464C46D146274605E039460A
:1044E000304600F091F8781C07B24F45F7DD87E0C1
:1044F000464505DDB2464646D046A2464C46D14624
:104500004C4507DD604204B2C9F100000FFA80F9A2
:1045100001200190A9EB0400A8EB0601884207DD09
:10452000B24626465446C246C846D14601200090AF
:10453000A8EB060000B20590A9EB04000FFA80FB7F
:104540004FEA4B0000B203900598ABEB000040002F
:1045500000B202900598C0EB4B0000B204903546C3
:104560002746019838B1009828B1684201B2384610
:1045700000F04AF812E0019828B1784201B22846CA
:1045800000F042F80AE0009820B12946384600F0D1
:104590003BF803E03946284600F036F82EE0681C68
:1045A00005B20498002805DADDE90310084400B2DA
:1045B000049006E0781C07B202990498084400B2FF
:1045C0000490019838B1009828B1684201B2384689
:1045D00000F01AF812E0019828B1784201B228469A
:1045E00000F012F80AE0009820B12946384600F0A1
:1045F0000BF803E03946284600F006F84545CEDBC7
:104600000AB0BDE8F08F000070B50346002B05DB53
:10461000002903DB7F2B01DC3F2900DD70BDCC17B7
:1046200001EB5474E4100C4D05EBC414E45C0A4631
:10463000CD1701EB5575ED10A1EBC5060125B54071
:104640002C430846CD1701EB5575ED10024E06EBD5
:10465000C515EC5400BFE1E73C1300202DE9FF4FE6
:1046600084B0804689469246BAF1000F01D007987F
:1046700010B908B0BDE8F08F464608EB0A00401EAE
:1046800007B24C4607984844401E05B2002E00DA97
:104690000026802F00DB7F27002C00DA0024402D2D
:1046A00000DB3F25B81B401C00B20390281B401CB8
:1046B00000B202900398002802DD0298002800DC76
:1046C000D7E7119800BBB3460BE021465846FFF7E9
:1046D0009BFF29465846FFF797FF0BF101000FFAA1
:1046E00080FBBB45F1DDA3460BE059463046FFF7A2
:1046F0008BFF59463846FFF787FF0BF101000FFA91
:1047000080FBAB45F1DD4FE02046E11704EB517132
:10471000C9100BB22846E91705EB5171C9100FFA01
:1047200081FC2046E11704EB5171C910A4EBC102D2
:10473000FF219140C9B201912846E91705EB51715B
:10474000C910A5EBC101C1F10702FF211141009180
:10475000314626E0184620E0FF22984203D1DDF8DA
:1047600004B002EA0B02604503D1DDF800B002EAB2
:104770000B0200280FDB08280DDADFF830B00BEB56
:10478000C01B1BF801B04BEA020BDFF820E00EEB78
:10479000C01E0EF801B0421C10B26045DCDD481CA2
:1047A00001B2B942D6DD00BF00BF62E73C13002072
:1047B0002DE9FC4705460E4617469846DDE90A49AD
:1047C00017B1B8F1000F01D1BDE8FC8707EBD77234
:1047D0005210A24204DB08EBD8725210A24209DA4E
:1047E000474501DA394600E04146084601EBD07101
:1047F00049100CB2002C08DC43463A4631462846A4
:10480000CDF80090FFF72AFFDEE7022C38D13146C1
:10481000681C00B2FFF7F8FEE919891E08B231469C
:10482000FFF7F2FE06EB0800401E01B2681C00B262
:10483000FFF7EAFE06EB0802521E11B2EA19921EB9
:1048400010B2FFF7E1FE701C01B22846FFF7DCFE54
:1048500006EB0800801E01B22846FFF7D5FEE919D5
:10486000491E08B2711C09B2FFF7CEFE06EB080222
:10487000921E11B2EA19521E10B2FFF7C5FE37E0C0
:104880006FF05900321911B22A19CDE9000910B29E
:10489000B4232246FFF7C0FC0020321911B2EA19F6
:1048A000121B521ECDE9000910B26FF059032246C7
:1048B000FFF7B2FCB42006EB0802121B521E11B225
:1048C0002A19CDE9000910B25A232246FFF7A4FCA9
:1048D0005A2006EB0802121B521E11B2EA19121BD3
:1048E000521ECDE9000910B200232246FFF794FCC6
:1048F000B9F1000F18D00120022101FB14710AB296
:104900002919009008B243463146FFF7A7FE01205F
:104910000090022000FB148003B2301901B23A4625
:104920002846FFF79BFE48E0E919091B491E0AB219
:10493000291908B233463146FFF7AAFD06EB080CE9
:10494000ACF1010C0FFA8CF305EB070CACEB040C8B
:10495000ACF1010C0FFA8CF206EB080CACF1010C77
:104960000FFA8CF105EB040C0FFA8CF0FFF790FDB9
:1049700006EB0800001B401E03B2301901B22A46A4
:104980002846FFF785FD06EB080CACEB040CACF1F8
:10499000010C0FFA8CF305EB070CACF1010C0FFACC
:1049A0008CF206EB040C0FFA8CF105EB070CACF162
:1049B000010C0FFA8CF0FFF76BFD00BF04E700005D
:1049C0002DE9F0432DED048B89B0F848807880B94B
:1049D000B3EE0E0AF64880ED070A9FEDF60A80ED69
:1049E000060A9FEDF50A80ED040A9FEDF40A80EDBA
:1049F000050AF348006820B909B0BDEC048BBDE896
:104A0000F083EF49096891F910000021FCF752FF8B
:104A10000546EB49096891F910000121FCF74AFFAE
:104A20000446E248807801281BD0E14890ED030A53
:104A3000F3EE0E0AB4EE600AF1EE10FA7ED090EDBD
:104A4000020ADFEDDC0AB4EE600AF1EE10FAF5D0EE
:104A500090ED010ADFEDD90AB4EE600AF1EE10FA2A
:104A6000ECD0D7480068007AF0BB0020DFF840C3E4
:104A700000909CED030AF0EE000A30EE200ABDEE35
:104A8000C00A10EE10CA0FFA8CF3DFF824C39CEDB5
:104A9000020AF0EE000A30EE200ABDEEC00A10EE67
:104AA00010CA0FFA8CF2DFF808C39CED010AF7EE8A
:104AB000000A30EE600ABDEEC00A10EE10CA0FFA0E
:104AC0008CF1DFF8ECC29CED000AF7EE000A30EE44
:104AD000600ABDEEC00A10EE10CA0FFA8CF0FFF7A4
:104AE000BDFDDFF8CCC200E029E09CED030ABDEE7D
:104AF000C00A10EE10CA0FFA8CF3DFF8B4C29CEDB6
:104B0000020ABDEEC00A10EE10CA0FFA8CF2DFF8EE
:104B1000A0C29CED010ABDEEC00A10EE10CA0FFA49
:104B20008CF1DFF88CC29CED000ABDEEC00A10EEDD
:104B300010CA0FFA8CF0FFF703FB68E0CDE300200A
:104B40000221DFF86CC2CDE900109CED030AF0EE03
:104B5000000A30EE200ABDEEC00A10EE10CA0FFAAD
:104B60008CF3DFF84CC29CED020AF0EE000A30EE46
:104B7000200ABDEEC00A10EE10CA0FFA8CF2DFF860
:104B800030C29CED010AF7EE000A30EE600ABDEE7D
:104B9000C00A10EE10CA0FFA8CF1DFF814C29CEDB7
:104BA000000AF7EE000A30EE600ABDEEC00A10EE11
:104BB00010CA0FFA8CF0FFF7FBFDDFF8F4C19CED93
:104BC000030ABDEEC00A10EE10CA0FFA8CF3DFF82C
:104BD000E0C19CED020ABDEEC00A10EE10CA0FFA49
:104BE0008CF2DFF8CCC19CED010ABDEEC00A10EEDC
:104BF00010CA0FFA8CF1DFF8B8C19CED000ABDEEC7
:104C0000C00A10EE10CA0FFA8CF0FFF799FA684844
:104C1000D0ED020A6A480068B0F91200400000EEC8
:104C2000100AB8EEC00A30EEC00AF1EE000A30EE0B
:104C3000600ABDEEC00A10EE100A07B20026604AF4
:104C4000126891695E4A1268D069FCF755FE804689
:104C500008F1010000287DD0B8F1010F7BD1584840
:104C60000068C069B0F9003056A221462846FCF71A
:104C700043F800EE100AF8EEC00A4D4890ED021A13
:104C80004F480068B0F91200400000EE100AB8EE7C
:104C9000C00A31EE400A30EE600AF1EE000A30EE52
:104CA000600ABDEEC00A10EE100A07B24448006860
:104CB000C069B0F9003043A221462846FCF71CF831
:104CC00006463F480068C069B0F900103DA3E0B255
:104CD000EAB2CDE90431CDE902203548D0ED010A30
:104CE00037480068B0F9140000EE100AB8EEC00AA8
:104CF00030EE800ABDEEC00A10EE100A00B22C4958
:104D0000D1ED000A2E490968B1F9001000EE101A21
:104D1000B8EEC00A30EE800AF7EE000A70EE600AC4
:104D200027490968B1F9121000EE101AB8EEC00A4E
:104D300070EEC00A00EE106AB8EEC00A30EEC00A8B
:104D4000BDEEC00A10EE101A09B2DFF864C0CDE95A
:104D5000001001E0E6E137E09CED030ABDEEC00A79
:104D600010EE10CA0FFA8CF3DFF844C09CED020A73
:104D7000BDEEC00A10EE10CA0FFA8CF2DFF830C098
:104D80009CED010ABDEEC00A10EE10CA0FFA8CF1BC
:104D9000DFF81CC09CED000ABDEEC00A10EE10CA80
:104DA0000FFA8CF000F0A3FCCAE000009E10002077
:104DB000641200200000704200000842000020C27F
:104DC0009410002025336400FE480068806990ED4F
:104DD000000A10EE101A0846FBF70DFC41EC180B08
:104DE0008DED008BF8A221462846FBF785FF00EEEB
:104DF000100AF8EEC00AF64890ED021AF148006871
:104E0000B0F91200400000EE100AB8EEC00A31EE10
:104E1000400A30EE600AF1EE000A30EE600ABDEEA4
:104E2000C00A10EE100A07B2E6480068806990EDEB
:104E3000000A10EE101A0846FBF7DDFB41EC180BD8
:104E40008DED008BE0A221462846FBF755FF064674
:104E5000DC480068806990ED000A10EE101A0846E0
:104E6000FBF7C9FB41EC180B8DED068BD6A3E0B226
:104E7000E9B2D74AD2ED010AD24A1268B2F9142037
:104E800000EE102AB8EEC00A30EE800ABDEEC00A6D
:104E900010EE102A12B2CDE90303CDE90121CC486E
:104EA000D0ED000AC7480068B0F9000000EE100A13
:104EB000B8EEC00A30EE800AF7EE000A70EE600A23
:104EC000C0480068B0F9120000EE100AB8EEC00A3F
:104ED00070EEC00A00EE106AB8EEC00A30EEC00AEA
:104EE000BDEEC00A10EE100A00B2DFF8E4C2009076
:104EF0009CED030ABDEEC00A10EE10CA0FFA8CF347
:104F0000DFF8CCC29CED020ABDEEC00A10EE10CA5A
:104F10000FFA8CF2DFF8B8C29CED010ABDEEC00AB0
:104F200010EE10CA0FFA8CF1DFF8A4C29CED000A53
:104F3000BDEEC00A10EE10CA0FFA8CF000F0D7FBDD
:104F400000200221DFF888C2CDE90010DCED020A62
:104F5000DFF870C2DCF800C0BCF92EC04FEA4C0C80
:104F600000EE10CAB8EEC00A30EEC00ABDEEC00AAC
:104F700010EE10CA0FFA8CF2DFF854C29CED010A51
:104F8000DCED030A70EE200ADFF838C2DCF800C05E
:104F9000BCF930C000EE10CAB8EEC00A70EEC00A0C
:104FA000DFF820C2DCF800C0BCF92CC000EE10CA4B
:104FB000B8EEC00A30EEC00ABDEEC00A10EE10CA4C
:104FC0000FFA8CF1DFF808C2DCED000ADFF8F4C15B
:104FD000DCF800C0BCF92EC000EE10CAB8EEC00A62
:104FE00030EE800ABDEEC00A10EE10CA0FFA8CF047
:104FF000DFF8D0C1DCF800C0BCF93030FFF7D8FBD7
:105000000120DFF8CCC10090DCED020ADFF8B4C16A
:10501000DCF800C0BCF92EC04FEA4C0C00EE10CA00
:10502000B8EEC00A30EEC00AF1EE000A30EE600AB7
:10503000DFF8A0C1DCED000AB4EEE00AF1EE10FAF0
:1050400016D8DFF88CC1DCED020ADFF878C1DCF895
:1050500000C0BCF92EC04FEA4C0C00EE10CAB8EEEE
:10506000C00A30EEC00AF1EE000A30EE600A03E03A
:10507000DFF860C19CED000ABDEEC00A10EE10CA58
:105080000FFA8CF2DFF848C19CED010ADCED030A4F
:1050900070EE200ADFF82CC1DCF800C0BCF930C08B
:1050A00000EE10CAB8EEC00A70EEC00ADFF814C1F4
:1050B000DCF800C0BCF92CC000EE10CAB8EEC00A83
:1050C00030EEC00AF0EE000A30EE200ABDEEC00A53
:1050D00010EE10CA0FFA8CF1DFF8F4C0DCED000A14
:1050E000DFF8E0C0DCF800C0BCF92EC000EE10CA4A
:1050F000B8EEC00A30EE800AF0EE000A30EE200A68
:10510000BDEEC00A10EE10CA0FFA8CF0DFF8B4C082
:10511000DCF800C0BCF830C0ACF1040C0FFA8CF322
:10512000FFF79CFA27480068C06800287DD0254812
:1051300000682146C2682846FBF7DEFD8146B94576
:105140003CDD234890ED000AD0ED040AB4EE600A7D
:10515000F1EE10FA32D190ED010AD0ED050AB4EE6D
:10516000600AF1EE10FA29D190ED020AD0ED060A9C
:10517000B4EE600AF1EE10FA20D190ED030AD0ED02
:10518000070AB4EE600AF1EE10FA17D10D48006874
:1051900090ED0D0A10EE101A0846FBF72CFA41ECC0
:1051A000190B9FED0D0B53EC102BFBF70DF941EC98
:1051B000180BFBF763FA0349096848630148006864
:1051C0000EE000009410002025352E32660000000D
:1051D00064120020DC120020000000000000E03F0C
:1051E000D0ED0D0AC9F1000000EE100AB8EEC00AB9
:1051F000F4EEC00AF1EE10FA08D2781C00EE100AA4
:10520000B8EEC00A3848006880ED0D0A36480068DC
:10521000C168E0B2EAB2354BD3ED010A324B1B68EC
:10522000B3F9143000EE103A00E055E0B8EEC00AD1
:1052300030EE800ABDEEC00A10EE103A1BB2CDE986
:105240000132CDE903012948D0ED000A2648006863
:10525000B0F9120000EE100AB8EEC00A30EE800A73
:1052600021480068D0ED0D0A30EE200ABDEEC00ADC
:1052700010EE100A00B21D4A0090D2ED010A1A4A3F
:105280001268B2F9142000EE102AB8EEC00A30EE0F
:10529000800ABDEEC00A10EE102A11B2134AD2EDF8
:1052A000000A114A1268B2F9122000EE102AB8EE74
:1052B000C00A30EE800ABDEEC00A10EE102A10B20D
:1052C0000A4A92ED030ABDEEC00A10EE102A13B28C
:1052D0003A4600F00CFA00BF02E0002002490860E4
:1052E00000BFFFF789BB000094100020641200206B
:1052F00010B54FF4001032490860002006E000218C
:1053000000E0491CB1F57A7FFBDB401CB0F57A7FE9
:10531000F5DB20202A490860AE2001F091F9FD203C
:1053200001F08EF9122001F08BF9D52001F088F9F7
:10533000A02001F085F9A82001F082F93F2001F0BA
:105340007FF9D32001F07CF9002001F079F94020A9
:1053500001F076F9A12001F073F9C82001F070F98D
:10536000DA2001F06DF9122001F06AF9812001F0D4
:1053700067F9FF2001F064F9D92001F061F92520D7
:1053800001F05EF9DB2001F05BF9342001F058F9FF
:10539000A42001F055F9A62001F052F9FEF7BCFE59
:1053A000AF2001F04DF9002006E0002100E0491C8B
:1053B000B1F57A7FFBDB401CB0F57A7FF5DB10BDE1
:1053C000180402402DE9F0412DED0A8B80460F466E
:1053D00014461D464046FBF7DEF841EC1B0B3846F1
:1053E000FBF7D9F841EC1C0BB0EE4B1AF0EE6B1A40
:1053F000B0EE4C0AF0EE6C0A04F036F8B0EE40AABB
:10540000F0EE60AA9FED130B53EC102B51EC1A0B2E
:10541000FBF752F841EC180B9FED100B53EC102BDF
:10542000FAF7D8FF41EC190BFBF7C6F806B2AC420D
:1054300008DAA6420CDBAE420ADC0120BDEC0A8B86
:10544000BDE8F081A64201DAAE4201DC0120F5E7B9
:105450000020F3E71F85EB51B81E09400000000053
:105460000080664070B52DED028B82B08548807853
:10547000854988708348C078C87082480078087071
:105480008048407848708148407A7E4908707F485B
:10549000807A487080217E48FCF79CFD79498870AD
:1054A0004FF480717A48FCF795FD7649C87000206A
:1054B00076494872887274488078E0BB7148807879
:1054C000C8BB74480088401C00B272490880084676
:1054D000B0F9000000EE100AB8EEC00ADFED6E0A67
:1054E000B4EEE00AF1EE10FA31DB6C480088401CA3
:1054F00000B26A4908806748B0F90000FBF74BF832
:1055000041EC180B9FED660B53EC102BFBF79EF84C
:1055100001D8012000E00A206049B1F9001088425A
:105520000ADC01206049087000205C4908800120E5
:105530005D4908700BE003E000205B49087006E05D
:1055400000205449088055490880574908704E4842
:10555000C078E0BB4B48C078C8BB54480088401CAA
:1055600000B2524908800846B0F9000000EE100A67
:10557000B8EEC00ADFED480AB4EEE00AF1EE10FA28
:1055800031DB4B480088401C00B24949088047483D
:10559000B0F90000FAF7FFFF41EC180B9FED400B4C
:1055A00053EC102BFBF752F801D8012000E00A2041
:1055B0003F49B1F9001088420ADC01203D490870DA
:1055C00000203B49088001203A4908700BE003E0C5
:1055D00000203849087006E000203449088034492A
:1055E000088034490870274880782649C97888425D
:1055F00004D100202C4908702E4908702E490968F2
:105600000869FCF74BF90646002001902A4800681B
:10561000B0F93A402546FCF73FF8204404B2194857
:10562000807819498978884203D016488078012803
:1056300002D01D48007808B1601E04B21148C0783D
:105640001149C978884203D00E48C078012802D099
:105650001848007808B1601C04B2601B00B2ADF8B5
:105660000600701EA04200DC04B2002C00DC002406
:10567000601B00B2ADF80400019802B0BDEC028BD3
:1056800070BD0000861000208A10002060170020E6
:1056900000140240A410002000002042A6100020A8
:1056A0000000000000806140A2100020A81000202F
:1056B000AA100020A3100020901000200FB470B595
:1056C000A2B005460E4614462AA8019002A8019AE7
:1056D000299903F017FD00200190234602AA3146C4
:1056E000284600F07BFC22B070BC5DF814FB2DE96D
:1056F000F04FA7B004460D4616461F46DDE932AB13
:10570000DDE9308935A8069007A8069A349903F098
:10571000F9FC0020069007A83B4632462946CDE911
:1057200003ABCDE900890290204600F017FC27B0BA
:10573000BDE8F08F2DE9F04F044615461E46002DBA
:1057400001DD002E01DCBDE8F08F7F2C00DDFAE7E3
:105750003F2900DDF7E76219802A02DDC4F18002EB
:1057600015B28A19402A02DDC1F1400216B262194F
:10577000002A00DAE7E78A19002A00DAE3E7002CBA
:1057800002DA4FF0000C00E0A446002902DA4FF0E4
:10579000000800E08846404630E0674629E04FEACE
:1057A000E07900EB59794FEAE909DFF85CA00AEBF0
:1057B000C91919F8079003464FEAE07A00EB5A7AC4
:1057C0004FEAEA0AA0EBCA0B4FF0010A0AFA0BFAF9
:1057D00089EA0A0902464FEAE07A00EB5A7A4FEA70
:1057E000EA0ADFF824B00BEBCA1A0AF807907A1C11
:1057F00017B26219BA42D2DC421C10B28A19824234
:10580000CBDC00BF9FE700003C130020014908707B
:1058100070470000EA10002030B505460C4645F000
:10582000B00000F00DFF102141EA141000F008FF55
:1058300004F00F0000F004FF30BD0000F8B506468C
:105840000F4614461D46082D0CD1A4F120001F4917
:1058500001EB00101023082239460090304600F07A
:10586000AFF931E0062D0ED1A4F1200000EB40008D
:10587000174901EB400008230622394600903046C4
:1058800000F09EF920E0072D0ED1A4F12000C0EB1E
:10589000C000104901EB40000C230722394600905C
:1058A000304600F08DF90FE00A2D0DD1A4F1200053
:1058B000C0EB0010084901EB400014230A223946CE
:1058C0000090304600F07CF9F8BD000052AE0008B0
:1058D00074B9000842B4000830A300082DE9F04F65
:1058E00085B004460D4616461F46DDE90EABDDE9E0
:1058F0001089B9F1080F0ED1A8F12000254901EB5C
:1059000000101023082259468DE8F00004905046FC
:1059100000F04EFA3AE0B9F1060F10D1A8F12000DC
:1059200000EB40001C4901EB4000082306225946C9
:105930008DE8F0000490504600F03AFA26E0B9F104
:10594000070F10D1A8F12000C0EBC000134901EBF4
:1059500040000C23072259468DE8F0000490504681
:1059600000F026FA12E0B9F10A0F0FD1A8F12000D9
:10597000C0EB00100A4901EB400014230A225946EB
:105980008DE8F0000490504600F012FA05B0BDE832
:10599000F08F000052AE000874B9000842B400084D
:1059A00030A300082DE9F04F89B080468946924621
:1059B0009B46159E0020089007900027EDE0149864
:1059C000C15D07AA089811540898401CC0B20890FD
:1059D000089802287ADB00200890082E01D1734D28
:1059E0000AE00C2E01D1724D06E0102E01D1714D4E
:1059F00002E0142E00D1704D082E31D100240BE0AE
:105A000004EB440101EBC401481907A9FAF72DFC86
:105A100000B90BE0601CC4B204EB440101EBC4010B
:105A2000481966A1FAF721FC0028E9D100BF04EB70
:105A3000440000EBC4002844C01C791C8DE8000F12
:105A40000691049001EBD1714910491E129A02EBA4
:105A5000C10108B208231A46139900F0A9F999E088
:105A60000C2E34D100240BE004EBC40101EB410106
:105A7000481907A9FAF7F9FB00B90BE0601CC4B29A
:105A800004EBC40101EB410148194CA1FAF7EDFB0D
:105A90000028E9D100BF04EBC40000EB400028441B
:105AA000C01C791C8DE8000F0691049001EBD171A8
:105AB0004910491E01EB4102129901EB820108B223
:105AC0000C231A46139900F073F963E063E0102E7B
:105AD00031D100240BE0C4EBC40101EB8101481972
